{
  "abi": [
    {
      "inputs": [
        {
          "internalType": "uint256",
          "name": "minimum",
          "type": "uint256"
        },
        {
          "internalType": "address",
          "name": "creator",
          "type": "address"
        }
      ],
      "stateMutability": "nonpayable",
      "type": "constructor"
    },
    {
      "inputs": [
        {
          "internalType": "uint256",
          "name": "index",
          "type": "uint256"
        }
      ],
      "name": "approveRequest",
      "outputs": [],
      "stateMutability": "payable",
      "type": "function"
    },
    {
      "inputs": [
        {
          "internalType": "address",
          "name": "",
          "type": "address"
        }
      ],
      "name": "approvers",
      "outputs": [
        {
          "internalType": "bool",
          "name": "",
          "type": "bool"
        }
      ],
      "stateMutability": "view",
      "type": "function"
    },
    {
      "inputs": [],
      "name": "approversCount",
      "outputs": [
        {
          "internalType": "uint256",
          "name": "",
          "type": "uint256"
        }
      ],
      "stateMutability": "view",
      "type": "function"
    },
    {
      "inputs": [],
      "name": "contribute",
      "outputs": [],
      "stateMutability": "payable",
      "type": "function"
    },
    {
      "inputs": [
        {
          "internalType": "string",
          "name": "description",
          "type": "string"
        },
        {
          "internalType": "uint256",
          "name": "value",
          "type": "uint256"
        },
        {
          "internalType": "address payable",
          "name": "recipient",
          "type": "address"
        }
      ],
      "name": "createRequest",
      "outputs": [],
      "stateMutability": "nonpayable",
      "type": "function"
    },
    {
      "inputs": [
        {
          "internalType": "uint256",
          "name": "index",
          "type": "uint256"
        }
      ],
      "name": "finalizeRequest",
      "outputs": [],
      "stateMutability": "payable",
      "type": "function"
    },
    {
      "inputs": [],
      "name": "getRequestsCount",
      "outputs": [
        {
          "internalType": "uint256",
          "name": "",
          "type": "uint256"
        }
      ],
      "stateMutability": "view",
      "type": "function"
    },
    {
      "inputs": [],
      "name": "getSummary",
      "outputs": [
        {
          "internalType": "uint256",
          "name": "",
          "type": "uint256"
        },
        {
          "internalType": "uint256",
          "name": "",
          "type": "uint256"
        },
        {
          "internalType": "uint256",
          "name": "",
          "type": "uint256"
        },
        {
          "internalType": "uint256",
          "name": "",
          "type": "uint256"
        },
        {
          "internalType": "address",
          "name": "",
          "type": "address"
        }
      ],
      "stateMutability": "view",
      "type": "function"
    },
    {
      "inputs": [],
      "name": "manager",
      "outputs": [
        {
          "internalType": "address",
          "name": "",
          "type": "address"
        }
      ],
      "stateMutability": "view",
      "type": "function"
    },
    {
      "inputs": [],
      "name": "minimumContribution",
      "outputs": [
        {
          "internalType": "uint256",
          "name": "",
          "type": "uint256"
        }
      ],
      "stateMutability": "view",
      "type": "function"
    },
    {
      "inputs": [
        {
          "internalType": "uint256",
          "name": "",
          "type": "uint256"
        }
      ],
      "name": "requests",
      "outputs": [
        {
          "internalType": "string",
          "name": "description",
          "type": "string"
        },
        {
          "internalType": "uint256",
          "name": "value",
          "type": "uint256"
        },
        {
          "internalType": "address payable",
          "name": "recipient",
          "type": "address"
        },
        {
          "internalType": "bool",
          "name": "complete",
          "type": "bool"
        },
        {
          "internalType": "uint256",
          "name": "approvalCount",
          "type": "uint256"
        }
      ],
      "stateMutability": "view",
      "type": "function"
    }
  ],
  "devdoc": {
    "kind": "dev",
    "methods": {},
    "version": 1
  },
  "evm": {
    "assembly": "    /* \"Campaign.sol\":442:2758  contract Campaign {\r... */\n  mstore(0x40, 0x80)\n    /* \"Campaign.sol\":743:744  0 */\n  0x00\n    /* \"Campaign.sol\":724:744  uint numRequests = 0 */\n  dup1\n  sstore\n    /* \"Campaign.sol\":948:949  0 */\n  0x00\n    /* \"Campaign.sol\":919:949  uint public approversCount = 0 */\n  0x05\n  sstore\n    /* \"Campaign.sol\":1057:1177  constructor (uint minimum, address creator) {\r... */\n  callvalue\n  dup1\n  iszero\n  tag_1\n  jumpi\n  0x00\n  dup1\n  revert\ntag_1:\n  pop\n  mload(0x40)\n  sub(codesize, bytecodeSize)\n  dup1\n  bytecodeSize\n  dup4\n  codecopy\n  dup2\n  dup2\n  add\n  0x40\n  mstore\n  dup2\n  add\n  swap1\n  tag_2\n  swap2\n  swap1\n  tag_3\n  jump\t// in\ntag_2:\n    /* \"Campaign.sol\":1122:1129  creator */\n  dup1\n    /* \"Campaign.sol\":1112:1119  manager */\n  0x02\n  0x00\n    /* \"Campaign.sol\":1112:1129  manager = creator */\n  0x0100\n  exp\n  dup2\n  sload\n  dup2\n  0xffffffffffffffffffffffffffffffffffffffff\n  mul\n  not\n  and\n  swap1\n  dup4\n  0xffffffffffffffffffffffffffffffffffffffff\n  and\n  mul\n  or\n  swap1\n  sstore\n  pop\n    /* \"Campaign.sol\":1162:1169  minimum */\n  dup2\n    /* \"Campaign.sol\":1140:1159  minimumContribution */\n  0x03\n    /* \"Campaign.sol\":1140:1169  minimumContribution = minimum */\n  dup2\n  swap1\n  sstore\n  pop\n    /* \"Campaign.sol\":1057:1177  constructor (uint minimum, address creator) {\r... */\n  pop\n  pop\n    /* \"Campaign.sol\":442:2758  contract Campaign {\r... */\n  jump(tag_6)\n    /* \"#utility.yul\":7:150   */\ntag_8:\n    /* \"#utility.yul\":64:69   */\n  0x00\n    /* \"#utility.yul\":95:101   */\n  dup2\n    /* \"#utility.yul\":89:102   */\n  mload\n    /* \"#utility.yul\":80:102   */\n  swap1\n  pop\n    /* \"#utility.yul\":111:144   */\n  tag_10\n    /* \"#utility.yul\":138:143   */\n  dup2\n    /* \"#utility.yul\":111:144   */\n  tag_11\n  jump\t// in\ntag_10:\n    /* \"#utility.yul\":70:150   */\n  swap3\n  swap2\n  pop\n  pop\n  jump\t// out\n    /* \"#utility.yul\":156:299   */\ntag_12:\n    /* \"#utility.yul\":213:218   */\n  0x00\n    /* \"#utility.yul\":244:250   */\n  dup2\n    /* \"#utility.yul\":238:251   */\n  mload\n    /* \"#utility.yul\":229:251   */\n  swap1\n  pop\n    /* \"#utility.yul\":260:293   */\n  tag_14\n    /* \"#utility.yul\":287:292   */\n  dup2\n    /* \"#utility.yul\":260:293   */\n  tag_15\n  jump\t// in\ntag_14:\n    /* \"#utility.yul\":219:299   */\n  swap3\n  swap2\n  pop\n  pop\n  jump\t// out\n    /* \"#utility.yul\":305:812   */\ntag_3:\n    /* \"#utility.yul\":384:390   */\n  0x00\n    /* \"#utility.yul\":392:398   */\n  dup1\n    /* \"#utility.yul\":441:443   */\n  0x40\n    /* \"#utility.yul\":429:438   */\n  dup4\n    /* \"#utility.yul\":420:427   */\n  dup6\n    /* \"#utility.yul\":416:439   */\n  sub\n    /* \"#utility.yul\":412:444   */\n  slt\n    /* \"#utility.yul\":409:411   */\n  iszero\n  tag_17\n  jumpi\n    /* \"#utility.yul\":447:526   */\n  tag_18\n  tag_19\n  jump\t// in\ntag_18:\n    /* \"#utility.yul\":409:411   */\ntag_17:\n    /* \"#utility.yul\":567:568   */\n  0x00\n    /* \"#utility.yul\":592:656   */\n  tag_20\n    /* \"#utility.yul\":648:655   */\n  dup6\n    /* \"#utility.yul\":639:645   */\n  dup3\n    /* \"#utility.yul\":628:637   */\n  dup7\n    /* \"#utility.yul\":624:646   */\n  add\n    /* \"#utility.yul\":592:656   */\n  tag_12\n  jump\t// in\ntag_20:\n    /* \"#utility.yul\":582:656   */\n  swap3\n  pop\n    /* \"#utility.yul\":538:666   */\n  pop\n    /* \"#utility.yul\":705:707   */\n  0x20\n    /* \"#utility.yul\":731:795   */\n  tag_21\n    /* \"#utility.yul\":787:794   */\n  dup6\n    /* \"#utility.yul\":778:784   */\n  dup3\n    /* \"#utility.yul\":767:776   */\n  dup7\n    /* \"#utility.yul\":763:785   */\n  add\n    /* \"#utility.yul\":731:795   */\n  tag_8\n  jump\t// in\ntag_21:\n    /* \"#utility.yul\":721:795   */\n  swap2\n  pop\n    /* \"#utility.yul\":676:805   */\n  pop\n    /* \"#utility.yul\":399:812   */\n  swap3\n  pop\n  swap3\n  swap1\n  pop\n  jump\t// out\n    /* \"#utility.yul\":899:995   */\ntag_24:\n    /* \"#utility.yul\":936:943   */\n  0x00\n    /* \"#utility.yul\":965:989   */\n  tag_26\n    /* \"#utility.yul\":983:988   */\n  dup3\n    /* \"#utility.yul\":965:989   */\n  tag_27\n  jump\t// in\ntag_26:\n    /* \"#utility.yul\":954:989   */\n  swap1\n  pop\n    /* \"#utility.yul\":944:995   */\n  swap2\n  swap1\n  pop\n  jump\t// out\n    /* \"#utility.yul\":1001:1127   */\ntag_27:\n    /* \"#utility.yul\":1038:1045   */\n  0x00\n    /* \"#utility.yul\":1078:1120   */\n  0xffffffffffffffffffffffffffffffffffffffff\n    /* \"#utility.yul\":1071:1076   */\n  dup3\n    /* \"#utility.yul\":1067:1121   */\n  and\n    /* \"#utility.yul\":1056:1121   */\n  swap1\n  pop\n    /* \"#utility.yul\":1046:1127   */\n  swap2\n  swap1\n  pop\n  jump\t// out\n    /* \"#utility.yul\":1133:1210   */\ntag_29:\n    /* \"#utility.yul\":1170:1177   */\n  0x00\n    /* \"#utility.yul\":1199:1204   */\n  dup2\n    /* \"#utility.yul\":1188:1204   */\n  swap1\n  pop\n    /* \"#utility.yul\":1178:1210   */\n  swap2\n  swap1\n  pop\n  jump\t// out\n    /* \"#utility.yul\":1339:1456   */\ntag_19:\n    /* \"#utility.yul\":1448:1449   */\n  0x00\n    /* \"#utility.yul\":1445:1446   */\n  dup1\n    /* \"#utility.yul\":1438:1450   */\n  revert\n    /* \"#utility.yul\":1462:1584   */\ntag_11:\n    /* \"#utility.yul\":1535:1559   */\n  tag_35\n    /* \"#utility.yul\":1553:1558   */\n  dup2\n    /* \"#utility.yul\":1535:1559   */\n  tag_24\n  jump\t// in\ntag_35:\n    /* \"#utility.yul\":1528:1533   */\n  dup2\n    /* \"#utility.yul\":1525:1560   */\n  eq\n    /* \"#utility.yul\":1515:1517   */\n  tag_36\n  jumpi\n    /* \"#utility.yul\":1574:1575   */\n  0x00\n    /* \"#utility.yul\":1571:1572   */\n  dup1\n    /* \"#utility.yul\":1564:1576   */\n  revert\n    /* \"#utility.yul\":1515:1517   */\ntag_36:\n    /* \"#utility.yul\":1505:1584   */\n  pop\n  jump\t// out\n    /* \"#utility.yul\":1590:1712   */\ntag_15:\n    /* \"#utility.yul\":1663:1687   */\n  tag_38\n    /* \"#utility.yul\":1681:1686   */\n  dup2\n    /* \"#utility.yul\":1663:1687   */\n  tag_29\n  jump\t// in\ntag_38:\n    /* \"#utility.yul\":1656:1661   */\n  dup2\n    /* \"#utility.yul\":1653:1688   */\n  eq\n    /* \"#utility.yul\":1643:1645   */\n  tag_39\n  jumpi\n    /* \"#utility.yul\":1702:1703   */\n  0x00\n    /* \"#utility.yul\":1699:1700   */\n  dup1\n    /* \"#utility.yul\":1692:1704   */\n  revert\n    /* \"#utility.yul\":1643:1645   */\ntag_39:\n    /* \"#utility.yul\":1633:1712   */\n  pop\n  jump\t// out\n    /* \"Campaign.sol\":442:2758  contract Campaign {\r... */\ntag_6:\n  dataSize(sub_0)\n  dup1\n  dataOffset(sub_0)\n  0x00\n  codecopy\n  0x00\n  return\nstop\n\nsub_0: assembly {\n        /* \"Campaign.sol\":442:2758  contract Campaign {\r... */\n      mstore(0x40, 0x80)\n      jumpi(tag_1, lt(calldatasize, 0x04))\n      shr(0xe0, calldataload(0x00))\n      dup1\n      0x81d12c58\n      gt\n      tag_13\n      jumpi\n      dup1\n      0x81d12c58\n      eq\n      tag_7\n      jumpi\n      dup1\n      0x82fde093\n      eq\n      tag_8\n      jumpi\n      dup1\n      0x8a9cfd55\n      eq\n      tag_9\n      jumpi\n      dup1\n      0x937e09b1\n      eq\n      tag_10\n      jumpi\n      dup1\n      0xd7bb99ba\n      eq\n      tag_11\n      jumpi\n      dup1\n      0xd7d1bbdb\n      eq\n      tag_12\n      jumpi\n      jump(tag_1)\n    tag_13:\n      dup1\n      0x03441006\n      eq\n      tag_2\n      jumpi\n      dup1\n      0x0a144391\n      eq\n      tag_3\n      jumpi\n      dup1\n      0x3410452a\n      eq\n      tag_4\n      jumpi\n      dup1\n      0x4051ddac\n      eq\n      tag_5\n      jumpi\n      dup1\n      0x481c6a75\n      eq\n      tag_6\n      jumpi\n    tag_1:\n      0x00\n      dup1\n      revert\n        /* \"Campaign.sol\":2038:2387  function finalizeRequest(uint index) public payable restricted {\r... */\n    tag_2:\n      tag_14\n      0x04\n      dup1\n      calldatasize\n      sub\n      dup2\n      add\n      swap1\n      tag_15\n      swap2\n      swap1\n      tag_16\n      jump\t// in\n    tag_15:\n      tag_17\n      jump\t// in\n    tag_14:\n      stop\n        /* \"Campaign.sol\":871:912  mapping(address => bool) public approvers */\n    tag_3:\n      callvalue\n      dup1\n      iszero\n      tag_18\n      jumpi\n      0x00\n      dup1\n      revert\n    tag_18:\n      pop\n      tag_19\n      0x04\n      dup1\n      calldatasize\n      sub\n      dup2\n      add\n      swap1\n      tag_20\n      swap2\n      swap1\n      tag_21\n      jump\t// in\n    tag_20:\n      tag_22\n      jump\t// in\n    tag_19:\n      mload(0x40)\n      tag_23\n      swap2\n      swap1\n      tag_24\n      jump\t// in\n    tag_23:\n      mload(0x40)\n      dup1\n      swap2\n      sub\n      swap1\n      return\n        /* \"Campaign.sol\":2663:2755  function getRequestsCount() public view returns (uint) {\r... */\n    tag_4:\n      callvalue\n      dup1\n      iszero\n      tag_25\n      jumpi\n      0x00\n      dup1\n      revert\n    tag_25:\n      pop\n      tag_26\n      tag_27\n      jump\t// in\n    tag_26:\n      mload(0x40)\n      tag_28\n      swap2\n      swap1\n      tag_29\n      jump\t// in\n    tag_28:\n      mload(0x40)\n      dup1\n      swap2\n      sub\n      swap1\n      return\n        /* \"Campaign.sol\":2395:2655  function getSummary() public view returns (uint, uint, uint, uint, address) {\r... */\n    tag_5:\n      callvalue\n      dup1\n      iszero\n      tag_30\n      jumpi\n      0x00\n      dup1\n      revert\n    tag_30:\n      pop\n      tag_31\n      tag_32\n      jump\t// in\n    tag_31:\n      mload(0x40)\n      tag_33\n      swap6\n      swap5\n      swap4\n      swap3\n      swap2\n      swap1\n      tag_34\n      jump\t// in\n    tag_33:\n      mload(0x40)\n      dup1\n      swap2\n      sub\n      swap1\n      return\n        /* \"Campaign.sol\":804:826  address public manager */\n    tag_6:\n      callvalue\n      dup1\n      iszero\n      tag_35\n      jumpi\n      0x00\n      dup1\n      revert\n    tag_35:\n      pop\n      tag_36\n      tag_37\n      jump\t// in\n    tag_36:\n      mload(0x40)\n      tag_38\n      swap2\n      swap1\n      tag_39\n      jump\t// in\n    tag_38:\n      mload(0x40)\n      dup1\n      swap2\n      sub\n      swap1\n      return\n        /* \"Campaign.sol\":751:791  mapping(uint => Request) public requests */\n    tag_7:\n      callvalue\n      dup1\n      iszero\n      tag_40\n      jumpi\n      0x00\n      dup1\n      revert\n    tag_40:\n      pop\n      tag_41\n      0x04\n      dup1\n      calldatasize\n      sub\n      dup2\n      add\n      swap1\n      tag_42\n      swap2\n      swap1\n      tag_16\n      jump\t// in\n    tag_42:\n      tag_43\n      jump\t// in\n    tag_41:\n      mload(0x40)\n      tag_44\n      swap6\n      swap5\n      swap4\n      swap3\n      swap2\n      swap1\n      tag_45\n      jump\t// in\n    tag_44:\n      mload(0x40)\n      dup1\n      swap2\n      sub\n      swap1\n      return\n        /* \"Campaign.sol\":919:949  uint public approversCount = 0 */\n    tag_8:\n      callvalue\n      dup1\n      iszero\n      tag_46\n      jumpi\n      0x00\n      dup1\n      revert\n    tag_46:\n      pop\n      tag_47\n      tag_48\n      jump\t// in\n    tag_47:\n      mload(0x40)\n      tag_49\n      swap2\n      swap1\n      tag_29\n      jump\t// in\n    tag_49:\n      mload(0x40)\n      dup1\n      swap2\n      sub\n      swap1\n      return\n        /* \"Campaign.sol\":1363:1711  function createRequest(string memory description, uint value, address payable recipient) public restricted {\r... */\n    tag_9:\n      callvalue\n      dup1\n      iszero\n      tag_50\n      jumpi\n      0x00\n      dup1\n      revert\n    tag_50:\n      pop\n      tag_51\n      0x04\n      dup1\n      calldatasize\n      sub\n      dup2\n      add\n      swap1\n      tag_52\n      swap2\n      swap1\n      tag_53\n      jump\t// in\n    tag_52:\n      tag_54\n      jump\t// in\n    tag_51:\n      stop\n        /* \"Campaign.sol\":833:864  uint public minimumContribution */\n    tag_10:\n      callvalue\n      dup1\n      iszero\n      tag_55\n      jumpi\n      0x00\n      dup1\n      revert\n    tag_55:\n      pop\n      tag_56\n      tag_57\n      jump\t// in\n    tag_56:\n      mload(0x40)\n      tag_58\n      swap2\n      swap1\n      tag_29\n      jump\t// in\n    tag_58:\n      mload(0x40)\n      dup1\n      swap2\n      sub\n      swap1\n      return\n        /* \"Campaign.sol\":1189:1351  function contribute() public payable {\r... */\n    tag_11:\n      tag_59\n      tag_60\n      jump\t// in\n    tag_59:\n      stop\n        /* \"Campaign.sol\":1723:2026  function approveRequest(uint index) public payable {\r... */\n    tag_12:\n      tag_61\n      0x04\n      dup1\n      calldatasize\n      sub\n      dup2\n      add\n      swap1\n      tag_62\n      swap2\n      swap1\n      tag_16\n      jump\t// in\n    tag_62:\n      tag_63\n      jump\t// in\n    tag_61:\n      stop\n        /* \"Campaign.sol\":2038:2387  function finalizeRequest(uint index) public payable restricted {\r... */\n    tag_17:\n        /* \"Campaign.sol\":1017:1024  manager */\n      0x02\n      0x00\n      swap1\n      sload\n      swap1\n      0x0100\n      exp\n      swap1\n      div\n      0xffffffffffffffffffffffffffffffffffffffff\n      and\n        /* \"Campaign.sol\":1003:1024  msg.sender == manager */\n      0xffffffffffffffffffffffffffffffffffffffff\n      and\n        /* \"Campaign.sol\":1003:1013  msg.sender */\n      caller\n        /* \"Campaign.sol\":1003:1024  msg.sender == manager */\n      0xffffffffffffffffffffffffffffffffffffffff\n      and\n      eq\n        /* \"Campaign.sol\":995:1025  require(msg.sender == manager) */\n      tag_65\n      jumpi\n      0x00\n      dup1\n      revert\n    tag_65:\n        /* \"Campaign.sol\":2112:2135  Request storage request */\n      0x00\n        /* \"Campaign.sol\":2138:2146  requests */\n      0x01\n        /* \"Campaign.sol\":2138:2153  requests[index] */\n      0x00\n        /* \"Campaign.sol\":2147:2152  index */\n      dup4\n        /* \"Campaign.sol\":2138:2153  requests[index] */\n      dup2\n      mstore\n      0x20\n      add\n      swap1\n      dup2\n      mstore\n      0x20\n      add\n      0x00\n      keccak256\n        /* \"Campaign.sol\":2112:2153  Request storage request = requests[index] */\n      swap1\n      pop\n        /* \"Campaign.sol\":2183:2190  request */\n      dup1\n        /* \"Campaign.sol\":2183:2199  request.complete */\n      0x02\n      add\n      0x14\n      swap1\n      sload\n      swap1\n      0x0100\n      exp\n      swap1\n      div\n      0xff\n      and\n        /* \"Campaign.sol\":2182:2199  !request.complete */\n      iszero\n        /* \"Campaign.sol\":2174:2200  require(!request.complete) */\n      tag_67\n      jumpi\n      0x00\n      dup1\n      revert\n    tag_67:\n        /* \"Campaign.sol\":2269:2270  2 */\n      0x02\n        /* \"Campaign.sol\":2254:2268  approversCount */\n      sload(0x05)\n        /* \"Campaign.sol\":2254:2270  approversCount/2 */\n      tag_68\n      swap2\n      swap1\n      tag_69\n      jump\t// in\n    tag_68:\n        /* \"Campaign.sol\":2229:2236  request */\n      dup2\n        /* \"Campaign.sol\":2229:2250  request.approvalCount */\n      0x03\n      add\n      sload\n        /* \"Campaign.sol\":2229:2271  request.approvalCount > (approversCount/2) */\n      gt\n        /* \"Campaign.sol\":2221:2273  require(request.approvalCount > (approversCount/2) ) */\n      tag_70\n      jumpi\n      0x00\n      dup1\n      revert\n    tag_70:\n        /* \"Campaign.sol\":2294:2301  request */\n      dup1\n        /* \"Campaign.sol\":2294:2311  request.recipient */\n      0x02\n      add\n      0x00\n      swap1\n      sload\n      swap1\n      0x0100\n      exp\n      swap1\n      div\n      0xffffffffffffffffffffffffffffffffffffffff\n      and\n        /* \"Campaign.sol\":2294:2320  request.recipient.transfer */\n      0xffffffffffffffffffffffffffffffffffffffff\n      and\n        /* \"Campaign.sol\":2294:2335  request.recipient.transfer(request.value) */\n      0x08fc\n        /* \"Campaign.sol\":2321:2328  request */\n      dup3\n        /* \"Campaign.sol\":2321:2334  request.value */\n      0x01\n      add\n      sload\n        /* \"Campaign.sol\":2294:2335  request.recipient.transfer(request.value) */\n      swap1\n      dup2\n      iszero\n      mul\n      swap1\n      mload(0x40)\n      0x00\n      mload(0x40)\n      dup1\n      dup4\n      sub\n      dup2\n      dup6\n      dup9\n      dup9\n      call\n      swap4\n      pop\n      pop\n      pop\n      pop\n      iszero\n      dup1\n      iszero\n      tag_72\n      jumpi\n      returndatasize\n      0x00\n      dup1\n      returndatacopy\n      revert(0x00, returndatasize)\n    tag_72:\n      pop\n        /* \"Campaign.sol\":2375:2379  true */\n      0x01\n        /* \"Campaign.sol\":2356:2363  request */\n      dup2\n        /* \"Campaign.sol\":2356:2372  request.complete */\n      0x02\n      add\n      0x14\n        /* \"Campaign.sol\":2356:2379  request.complete = true */\n      0x0100\n      exp\n      dup2\n      sload\n      dup2\n      0xff\n      mul\n      not\n      and\n      swap1\n      dup4\n      iszero\n      iszero\n      mul\n      or\n      swap1\n      sstore\n      pop\n        /* \"Campaign.sol\":2101:2387  {\r... */\n      pop\n        /* \"Campaign.sol\":2038:2387  function finalizeRequest(uint index) public payable restricted {\r... */\n      pop\n      jump\t// out\n        /* \"Campaign.sol\":871:912  mapping(address => bool) public approvers */\n    tag_22:\n      mstore(0x20, 0x04)\n      dup1\n      0x00\n      mstore\n      keccak256(0x00, 0x40)\n      0x00\n      swap2\n      pop\n      sload\n      swap1\n      0x0100\n      exp\n      swap1\n      div\n      0xff\n      and\n      dup2\n      jump\t// out\n        /* \"Campaign.sol\":2663:2755  function getRequestsCount() public view returns (uint) {\r... */\n    tag_27:\n        /* \"Campaign.sol\":2712:2716  uint */\n      0x00\n        /* \"Campaign.sol\":2736:2747  numRequests */\n      dup1\n      sload\n        /* \"Campaign.sol\":2729:2747  return numRequests */\n      swap1\n      pop\n        /* \"Campaign.sol\":2663:2755  function getRequestsCount() public view returns (uint) {\r... */\n      swap1\n      jump\t// out\n        /* \"Campaign.sol\":2395:2655  function getSummary() public view returns (uint, uint, uint, uint, address) {\r... */\n    tag_32:\n        /* \"Campaign.sol\":2438:2442  uint */\n      0x00\n        /* \"Campaign.sol\":2444:2448  uint */\n      dup1\n        /* \"Campaign.sol\":2450:2454  uint */\n      0x00\n        /* \"Campaign.sol\":2456:2460  uint */\n      dup1\n        /* \"Campaign.sol\":2462:2469  address */\n      0x00\n        /* \"Campaign.sol\":2504:2523  minimumContribution */\n      sload(0x03)\n        /* \"Campaign.sol\":2538:2559  address(this).balance */\n      selfbalance\n        /* \"Campaign.sol\":2574:2585  numRequests */\n      sload(0x00)\n        /* \"Campaign.sol\":2600:2614  approversCount */\n      sload(0x05)\n        /* \"Campaign.sol\":2629:2636  manager */\n      0x02\n      0x00\n      swap1\n      sload\n      swap1\n      0x0100\n      exp\n      swap1\n      div\n      0xffffffffffffffffffffffffffffffffffffffff\n      and\n        /* \"Campaign.sol\":2482:2647  return (\r... */\n      swap5\n      pop\n      swap5\n      pop\n      swap5\n      pop\n      swap5\n      pop\n      swap5\n      pop\n        /* \"Campaign.sol\":2395:2655  function getSummary() public view returns (uint, uint, uint, uint, address) {\r... */\n      swap1\n      swap2\n      swap3\n      swap4\n      swap5\n      jump\t// out\n        /* \"Campaign.sol\":804:826  address public manager */\n    tag_37:\n      0x02\n      0x00\n      swap1\n      sload\n      swap1\n      0x0100\n      exp\n      swap1\n      div\n      0xffffffffffffffffffffffffffffffffffffffff\n      and\n      dup2\n      jump\t// out\n        /* \"Campaign.sol\":751:791  mapping(uint => Request) public requests */\n    tag_43:\n      mstore(0x20, 0x01)\n      dup1\n      0x00\n      mstore\n      keccak256(0x00, 0x40)\n      0x00\n      swap2\n      pop\n      swap1\n      pop\n      dup1\n      0x00\n      add\n      dup1\n      sload\n      tag_75\n      swap1\n      tag_76\n      jump\t// in\n    tag_75:\n      dup1\n      0x1f\n      add\n      0x20\n      dup1\n      swap2\n      div\n      mul\n      0x20\n      add\n      mload(0x40)\n      swap1\n      dup2\n      add\n      0x40\n      mstore\n      dup1\n      swap3\n      swap2\n      swap1\n      dup2\n      dup2\n      mstore\n      0x20\n      add\n      dup3\n      dup1\n      sload\n      tag_77\n      swap1\n      tag_76\n      jump\t// in\n    tag_77:\n      dup1\n      iszero\n      tag_78\n      jumpi\n      dup1\n      0x1f\n      lt\n      tag_79\n      jumpi\n      0x0100\n      dup1\n      dup4\n      sload\n      div\n      mul\n      dup4\n      mstore\n      swap2\n      0x20\n      add\n      swap2\n      jump(tag_78)\n    tag_79:\n      dup3\n      add\n      swap2\n      swap1\n      0x00\n      mstore\n      keccak256(0x00, 0x20)\n      swap1\n    tag_80:\n      dup2\n      sload\n      dup2\n      mstore\n      swap1\n      0x01\n      add\n      swap1\n      0x20\n      add\n      dup1\n      dup4\n      gt\n      tag_80\n      jumpi\n      dup3\n      swap1\n      sub\n      0x1f\n      and\n      dup3\n      add\n      swap2\n    tag_78:\n      pop\n      pop\n      pop\n      pop\n      pop\n      swap1\n      dup1\n      0x01\n      add\n      sload\n      swap1\n      dup1\n      0x02\n      add\n      0x00\n      swap1\n      sload\n      swap1\n      0x0100\n      exp\n      swap1\n      div\n      0xffffffffffffffffffffffffffffffffffffffff\n      and\n      swap1\n      dup1\n      0x02\n      add\n      0x14\n      swap1\n      sload\n      swap1\n      0x0100\n      exp\n      swap1\n      div\n      0xff\n      and\n      swap1\n      dup1\n      0x03\n      add\n      sload\n      swap1\n      pop\n      dup6\n      jump\t// out\n        /* \"Campaign.sol\":919:949  uint public approversCount = 0 */\n    tag_48:\n      sload(0x05)\n      dup2\n      jump\t// out\n        /* \"Campaign.sol\":1363:1711  function createRequest(string memory description, uint value, address payable recipient) public restricted {\r... */\n    tag_54:\n        /* \"Campaign.sol\":1017:1024  manager */\n      0x02\n      0x00\n      swap1\n      sload\n      swap1\n      0x0100\n      exp\n      swap1\n      div\n      0xffffffffffffffffffffffffffffffffffffffff\n      and\n        /* \"Campaign.sol\":1003:1024  msg.sender == manager */\n      0xffffffffffffffffffffffffffffffffffffffff\n      and\n        /* \"Campaign.sol\":1003:1013  msg.sender */\n      caller\n        /* \"Campaign.sol\":1003:1024  msg.sender == manager */\n      0xffffffffffffffffffffffffffffffffffffffff\n      and\n      eq\n        /* \"Campaign.sol\":995:1025  require(msg.sender == manager) */\n      tag_82\n      jumpi\n      0x00\n      dup1\n      revert\n    tag_82:\n        /* \"Campaign.sol\":1481:1498  Request storage r */\n      0x00\n        /* \"Campaign.sol\":1501:1509  requests */\n      0x01\n        /* \"Campaign.sol\":1501:1522  requests[numRequests] */\n      0x00\n        /* \"Campaign.sol\":1510:1521  numRequests */\n      dup1\n      sload\n        /* \"Campaign.sol\":1501:1522  requests[numRequests] */\n      dup2\n      mstore\n      0x20\n      add\n      swap1\n      dup2\n      mstore\n      0x20\n      add\n      0x00\n      keccak256\n        /* \"Campaign.sol\":1481:1522  Request storage r = requests[numRequests] */\n      swap1\n      pop\n        /* \"Campaign.sol\":1549:1560  description */\n      dup4\n        /* \"Campaign.sol\":1533:1534  r */\n      dup2\n        /* \"Campaign.sol\":1533:1546  r.description */\n      0x00\n      add\n        /* \"Campaign.sol\":1533:1560  r.description = description */\n      swap1\n      dup1\n      mload\n      swap1\n      0x20\n      add\n      swap1\n      tag_84\n      swap3\n      swap2\n      swap1\n      tag_85\n      jump\t// in\n    tag_84:\n      pop\n        /* \"Campaign.sol\":1581:1586  value */\n      dup3\n        /* \"Campaign.sol\":1571:1572  r */\n      dup2\n        /* \"Campaign.sol\":1571:1578  r.value */\n      0x01\n      add\n        /* \"Campaign.sol\":1571:1586  r.value = value */\n      dup2\n      swap1\n      sstore\n      pop\n        /* \"Campaign.sol\":1611:1620  recipient */\n      dup2\n        /* \"Campaign.sol\":1597:1598  r */\n      dup2\n        /* \"Campaign.sol\":1597:1608  r.recipient */\n      0x02\n      add\n      0x00\n        /* \"Campaign.sol\":1597:1620  r.recipient = recipient */\n      0x0100\n      exp\n      dup2\n      sload\n      dup2\n      0xffffffffffffffffffffffffffffffffffffffff\n      mul\n      not\n      and\n      swap1\n      dup4\n      0xffffffffffffffffffffffffffffffffffffffff\n      and\n      mul\n      or\n      swap1\n      sstore\n      pop\n        /* \"Campaign.sol\":1644:1649  false */\n      0x00\n        /* \"Campaign.sol\":1631:1632  r */\n      dup2\n        /* \"Campaign.sol\":1631:1641  r.complete */\n      0x02\n      add\n      0x14\n        /* \"Campaign.sol\":1631:1649  r.complete = false */\n      0x0100\n      exp\n      dup2\n      sload\n      dup2\n      0xff\n      mul\n      not\n      and\n      swap1\n      dup4\n      iszero\n      iszero\n      mul\n      or\n      swap1\n      sstore\n      pop\n        /* \"Campaign.sol\":1678:1679  0 */\n      0x00\n        /* \"Campaign.sol\":1660:1661  r */\n      dup2\n        /* \"Campaign.sol\":1660:1675  r.approvalCount */\n      0x03\n      add\n        /* \"Campaign.sol\":1660:1679  r.approvalCount = 0 */\n      dup2\n      swap1\n      sstore\n      pop\n        /* \"Campaign.sol\":1690:1701  numRequests */\n      0x00\n      dup1\n        /* \"Campaign.sol\":1690:1703  numRequests++ */\n      dup2\n      sload\n      dup1\n      swap3\n      swap2\n      swap1\n      tag_86\n      swap1\n      tag_87\n      jump\t// in\n    tag_86:\n      swap2\n      swap1\n      pop\n      sstore\n      pop\n        /* \"Campaign.sol\":1470:1711  {\r... */\n      pop\n        /* \"Campaign.sol\":1363:1711  function createRequest(string memory description, uint value, address payable recipient) public restricted {\r... */\n      pop\n      pop\n      pop\n      jump\t// out\n        /* \"Campaign.sol\":833:864  uint public minimumContribution */\n    tag_57:\n      sload(0x03)\n      dup2\n      jump\t// out\n        /* \"Campaign.sol\":1189:1351  function contribute() public payable {\r... */\n    tag_60:\n        /* \"Campaign.sol\":1257:1276  minimumContribution */\n      sload(0x03)\n        /* \"Campaign.sol\":1245:1254  msg.value */\n      callvalue\n        /* \"Campaign.sol\":1245:1276  msg.value > minimumContribution */\n      gt\n        /* \"Campaign.sol\":1237:1277  require(msg.value > minimumContribution) */\n      tag_89\n      jumpi\n      0x00\n      dup1\n      revert\n    tag_89:\n        /* \"Campaign.sol\":1312:1316  true */\n      0x01\n        /* \"Campaign.sol\":1288:1297  approvers */\n      0x04\n        /* \"Campaign.sol\":1288:1309  approvers[msg.sender] */\n      0x00\n        /* \"Campaign.sol\":1298:1308  msg.sender */\n      caller\n        /* \"Campaign.sol\":1288:1309  approvers[msg.sender] */\n      0xffffffffffffffffffffffffffffffffffffffff\n      and\n      0xffffffffffffffffffffffffffffffffffffffff\n      and\n      dup2\n      mstore\n      0x20\n      add\n      swap1\n      dup2\n      mstore\n      0x20\n      add\n      0x00\n      keccak256\n      0x00\n        /* \"Campaign.sol\":1288:1316  approvers[msg.sender] = true */\n      0x0100\n      exp\n      dup2\n      sload\n      dup2\n      0xff\n      mul\n      not\n      and\n      swap1\n      dup4\n      iszero\n      iszero\n      mul\n      or\n      swap1\n      sstore\n      pop\n        /* \"Campaign.sol\":1327:1341  approversCount */\n      0x05\n      0x00\n        /* \"Campaign.sol\":1327:1343  approversCount++ */\n      dup2\n      sload\n      dup1\n      swap3\n      swap2\n      swap1\n      tag_90\n      swap1\n      tag_87\n      jump\t// in\n    tag_90:\n      swap2\n      swap1\n      pop\n      sstore\n      pop\n        /* \"Campaign.sol\":1189:1351  function contribute() public payable {\r... */\n      jump\t// out\n        /* \"Campaign.sol\":1723:2026  function approveRequest(uint index) public payable {\r... */\n    tag_63:\n        /* \"Campaign.sol\":1785:1808  Request storage request */\n      0x00\n        /* \"Campaign.sol\":1811:1819  requests */\n      0x01\n        /* \"Campaign.sol\":1811:1826  requests[index] */\n      0x00\n        /* \"Campaign.sol\":1820:1825  index */\n      dup4\n        /* \"Campaign.sol\":1811:1826  requests[index] */\n      dup2\n      mstore\n      0x20\n      add\n      swap1\n      dup2\n      mstore\n      0x20\n      add\n      0x00\n      keccak256\n        /* \"Campaign.sol\":1785:1826  Request storage request = requests[index] */\n      swap1\n      pop\n        /* \"Campaign.sol\":1855:1864  approvers */\n      0x04\n        /* \"Campaign.sol\":1855:1876  approvers[msg.sender] */\n      0x00\n        /* \"Campaign.sol\":1865:1875  msg.sender */\n      caller\n        /* \"Campaign.sol\":1855:1876  approvers[msg.sender] */\n      0xffffffffffffffffffffffffffffffffffffffff\n      and\n      0xffffffffffffffffffffffffffffffffffffffff\n      and\n      dup2\n      mstore\n      0x20\n      add\n      swap1\n      dup2\n      mstore\n      0x20\n      add\n      0x00\n      keccak256\n      0x00\n      swap1\n      sload\n      swap1\n      0x0100\n      exp\n      swap1\n      div\n      0xff\n      and\n        /* \"Campaign.sol\":1847:1877  require(approvers[msg.sender]) */\n      tag_92\n      jumpi\n      0x00\n      dup1\n      revert\n    tag_92:\n        /* \"Campaign.sol\":1897:1904  request */\n      dup1\n        /* \"Campaign.sol\":1897:1914  request.approvals */\n      0x04\n      add\n        /* \"Campaign.sol\":1897:1926  request.approvals[msg.sender] */\n      0x00\n        /* \"Campaign.sol\":1915:1925  msg.sender */\n      caller\n        /* \"Campaign.sol\":1897:1926  request.approvals[msg.sender] */\n      0xffffffffffffffffffffffffffffffffffffffff\n      and\n      0xffffffffffffffffffffffffffffffffffffffff\n      and\n      dup2\n      mstore\n      0x20\n      add\n      swap1\n      dup2\n      mstore\n      0x20\n      add\n      0x00\n      keccak256\n      0x00\n      swap1\n      sload\n      swap1\n      0x0100\n      exp\n      swap1\n      div\n      0xff\n      and\n        /* \"Campaign.sol\":1896:1926  !request.approvals[msg.sender] */\n      iszero\n        /* \"Campaign.sol\":1888:1927  require(!request.approvals[msg.sender]) */\n      tag_93\n      jumpi\n      0x00\n      dup1\n      revert\n    tag_93:\n        /* \"Campaign.sol\":1980:1984  true */\n      0x01\n        /* \"Campaign.sol\":1948:1955  request */\n      dup2\n        /* \"Campaign.sol\":1948:1965  request.approvals */\n      0x04\n      add\n        /* \"Campaign.sol\":1948:1977  request.approvals[msg.sender] */\n      0x00\n        /* \"Campaign.sol\":1966:1976  msg.sender */\n      caller\n        /* \"Campaign.sol\":1948:1977  request.approvals[msg.sender] */\n      0xffffffffffffffffffffffffffffffffffffffff\n      and\n      0xffffffffffffffffffffffffffffffffffffffff\n      and\n      dup2\n      mstore\n      0x20\n      add\n      swap1\n      dup2\n      mstore\n      0x20\n      add\n      0x00\n      keccak256\n      0x00\n        /* \"Campaign.sol\":1948:1984  request.approvals[msg.sender] = true */\n      0x0100\n      exp\n      dup2\n      sload\n      dup2\n      0xff\n      mul\n      not\n      and\n      swap1\n      dup4\n      iszero\n      iszero\n      mul\n      or\n      swap1\n      sstore\n      pop\n        /* \"Campaign.sol\":1995:2002  request */\n      dup1\n        /* \"Campaign.sol\":1995:2016  request.approvalCount */\n      0x03\n      add\n      0x00\n        /* \"Campaign.sol\":1995:2018  request.approvalCount++ */\n      dup2\n      sload\n      dup1\n      swap3\n      swap2\n      swap1\n      tag_94\n      swap1\n      tag_87\n      jump\t// in\n    tag_94:\n      swap2\n      swap1\n      pop\n      sstore\n      pop\n        /* \"Campaign.sol\":1774:2026  {\r... */\n      pop\n        /* \"Campaign.sol\":1723:2026  function approveRequest(uint index) public payable {\r... */\n      pop\n      jump\t// out\n    tag_85:\n      dup3\n      dup1\n      sload\n      tag_95\n      swap1\n      tag_76\n      jump\t// in\n    tag_95:\n      swap1\n      0x00\n      mstore\n      keccak256(0x00, 0x20)\n      swap1\n      0x1f\n      add\n      0x20\n      swap1\n      div\n      dup2\n      add\n      swap3\n      dup3\n      tag_97\n      jumpi\n      0x00\n      dup6\n      sstore\n      jump(tag_96)\n    tag_97:\n      dup3\n      0x1f\n      lt\n      tag_98\n      jumpi\n      dup1\n      mload\n      not(0xff)\n      and\n      dup4\n      dup1\n      add\n      or\n      dup6\n      sstore\n      jump(tag_96)\n    tag_98:\n      dup3\n      dup1\n      add\n      0x01\n      add\n      dup6\n      sstore\n      dup3\n      iszero\n      tag_96\n      jumpi\n      swap2\n      dup3\n      add\n    tag_99:\n      dup3\n      dup2\n      gt\n      iszero\n      tag_100\n      jumpi\n      dup3\n      mload\n      dup3\n      sstore\n      swap2\n      0x20\n      add\n      swap2\n      swap1\n      0x01\n      add\n      swap1\n      jump(tag_99)\n    tag_100:\n    tag_96:\n      pop\n      swap1\n      pop\n      tag_101\n      swap2\n      swap1\n      tag_102\n      jump\t// in\n    tag_101:\n      pop\n      swap1\n      jump\t// out\n    tag_102:\n    tag_103:\n      dup1\n      dup3\n      gt\n      iszero\n      tag_104\n      jumpi\n      0x00\n      dup2\n      0x00\n      swap1\n      sstore\n      pop\n      0x01\n      add\n      jump(tag_103)\n    tag_104:\n      pop\n      swap1\n      jump\t// out\n        /* \"#utility.yul\":7:419   */\n    tag_106:\n        /* \"#utility.yul\":85:90   */\n      0x00\n        /* \"#utility.yul\":110:176   */\n      tag_108\n        /* \"#utility.yul\":126:175   */\n      tag_109\n        /* \"#utility.yul\":168:174   */\n      dup5\n        /* \"#utility.yul\":126:175   */\n      tag_110\n      jump\t// in\n    tag_109:\n        /* \"#utility.yul\":110:176   */\n      tag_111\n      jump\t// in\n    tag_108:\n        /* \"#utility.yul\":101:176   */\n      swap1\n      pop\n        /* \"#utility.yul\":199:205   */\n      dup3\n        /* \"#utility.yul\":192:197   */\n      dup2\n        /* \"#utility.yul\":185:206   */\n      mstore\n        /* \"#utility.yul\":237:241   */\n      0x20\n        /* \"#utility.yul\":230:235   */\n      dup2\n        /* \"#utility.yul\":226:242   */\n      add\n        /* \"#utility.yul\":275:278   */\n      dup5\n        /* \"#utility.yul\":266:272   */\n      dup5\n        /* \"#utility.yul\":261:264   */\n      dup5\n        /* \"#utility.yul\":257:273   */\n      add\n        /* \"#utility.yul\":254:279   */\n      gt\n        /* \"#utility.yul\":251:253   */\n      iszero\n      tag_112\n      jumpi\n        /* \"#utility.yul\":282:361   */\n      tag_113\n      tag_114\n      jump\t// in\n    tag_113:\n        /* \"#utility.yul\":251:253   */\n    tag_112:\n        /* \"#utility.yul\":372:413   */\n      tag_115\n        /* \"#utility.yul\":406:412   */\n      dup5\n        /* \"#utility.yul\":401:404   */\n      dup3\n        /* \"#utility.yul\":396:399   */\n      dup6\n        /* \"#utility.yul\":372:413   */\n      tag_116\n      jump\t// in\n    tag_115:\n        /* \"#utility.yul\":91:419   */\n      pop\n      swap4\n      swap3\n      pop\n      pop\n      pop\n      jump\t// out\n        /* \"#utility.yul\":425:564   */\n    tag_117:\n        /* \"#utility.yul\":471:476   */\n      0x00\n        /* \"#utility.yul\":509:515   */\n      dup2\n        /* \"#utility.yul\":496:516   */\n      calldataload\n        /* \"#utility.yul\":487:516   */\n      swap1\n      pop\n        /* \"#utility.yul\":525:558   */\n      tag_119\n        /* \"#utility.yul\":552:557   */\n      dup2\n        /* \"#utility.yul\":525:558   */\n      tag_120\n      jump\t// in\n    tag_119:\n        /* \"#utility.yul\":477:564   */\n      swap3\n      swap2\n      pop\n      pop\n      jump\t// out\n        /* \"#utility.yul\":570:725   */\n    tag_121:\n        /* \"#utility.yul\":624:629   */\n      0x00\n        /* \"#utility.yul\":662:668   */\n      dup2\n        /* \"#utility.yul\":649:669   */\n      calldataload\n        /* \"#utility.yul\":640:669   */\n      swap1\n      pop\n        /* \"#utility.yul\":678:719   */\n      tag_123\n        /* \"#utility.yul\":713:718   */\n      dup2\n        /* \"#utility.yul\":678:719   */\n      tag_124\n      jump\t// in\n    tag_123:\n        /* \"#utility.yul\":630:725   */\n      swap3\n      swap2\n      pop\n      pop\n      jump\t// out\n        /* \"#utility.yul\":745:1085   */\n    tag_125:\n        /* \"#utility.yul\":801:806   */\n      0x00\n        /* \"#utility.yul\":850:853   */\n      dup3\n        /* \"#utility.yul\":843:847   */\n      0x1f\n        /* \"#utility.yul\":835:841   */\n      dup4\n        /* \"#utility.yul\":831:848   */\n      add\n        /* \"#utility.yul\":827:854   */\n      slt\n        /* \"#utility.yul\":817:819   */\n      tag_127\n      jumpi\n        /* \"#utility.yul\":858:937   */\n      tag_128\n      tag_129\n      jump\t// in\n    tag_128:\n        /* \"#utility.yul\":817:819   */\n    tag_127:\n        /* \"#utility.yul\":975:981   */\n      dup2\n        /* \"#utility.yul\":962:982   */\n      calldataload\n        /* \"#utility.yul\":1000:1079   */\n      tag_130\n        /* \"#utility.yul\":1075:1078   */\n      dup5\n        /* \"#utility.yul\":1067:1073   */\n      dup3\n        /* \"#utility.yul\":1060:1064   */\n      0x20\n        /* \"#utility.yul\":1052:1058   */\n      dup7\n        /* \"#utility.yul\":1048:1065   */\n      add\n        /* \"#utility.yul\":1000:1079   */\n      tag_106\n      jump\t// in\n    tag_130:\n        /* \"#utility.yul\":991:1079   */\n      swap2\n      pop\n        /* \"#utility.yul\":807:1085   */\n      pop\n      swap3\n      swap2\n      pop\n      pop\n      jump\t// out\n        /* \"#utility.yul\":1091:1230   */\n    tag_131:\n        /* \"#utility.yul\":1137:1142   */\n      0x00\n        /* \"#utility.yul\":1175:1181   */\n      dup2\n        /* \"#utility.yul\":1162:1182   */\n      calldataload\n        /* \"#utility.yul\":1153:1182   */\n      swap1\n      pop\n        /* \"#utility.yul\":1191:1224   */\n      tag_133\n        /* \"#utility.yul\":1218:1223   */\n      dup2\n        /* \"#utility.yul\":1191:1224   */\n      tag_134\n      jump\t// in\n    tag_133:\n        /* \"#utility.yul\":1143:1230   */\n      swap3\n      swap2\n      pop\n      pop\n      jump\t// out\n        /* \"#utility.yul\":1236:1565   */\n    tag_21:\n        /* \"#utility.yul\":1295:1301   */\n      0x00\n        /* \"#utility.yul\":1344:1346   */\n      0x20\n        /* \"#utility.yul\":1332:1341   */\n      dup3\n        /* \"#utility.yul\":1323:1330   */\n      dup5\n        /* \"#utility.yul\":1319:1342   */\n      sub\n        /* \"#utility.yul\":1315:1347   */\n      slt\n        /* \"#utility.yul\":1312:1314   */\n      iszero\n      tag_136\n      jumpi\n        /* \"#utility.yul\":1350:1429   */\n      tag_137\n      tag_138\n      jump\t// in\n    tag_137:\n        /* \"#utility.yul\":1312:1314   */\n    tag_136:\n        /* \"#utility.yul\":1470:1471   */\n      0x00\n        /* \"#utility.yul\":1495:1548   */\n      tag_139\n        /* \"#utility.yul\":1540:1547   */\n      dup5\n        /* \"#utility.yul\":1531:1537   */\n      dup3\n        /* \"#utility.yul\":1520:1529   */\n      dup6\n        /* \"#utility.yul\":1516:1538   */\n      add\n        /* \"#utility.yul\":1495:1548   */\n      tag_117\n      jump\t// in\n    tag_139:\n        /* \"#utility.yul\":1485:1548   */\n      swap2\n      pop\n        /* \"#utility.yul\":1441:1558   */\n      pop\n        /* \"#utility.yul\":1302:1565   */\n      swap3\n      swap2\n      pop\n      pop\n      jump\t// out\n        /* \"#utility.yul\":1571:2386   */\n    tag_53:\n        /* \"#utility.yul\":1666:1672   */\n      0x00\n        /* \"#utility.yul\":1674:1680   */\n      dup1\n        /* \"#utility.yul\":1682:1688   */\n      0x00\n        /* \"#utility.yul\":1731:1733   */\n      0x60\n        /* \"#utility.yul\":1719:1728   */\n      dup5\n        /* \"#utility.yul\":1710:1717   */\n      dup7\n        /* \"#utility.yul\":1706:1729   */\n      sub\n        /* \"#utility.yul\":1702:1734   */\n      slt\n        /* \"#utility.yul\":1699:1701   */\n      iszero\n      tag_141\n      jumpi\n        /* \"#utility.yul\":1737:1816   */\n      tag_142\n      tag_138\n      jump\t// in\n    tag_142:\n        /* \"#utility.yul\":1699:1701   */\n    tag_141:\n        /* \"#utility.yul\":1885:1886   */\n      0x00\n        /* \"#utility.yul\":1874:1883   */\n      dup5\n        /* \"#utility.yul\":1870:1887   */\n      add\n        /* \"#utility.yul\":1857:1888   */\n      calldataload\n        /* \"#utility.yul\":1915:1933   */\n      0xffffffffffffffff\n        /* \"#utility.yul\":1907:1913   */\n      dup2\n        /* \"#utility.yul\":1904:1934   */\n      gt\n        /* \"#utility.yul\":1901:1903   */\n      iszero\n      tag_143\n      jumpi\n        /* \"#utility.yul\":1937:2016   */\n      tag_144\n      tag_145\n      jump\t// in\n    tag_144:\n        /* \"#utility.yul\":1901:1903   */\n    tag_143:\n        /* \"#utility.yul\":2042:2105   */\n      tag_146\n        /* \"#utility.yul\":2097:2104   */\n      dup7\n        /* \"#utility.yul\":2088:2094   */\n      dup3\n        /* \"#utility.yul\":2077:2086   */\n      dup8\n        /* \"#utility.yul\":2073:2095   */\n      add\n        /* \"#utility.yul\":2042:2105   */\n      tag_125\n      jump\t// in\n    tag_146:\n        /* \"#utility.yul\":2032:2105   */\n      swap4\n      pop\n        /* \"#utility.yul\":1828:2115   */\n      pop\n        /* \"#utility.yul\":2154:2156   */\n      0x20\n        /* \"#utility.yul\":2180:2233   */\n      tag_147\n        /* \"#utility.yul\":2225:2232   */\n      dup7\n        /* \"#utility.yul\":2216:2222   */\n      dup3\n        /* \"#utility.yul\":2205:2214   */\n      dup8\n        /* \"#utility.yul\":2201:2223   */\n      add\n        /* \"#utility.yul\":2180:2233   */\n      tag_131\n      jump\t// in\n    tag_147:\n        /* \"#utility.yul\":2170:2233   */\n      swap3\n      pop\n        /* \"#utility.yul\":2125:2243   */\n      pop\n        /* \"#utility.yul\":2282:2284   */\n      0x40\n        /* \"#utility.yul\":2308:2369   */\n      tag_148\n        /* \"#utility.yul\":2361:2368   */\n      dup7\n        /* \"#utility.yul\":2352:2358   */\n      dup3\n        /* \"#utility.yul\":2341:2350   */\n      dup8\n        /* \"#utility.yul\":2337:2359   */\n      add\n        /* \"#utility.yul\":2308:2369   */\n      tag_121\n      jump\t// in\n    tag_148:\n        /* \"#utility.yul\":2298:2369   */\n      swap2\n      pop\n        /* \"#utility.yul\":2253:2379   */\n      pop\n        /* \"#utility.yul\":1689:2386   */\n      swap3\n      pop\n      swap3\n      pop\n      swap3\n      jump\t// out\n        /* \"#utility.yul\":2392:2721   */\n    tag_16:\n        /* \"#utility.yul\":2451:2457   */\n      0x00\n        /* \"#utility.yul\":2500:2502   */\n      0x20\n        /* \"#utility.yul\":2488:2497   */\n      dup3\n        /* \"#utility.yul\":2479:2486   */\n      dup5\n        /* \"#utility.yul\":2475:2498   */\n      sub\n        /* \"#utility.yul\":2471:2503   */\n      slt\n        /* \"#utility.yul\":2468:2470   */\n      iszero\n      tag_150\n      jumpi\n        /* \"#utility.yul\":2506:2585   */\n      tag_151\n      tag_138\n      jump\t// in\n    tag_151:\n        /* \"#utility.yul\":2468:2470   */\n    tag_150:\n        /* \"#utility.yul\":2626:2627   */\n      0x00\n        /* \"#utility.yul\":2651:2704   */\n      tag_152\n        /* \"#utility.yul\":2696:2703   */\n      dup5\n        /* \"#utility.yul\":2687:2693   */\n      dup3\n        /* \"#utility.yul\":2676:2685   */\n      dup6\n        /* \"#utility.yul\":2672:2694   */\n      add\n        /* \"#utility.yul\":2651:2704   */\n      tag_131\n      jump\t// in\n    tag_152:\n        /* \"#utility.yul\":2641:2704   */\n      swap2\n      pop\n        /* \"#utility.yul\":2597:2714   */\n      pop\n        /* \"#utility.yul\":2458:2721   */\n      swap3\n      swap2\n      pop\n      pop\n      jump\t// out\n        /* \"#utility.yul\":2727:2869   */\n    tag_153:\n        /* \"#utility.yul\":2830:2862   */\n      tag_155\n        /* \"#utility.yul\":2856:2861   */\n      dup2\n        /* \"#utility.yul\":2830:2862   */\n      tag_156\n      jump\t// in\n    tag_155:\n        /* \"#utility.yul\":2825:2828   */\n      dup3\n        /* \"#utility.yul\":2818:2863   */\n      mstore\n        /* \"#utility.yul\":2808:2869   */\n      pop\n      pop\n      jump\t// out\n        /* \"#utility.yul\":2875:2993   */\n    tag_157:\n        /* \"#utility.yul\":2962:2986   */\n      tag_159\n        /* \"#utility.yul\":2980:2985   */\n      dup2\n        /* \"#utility.yul\":2962:2986   */\n      tag_160\n      jump\t// in\n    tag_159:\n        /* \"#utility.yul\":2957:2960   */\n      dup3\n        /* \"#utility.yul\":2950:2987   */\n      mstore\n        /* \"#utility.yul\":2940:2993   */\n      pop\n      pop\n      jump\t// out\n        /* \"#utility.yul\":2999:3108   */\n    tag_161:\n        /* \"#utility.yul\":3080:3101   */\n      tag_163\n        /* \"#utility.yul\":3095:3100   */\n      dup2\n        /* \"#utility.yul\":3080:3101   */\n      tag_164\n      jump\t// in\n    tag_163:\n        /* \"#utility.yul\":3075:3078   */\n      dup3\n        /* \"#utility.yul\":3068:3102   */\n      mstore\n        /* \"#utility.yul\":3058:3108   */\n      pop\n      pop\n      jump\t// out\n        /* \"#utility.yul\":3114:3478   */\n    tag_165:\n        /* \"#utility.yul\":3202:3205   */\n      0x00\n        /* \"#utility.yul\":3230:3269   */\n      tag_167\n        /* \"#utility.yul\":3263:3268   */\n      dup3\n        /* \"#utility.yul\":3230:3269   */\n      tag_168\n      jump\t// in\n    tag_167:\n        /* \"#utility.yul\":3285:3356   */\n      tag_169\n        /* \"#utility.yul\":3349:3355   */\n      dup2\n        /* \"#utility.yul\":3344:3347   */\n      dup6\n        /* \"#utility.yul\":3285:3356   */\n      tag_170\n      jump\t// in\n    tag_169:\n        /* \"#utility.yul\":3278:3356   */\n      swap4\n      pop\n        /* \"#utility.yul\":3365:3417   */\n      tag_171\n        /* \"#utility.yul\":3410:3416   */\n      dup2\n        /* \"#utility.yul\":3405:3408   */\n      dup6\n        /* \"#utility.yul\":3398:3402   */\n      0x20\n        /* \"#utility.yul\":3391:3396   */\n      dup7\n        /* \"#utility.yul\":3387:3403   */\n      add\n        /* \"#utility.yul\":3365:3417   */\n      tag_172\n      jump\t// in\n    tag_171:\n        /* \"#utility.yul\":3442:3471   */\n      tag_173\n        /* \"#utility.yul\":3464:3470   */\n      dup2\n        /* \"#utility.yul\":3442:3471   */\n      tag_174\n      jump\t// in\n    tag_173:\n        /* \"#utility.yul\":3437:3440   */\n      dup5\n        /* \"#utility.yul\":3433:3472   */\n      add\n        /* \"#utility.yul\":3426:3472   */\n      swap2\n      pop\n        /* \"#utility.yul\":3206:3478   */\n      pop\n      swap3\n      swap2\n      pop\n      pop\n      jump\t// out\n        /* \"#utility.yul\":3484:3602   */\n    tag_175:\n        /* \"#utility.yul\":3571:3595   */\n      tag_177\n        /* \"#utility.yul\":3589:3594   */\n      dup2\n        /* \"#utility.yul\":3571:3595   */\n      tag_178\n      jump\t// in\n    tag_177:\n        /* \"#utility.yul\":3566:3569   */\n      dup3\n        /* \"#utility.yul\":3559:3596   */\n      mstore\n        /* \"#utility.yul\":3549:3602   */\n      pop\n      pop\n      jump\t// out\n        /* \"#utility.yul\":3608:3830   */\n    tag_39:\n        /* \"#utility.yul\":3701:3705   */\n      0x00\n        /* \"#utility.yul\":3739:3741   */\n      0x20\n        /* \"#utility.yul\":3728:3737   */\n      dup3\n        /* \"#utility.yul\":3724:3742   */\n      add\n        /* \"#utility.yul\":3716:3742   */\n      swap1\n      pop\n        /* \"#utility.yul\":3752:3823   */\n      tag_180\n        /* \"#utility.yul\":3820:3821   */\n      0x00\n        /* \"#utility.yul\":3809:3818   */\n      dup4\n        /* \"#utility.yul\":3805:3822   */\n      add\n        /* \"#utility.yul\":3796:3802   */\n      dup5\n        /* \"#utility.yul\":3752:3823   */\n      tag_157\n      jump\t// in\n    tag_180:\n        /* \"#utility.yul\":3706:3830   */\n      swap3\n      swap2\n      pop\n      pop\n      jump\t// out\n        /* \"#utility.yul\":3836:4046   */\n    tag_24:\n        /* \"#utility.yul\":3923:3927   */\n      0x00\n        /* \"#utility.yul\":3961:3963   */\n      0x20\n        /* \"#utility.yul\":3950:3959   */\n      dup3\n        /* \"#utility.yul\":3946:3964   */\n      add\n        /* \"#utility.yul\":3938:3964   */\n      swap1\n      pop\n        /* \"#utility.yul\":3974:4039   */\n      tag_182\n        /* \"#utility.yul\":4036:4037   */\n      0x00\n        /* \"#utility.yul\":4025:4034   */\n      dup4\n        /* \"#utility.yul\":4021:4038   */\n      add\n        /* \"#utility.yul\":4012:4018   */\n      dup5\n        /* \"#utility.yul\":3974:4039   */\n      tag_161\n      jump\t// in\n    tag_182:\n        /* \"#utility.yul\":3928:4046   */\n      swap3\n      swap2\n      pop\n      pop\n      jump\t// out\n        /* \"#utility.yul\":4052:4827   */\n    tag_45:\n        /* \"#utility.yul\":4287:4291   */\n      0x00\n        /* \"#utility.yul\":4325:4328   */\n      0xa0\n        /* \"#utility.yul\":4314:4323   */\n      dup3\n        /* \"#utility.yul\":4310:4329   */\n      add\n        /* \"#utility.yul\":4302:4329   */\n      swap1\n      pop\n        /* \"#utility.yul\":4375:4384   */\n      dup2\n        /* \"#utility.yul\":4369:4373   */\n      dup2\n        /* \"#utility.yul\":4365:4385   */\n      sub\n        /* \"#utility.yul\":4361:4362   */\n      0x00\n        /* \"#utility.yul\":4350:4359   */\n      dup4\n        /* \"#utility.yul\":4346:4363   */\n      add\n        /* \"#utility.yul\":4339:4386   */\n      mstore\n        /* \"#utility.yul\":4403:4481   */\n      tag_184\n        /* \"#utility.yul\":4476:4480   */\n      dup2\n        /* \"#utility.yul\":4467:4473   */\n      dup9\n        /* \"#utility.yul\":4403:4481   */\n      tag_165\n      jump\t// in\n    tag_184:\n        /* \"#utility.yul\":4395:4481   */\n      swap1\n      pop\n        /* \"#utility.yul\":4491:4563   */\n      tag_185\n        /* \"#utility.yul\":4559:4561   */\n      0x20\n        /* \"#utility.yul\":4548:4557   */\n      dup4\n        /* \"#utility.yul\":4544:4562   */\n      add\n        /* \"#utility.yul\":4535:4541   */\n      dup8\n        /* \"#utility.yul\":4491:4563   */\n      tag_175\n      jump\t// in\n    tag_185:\n        /* \"#utility.yul\":4573:4661   */\n      tag_186\n        /* \"#utility.yul\":4657:4659   */\n      0x40\n        /* \"#utility.yul\":4646:4655   */\n      dup4\n        /* \"#utility.yul\":4642:4660   */\n      add\n        /* \"#utility.yul\":4633:4639   */\n      dup7\n        /* \"#utility.yul\":4573:4661   */\n      tag_153\n      jump\t// in\n    tag_186:\n        /* \"#utility.yul\":4671:4737   */\n      tag_187\n        /* \"#utility.yul\":4733:4735   */\n      0x60\n        /* \"#utility.yul\":4722:4731   */\n      dup4\n        /* \"#utility.yul\":4718:4736   */\n      add\n        /* \"#utility.yul\":4709:4715   */\n      dup6\n        /* \"#utility.yul\":4671:4737   */\n      tag_161\n      jump\t// in\n    tag_187:\n        /* \"#utility.yul\":4747:4820   */\n      tag_188\n        /* \"#utility.yul\":4815:4818   */\n      0x80\n        /* \"#utility.yul\":4804:4813   */\n      dup4\n        /* \"#utility.yul\":4800:4819   */\n      add\n        /* \"#utility.yul\":4791:4797   */\n      dup5\n        /* \"#utility.yul\":4747:4820   */\n      tag_175\n      jump\t// in\n    tag_188:\n        /* \"#utility.yul\":4292:4827   */\n      swap7\n      swap6\n      pop\n      pop\n      pop\n      pop\n      pop\n      pop\n      jump\t// out\n        /* \"#utility.yul\":4833:5055   */\n    tag_29:\n        /* \"#utility.yul\":4926:4930   */\n      0x00\n        /* \"#utility.yul\":4964:4966   */\n      0x20\n        /* \"#utility.yul\":4953:4962   */\n      dup3\n        /* \"#utility.yul\":4949:4967   */\n      add\n        /* \"#utility.yul\":4941:4967   */\n      swap1\n      pop\n        /* \"#utility.yul\":4977:5048   */\n      tag_190\n        /* \"#utility.yul\":5045:5046   */\n      0x00\n        /* \"#utility.yul\":5034:5043   */\n      dup4\n        /* \"#utility.yul\":5030:5047   */\n      add\n        /* \"#utility.yul\":5021:5027   */\n      dup5\n        /* \"#utility.yul\":4977:5048   */\n      tag_175\n      jump\t// in\n    tag_190:\n        /* \"#utility.yul\":4931:5055   */\n      swap3\n      swap2\n      pop\n      pop\n      jump\t// out\n        /* \"#utility.yul\":5061:5725   */\n    tag_34:\n        /* \"#utility.yul\":5266:5270   */\n      0x00\n        /* \"#utility.yul\":5304:5307   */\n      0xa0\n        /* \"#utility.yul\":5293:5302   */\n      dup3\n        /* \"#utility.yul\":5289:5308   */\n      add\n        /* \"#utility.yul\":5281:5308   */\n      swap1\n      pop\n        /* \"#utility.yul\":5318:5389   */\n      tag_192\n        /* \"#utility.yul\":5386:5387   */\n      0x00\n        /* \"#utility.yul\":5375:5384   */\n      dup4\n        /* \"#utility.yul\":5371:5388   */\n      add\n        /* \"#utility.yul\":5362:5368   */\n      dup9\n        /* \"#utility.yul\":5318:5389   */\n      tag_175\n      jump\t// in\n    tag_192:\n        /* \"#utility.yul\":5399:5471   */\n      tag_193\n        /* \"#utility.yul\":5467:5469   */\n      0x20\n        /* \"#utility.yul\":5456:5465   */\n      dup4\n        /* \"#utility.yul\":5452:5470   */\n      add\n        /* \"#utility.yul\":5443:5449   */\n      dup8\n        /* \"#utility.yul\":5399:5471   */\n      tag_175\n      jump\t// in\n    tag_193:\n        /* \"#utility.yul\":5481:5553   */\n      tag_194\n        /* \"#utility.yul\":5549:5551   */\n      0x40\n        /* \"#utility.yul\":5538:5547   */\n      dup4\n        /* \"#utility.yul\":5534:5552   */\n      add\n        /* \"#utility.yul\":5525:5531   */\n      dup7\n        /* \"#utility.yul\":5481:5553   */\n      tag_175\n      jump\t// in\n    tag_194:\n        /* \"#utility.yul\":5563:5635   */\n      tag_195\n        /* \"#utility.yul\":5631:5633   */\n      0x60\n        /* \"#utility.yul\":5620:5629   */\n      dup4\n        /* \"#utility.yul\":5616:5634   */\n      add\n        /* \"#utility.yul\":5607:5613   */\n      dup6\n        /* \"#utility.yul\":5563:5635   */\n      tag_175\n      jump\t// in\n    tag_195:\n        /* \"#utility.yul\":5645:5718   */\n      tag_196\n        /* \"#utility.yul\":5713:5716   */\n      0x80\n        /* \"#utility.yul\":5702:5711   */\n      dup4\n        /* \"#utility.yul\":5698:5717   */\n      add\n        /* \"#utility.yul\":5689:5695   */\n      dup5\n        /* \"#utility.yul\":5645:5718   */\n      tag_157\n      jump\t// in\n    tag_196:\n        /* \"#utility.yul\":5271:5725   */\n      swap7\n      swap6\n      pop\n      pop\n      pop\n      pop\n      pop\n      pop\n      jump\t// out\n        /* \"#utility.yul\":5731:5860   */\n    tag_111:\n        /* \"#utility.yul\":5765:5771   */\n      0x00\n        /* \"#utility.yul\":5792:5812   */\n      tag_198\n      tag_199\n      jump\t// in\n    tag_198:\n        /* \"#utility.yul\":5782:5812   */\n      swap1\n      pop\n        /* \"#utility.yul\":5821:5854   */\n      tag_200\n        /* \"#utility.yul\":5849:5853   */\n      dup3\n        /* \"#utility.yul\":5841:5847   */\n      dup3\n        /* \"#utility.yul\":5821:5854   */\n      tag_201\n      jump\t// in\n    tag_200:\n        /* \"#utility.yul\":5772:5860   */\n      swap2\n      swap1\n      pop\n      jump\t// out\n        /* \"#utility.yul\":5866:5941   */\n    tag_199:\n        /* \"#utility.yul\":5899:5905   */\n      0x00\n        /* \"#utility.yul\":5932:5934   */\n      0x40\n        /* \"#utility.yul\":5926:5935   */\n      mload\n        /* \"#utility.yul\":5916:5935   */\n      swap1\n      pop\n        /* \"#utility.yul\":5906:5941   */\n      swap1\n      jump\t// out\n        /* \"#utility.yul\":5947:6255   */\n    tag_110:\n        /* \"#utility.yul\":6009:6013   */\n      0x00\n        /* \"#utility.yul\":6099:6117   */\n      0xffffffffffffffff\n        /* \"#utility.yul\":6091:6097   */\n      dup3\n        /* \"#utility.yul\":6088:6118   */\n      gt\n        /* \"#utility.yul\":6085:6087   */\n      iszero\n      tag_204\n      jumpi\n        /* \"#utility.yul\":6121:6139   */\n      tag_205\n      tag_206\n      jump\t// in\n    tag_205:\n        /* \"#utility.yul\":6085:6087   */\n    tag_204:\n        /* \"#utility.yul\":6159:6188   */\n      tag_207\n        /* \"#utility.yul\":6181:6187   */\n      dup3\n        /* \"#utility.yul\":6159:6188   */\n      tag_174\n      jump\t// in\n    tag_207:\n        /* \"#utility.yul\":6151:6188   */\n      swap1\n      pop\n        /* \"#utility.yul\":6243:6247   */\n      0x20\n        /* \"#utility.yul\":6237:6241   */\n      dup2\n        /* \"#utility.yul\":6233:6248   */\n      add\n        /* \"#utility.yul\":6225:6248   */\n      swap1\n      pop\n        /* \"#utility.yul\":6014:6255   */\n      swap2\n      swap1\n      pop\n      jump\t// out\n        /* \"#utility.yul\":6261:6360   */\n    tag_168:\n        /* \"#utility.yul\":6313:6319   */\n      0x00\n        /* \"#utility.yul\":6347:6352   */\n      dup2\n        /* \"#utility.yul\":6341:6353   */\n      mload\n        /* \"#utility.yul\":6331:6353   */\n      swap1\n      pop\n        /* \"#utility.yul\":6320:6360   */\n      swap2\n      swap1\n      pop\n      jump\t// out\n        /* \"#utility.yul\":6366:6535   */\n    tag_170:\n        /* \"#utility.yul\":6450:6461   */\n      0x00\n        /* \"#utility.yul\":6484:6490   */\n      dup3\n        /* \"#utility.yul\":6479:6482   */\n      dup3\n        /* \"#utility.yul\":6472:6491   */\n      mstore\n        /* \"#utility.yul\":6524:6528   */\n      0x20\n        /* \"#utility.yul\":6519:6522   */\n      dup3\n        /* \"#utility.yul\":6515:6529   */\n      add\n        /* \"#utility.yul\":6500:6529   */\n      swap1\n      pop\n        /* \"#utility.yul\":6462:6535   */\n      swap3\n      swap2\n      pop\n      pop\n      jump\t// out\n        /* \"#utility.yul\":6541:6726   */\n    tag_69:\n        /* \"#utility.yul\":6581:6582   */\n      0x00\n        /* \"#utility.yul\":6598:6618   */\n      tag_211\n        /* \"#utility.yul\":6616:6617   */\n      dup3\n        /* \"#utility.yul\":6598:6618   */\n      tag_178\n      jump\t// in\n    tag_211:\n        /* \"#utility.yul\":6593:6618   */\n      swap2\n      pop\n        /* \"#utility.yul\":6632:6652   */\n      tag_212\n        /* \"#utility.yul\":6650:6651   */\n      dup4\n        /* \"#utility.yul\":6632:6652   */\n      tag_178\n      jump\t// in\n    tag_212:\n        /* \"#utility.yul\":6627:6652   */\n      swap3\n      pop\n        /* \"#utility.yul\":6671:6672   */\n      dup3\n        /* \"#utility.yul\":6661:6663   */\n      tag_213\n      jumpi\n        /* \"#utility.yul\":6676:6694   */\n      tag_214\n      tag_215\n      jump\t// in\n    tag_214:\n        /* \"#utility.yul\":6661:6663   */\n    tag_213:\n        /* \"#utility.yul\":6718:6719   */\n      dup3\n        /* \"#utility.yul\":6715:6716   */\n      dup3\n        /* \"#utility.yul\":6711:6720   */\n      div\n        /* \"#utility.yul\":6706:6720   */\n      swap1\n      pop\n        /* \"#utility.yul\":6583:6726   */\n      swap3\n      swap2\n      pop\n      pop\n      jump\t// out\n        /* \"#utility.yul\":6732:6828   */\n    tag_160:\n        /* \"#utility.yul\":6769:6776   */\n      0x00\n        /* \"#utility.yul\":6798:6822   */\n      tag_217\n        /* \"#utility.yul\":6816:6821   */\n      dup3\n        /* \"#utility.yul\":6798:6822   */\n      tag_218\n      jump\t// in\n    tag_217:\n        /* \"#utility.yul\":6787:6822   */\n      swap1\n      pop\n        /* \"#utility.yul\":6777:6828   */\n      swap2\n      swap1\n      pop\n      jump\t// out\n        /* \"#utility.yul\":6834:6938   */\n    tag_156:\n        /* \"#utility.yul\":6879:6886   */\n      0x00\n        /* \"#utility.yul\":6908:6932   */\n      tag_220\n        /* \"#utility.yul\":6926:6931   */\n      dup3\n        /* \"#utility.yul\":6908:6932   */\n      tag_218\n      jump\t// in\n    tag_220:\n        /* \"#utility.yul\":6897:6932   */\n      swap1\n      pop\n        /* \"#utility.yul\":6887:6938   */\n      swap2\n      swap1\n      pop\n      jump\t// out\n        /* \"#utility.yul\":6944:7034   */\n    tag_164:\n        /* \"#utility.yul\":6978:6985   */\n      0x00\n        /* \"#utility.yul\":7021:7026   */\n      dup2\n        /* \"#utility.yul\":7014:7027   */\n      iszero\n        /* \"#utility.yul\":7007:7028   */\n      iszero\n        /* \"#utility.yul\":6996:7028   */\n      swap1\n      pop\n        /* \"#utility.yul\":6986:7034   */\n      swap2\n      swap1\n      pop\n      jump\t// out\n        /* \"#utility.yul\":7040:7166   */\n    tag_218:\n        /* \"#utility.yul\":7077:7084   */\n      0x00\n        /* \"#utility.yul\":7117:7159   */\n      0xffffffffffffffffffffffffffffffffffffffff\n        /* \"#utility.yul\":7110:7115   */\n      dup3\n        /* \"#utility.yul\":7106:7160   */\n      and\n        /* \"#utility.yul\":7095:7160   */\n      swap1\n      pop\n        /* \"#utility.yul\":7085:7166   */\n      swap2\n      swap1\n      pop\n      jump\t// out\n        /* \"#utility.yul\":7172:7249   */\n    tag_178:\n        /* \"#utility.yul\":7209:7216   */\n      0x00\n        /* \"#utility.yul\":7238:7243   */\n      dup2\n        /* \"#utility.yul\":7227:7243   */\n      swap1\n      pop\n        /* \"#utility.yul\":7217:7249   */\n      swap2\n      swap1\n      pop\n      jump\t// out\n        /* \"#utility.yul\":7255:7409   */\n    tag_116:\n        /* \"#utility.yul\":7339:7345   */\n      dup3\n        /* \"#utility.yul\":7334:7337   */\n      dup2\n        /* \"#utility.yul\":7329:7332   */\n      dup4\n        /* \"#utility.yul\":7316:7346   */\n      calldatacopy\n        /* \"#utility.yul\":7401:7402   */\n      0x00\n        /* \"#utility.yul\":7392:7398   */\n      dup4\n        /* \"#utility.yul\":7387:7390   */\n      dup4\n        /* \"#utility.yul\":7383:7399   */\n      add\n        /* \"#utility.yul\":7376:7403   */\n      mstore\n        /* \"#utility.yul\":7306:7409   */\n      pop\n      pop\n      pop\n      jump\t// out\n        /* \"#utility.yul\":7415:7722   */\n    tag_172:\n        /* \"#utility.yul\":7483:7484   */\n      0x00\n        /* \"#utility.yul\":7493:7606   */\n    tag_226:\n        /* \"#utility.yul\":7507:7513   */\n      dup4\n        /* \"#utility.yul\":7504:7505   */\n      dup2\n        /* \"#utility.yul\":7501:7514   */\n      lt\n        /* \"#utility.yul\":7493:7606   */\n      iszero\n      tag_228\n      jumpi\n        /* \"#utility.yul\":7592:7593   */\n      dup1\n        /* \"#utility.yul\":7587:7590   */\n      dup3\n        /* \"#utility.yul\":7583:7594   */\n      add\n        /* \"#utility.yul\":7577:7595   */\n      mload\n        /* \"#utility.yul\":7573:7574   */\n      dup2\n        /* \"#utility.yul\":7568:7571   */\n      dup5\n        /* \"#utility.yul\":7564:7575   */\n      add\n        /* \"#utility.yul\":7557:7596   */\n      mstore\n        /* \"#utility.yul\":7529:7531   */\n      0x20\n        /* \"#utility.yul\":7526:7527   */\n      dup2\n        /* \"#utility.yul\":7522:7532   */\n      add\n        /* \"#utility.yul\":7517:7532   */\n      swap1\n      pop\n        /* \"#utility.yul\":7493:7606   */\n      jump(tag_226)\n    tag_228:\n        /* \"#utility.yul\":7624:7630   */\n      dup4\n        /* \"#utility.yul\":7621:7622   */\n      dup2\n        /* \"#utility.yul\":7618:7631   */\n      gt\n        /* \"#utility.yul\":7615:7617   */\n      iszero\n      tag_229\n      jumpi\n        /* \"#utility.yul\":7704:7705   */\n      0x00\n        /* \"#utility.yul\":7695:7701   */\n      dup5\n        /* \"#utility.yul\":7690:7693   */\n      dup5\n        /* \"#utility.yul\":7686:7702   */\n      add\n        /* \"#utility.yul\":7679:7706   */\n      mstore\n        /* \"#utility.yul\":7615:7617   */\n    tag_229:\n        /* \"#utility.yul\":7464:7722   */\n      pop\n      pop\n      pop\n      pop\n      jump\t// out\n        /* \"#utility.yul\":7728:8048   */\n    tag_76:\n        /* \"#utility.yul\":7772:7778   */\n      0x00\n        /* \"#utility.yul\":7809:7810   */\n      0x02\n        /* \"#utility.yul\":7803:7807   */\n      dup3\n        /* \"#utility.yul\":7799:7811   */\n      div\n        /* \"#utility.yul\":7789:7811   */\n      swap1\n      pop\n        /* \"#utility.yul\":7856:7857   */\n      0x01\n        /* \"#utility.yul\":7850:7854   */\n      dup3\n        /* \"#utility.yul\":7846:7858   */\n      and\n        /* \"#utility.yul\":7877:7895   */\n      dup1\n        /* \"#utility.yul\":7867:7869   */\n      tag_231\n      jumpi\n        /* \"#utility.yul\":7933:7937   */\n      0x7f\n        /* \"#utility.yul\":7925:7931   */\n      dup3\n        /* \"#utility.yul\":7921:7938   */\n      and\n        /* \"#utility.yul\":7911:7938   */\n      swap2\n      pop\n        /* \"#utility.yul\":7867:7869   */\n    tag_231:\n        /* \"#utility.yul\":7995:7997   */\n      0x20\n        /* \"#utility.yul\":7987:7993   */\n      dup3\n        /* \"#utility.yul\":7984:7998   */\n      lt\n        /* \"#utility.yul\":7964:7982   */\n      dup2\n        /* \"#utility.yul\":7961:7999   */\n      eq\n        /* \"#utility.yul\":7958:7960   */\n      iszero\n      tag_232\n      jumpi\n        /* \"#utility.yul\":8014:8032   */\n      tag_233\n      tag_234\n      jump\t// in\n    tag_233:\n        /* \"#utility.yul\":7958:7960   */\n    tag_232:\n        /* \"#utility.yul\":7779:8048   */\n      pop\n      swap2\n      swap1\n      pop\n      jump\t// out\n        /* \"#utility.yul\":8054:8335   */\n    tag_201:\n        /* \"#utility.yul\":8137:8164   */\n      tag_236\n        /* \"#utility.yul\":8159:8163   */\n      dup3\n        /* \"#utility.yul\":8137:8164   */\n      tag_174\n      jump\t// in\n    tag_236:\n        /* \"#utility.yul\":8129:8135   */\n      dup2\n        /* \"#utility.yul\":8125:8165   */\n      add\n        /* \"#utility.yul\":8267:8273   */\n      dup2\n        /* \"#utility.yul\":8255:8265   */\n      dup2\n        /* \"#utility.yul\":8252:8274   */\n      lt\n        /* \"#utility.yul\":8231:8249   */\n      0xffffffffffffffff\n        /* \"#utility.yul\":8219:8229   */\n      dup3\n        /* \"#utility.yul\":8216:8250   */\n      gt\n        /* \"#utility.yul\":8213:8275   */\n      or\n        /* \"#utility.yul\":8210:8212   */\n      iszero\n      tag_237\n      jumpi\n        /* \"#utility.yul\":8278:8296   */\n      tag_238\n      tag_206\n      jump\t// in\n    tag_238:\n        /* \"#utility.yul\":8210:8212   */\n    tag_237:\n        /* \"#utility.yul\":8318:8328   */\n      dup1\n        /* \"#utility.yul\":8314:8316   */\n      0x40\n        /* \"#utility.yul\":8307:8329   */\n      mstore\n        /* \"#utility.yul\":8097:8335   */\n      pop\n      pop\n      pop\n      jump\t// out\n        /* \"#utility.yul\":8341:8574   */\n    tag_87:\n        /* \"#utility.yul\":8380:8383   */\n      0x00\n        /* \"#utility.yul\":8403:8427   */\n      tag_240\n        /* \"#utility.yul\":8421:8426   */\n      dup3\n        /* \"#utility.yul\":8403:8427   */\n      tag_178\n      jump\t// in\n    tag_240:\n        /* \"#utility.yul\":8394:8427   */\n      swap2\n      pop\n        /* \"#utility.yul\":8449:8515   */\n      0xffffffffffffffffffffffffffffffffffffffffffffffffffffffffffffffff\n        /* \"#utility.yul\":8442:8447   */\n      dup3\n        /* \"#utility.yul\":8439:8516   */\n      eq\n        /* \"#utility.yul\":8436:8438   */\n      iszero\n      tag_241\n      jumpi\n        /* \"#utility.yul\":8519:8537   */\n      tag_242\n      tag_243\n      jump\t// in\n    tag_242:\n        /* \"#utility.yul\":8436:8438   */\n    tag_241:\n        /* \"#utility.yul\":8566:8567   */\n      0x01\n        /* \"#utility.yul\":8559:8564   */\n      dup3\n        /* \"#utility.yul\":8555:8568   */\n      add\n        /* \"#utility.yul\":8548:8568   */\n      swap1\n      pop\n        /* \"#utility.yul\":8384:8574   */\n      swap2\n      swap1\n      pop\n      jump\t// out\n        /* \"#utility.yul\":8580:8760   */\n    tag_243:\n        /* \"#utility.yul\":8628:8705   */\n      0x4e487b7100000000000000000000000000000000000000000000000000000000\n        /* \"#utility.yul\":8625:8626   */\n      0x00\n        /* \"#utility.yul\":8618:8706   */\n      mstore\n        /* \"#utility.yul\":8725:8729   */\n      0x11\n        /* \"#utility.yul\":8722:8723   */\n      0x04\n        /* \"#utility.yul\":8715:8730   */\n      mstore\n        /* \"#utility.yul\":8749:8753   */\n      0x24\n        /* \"#utility.yul\":8746:8747   */\n      0x00\n        /* \"#utility.yul\":8739:8754   */\n      revert\n        /* \"#utility.yul\":8766:8946   */\n    tag_215:\n        /* \"#utility.yul\":8814:8891   */\n      0x4e487b7100000000000000000000000000000000000000000000000000000000\n        /* \"#utility.yul\":8811:8812   */\n      0x00\n        /* \"#utility.yul\":8804:8892   */\n      mstore\n        /* \"#utility.yul\":8911:8915   */\n      0x12\n        /* \"#utility.yul\":8908:8909   */\n      0x04\n        /* \"#utility.yul\":8901:8916   */\n      mstore\n        /* \"#utility.yul\":8935:8939   */\n      0x24\n        /* \"#utility.yul\":8932:8933   */\n      0x00\n        /* \"#utility.yul\":8925:8940   */\n      revert\n        /* \"#utility.yul\":8952:9132   */\n    tag_234:\n        /* \"#utility.yul\":9000:9077   */\n      0x4e487b7100000000000000000000000000000000000000000000000000000000\n        /* \"#utility.yul\":8997:8998   */\n      0x00\n        /* \"#utility.yul\":8990:9078   */\n      mstore\n        /* \"#utility.yul\":9097:9101   */\n      0x22\n        /* \"#utility.yul\":9094:9095   */\n      0x04\n        /* \"#utility.yul\":9087:9102   */\n      mstore\n        /* \"#utility.yul\":9121:9125   */\n      0x24\n        /* \"#utility.yul\":9118:9119   */\n      0x00\n        /* \"#utility.yul\":9111:9126   */\n      revert\n        /* \"#utility.yul\":9138:9318   */\n    tag_206:\n        /* \"#utility.yul\":9186:9263   */\n      0x4e487b7100000000000000000000000000000000000000000000000000000000\n        /* \"#utility.yul\":9183:9184   */\n      0x00\n        /* \"#utility.yul\":9176:9264   */\n      mstore\n        /* \"#utility.yul\":9283:9287   */\n      0x41\n        /* \"#utility.yul\":9280:9281   */\n      0x04\n        /* \"#utility.yul\":9273:9288   */\n      mstore\n        /* \"#utility.yul\":9307:9311   */\n      0x24\n        /* \"#utility.yul\":9304:9305   */\n      0x00\n        /* \"#utility.yul\":9297:9312   */\n      revert\n        /* \"#utility.yul\":9324:9441   */\n    tag_129:\n        /* \"#utility.yul\":9433:9434   */\n      0x00\n        /* \"#utility.yul\":9430:9431   */\n      dup1\n        /* \"#utility.yul\":9423:9435   */\n      revert\n        /* \"#utility.yul\":9447:9564   */\n    tag_114:\n        /* \"#utility.yul\":9556:9557   */\n      0x00\n        /* \"#utility.yul\":9553:9554   */\n      dup1\n        /* \"#utility.yul\":9546:9558   */\n      revert\n        /* \"#utility.yul\":9570:9687   */\n    tag_145:\n        /* \"#utility.yul\":9679:9680   */\n      0x00\n        /* \"#utility.yul\":9676:9677   */\n      dup1\n        /* \"#utility.yul\":9669:9681   */\n      revert\n        /* \"#utility.yul\":9693:9810   */\n    tag_138:\n        /* \"#utility.yul\":9802:9803   */\n      0x00\n        /* \"#utility.yul\":9799:9800   */\n      dup1\n        /* \"#utility.yul\":9792:9804   */\n      revert\n        /* \"#utility.yul\":9816:9918   */\n    tag_174:\n        /* \"#utility.yul\":9857:9863   */\n      0x00\n        /* \"#utility.yul\":9908:9910   */\n      0x1f\n        /* \"#utility.yul\":9904:9911   */\n      not\n        /* \"#utility.yul\":9899:9901   */\n      0x1f\n        /* \"#utility.yul\":9892:9897   */\n      dup4\n        /* \"#utility.yul\":9888:9902   */\n      add\n        /* \"#utility.yul\":9884:9912   */\n      and\n        /* \"#utility.yul\":9874:9912   */\n      swap1\n      pop\n        /* \"#utility.yul\":9864:9918   */\n      swap2\n      swap1\n      pop\n      jump\t// out\n        /* \"#utility.yul\":9924:10046   */\n    tag_120:\n        /* \"#utility.yul\":9997:10021   */\n      tag_254\n        /* \"#utility.yul\":10015:10020   */\n      dup2\n        /* \"#utility.yul\":9997:10021   */\n      tag_160\n      jump\t// in\n    tag_254:\n        /* \"#utility.yul\":9990:9995   */\n      dup2\n        /* \"#utility.yul\":9987:10022   */\n      eq\n        /* \"#utility.yul\":9977:9979   */\n      tag_255\n      jumpi\n        /* \"#utility.yul\":10036:10037   */\n      0x00\n        /* \"#utility.yul\":10033:10034   */\n      dup1\n        /* \"#utility.yul\":10026:10038   */\n      revert\n        /* \"#utility.yul\":9977:9979   */\n    tag_255:\n        /* \"#utility.yul\":9967:10046   */\n      pop\n      jump\t// out\n        /* \"#utility.yul\":10052:10190   */\n    tag_124:\n        /* \"#utility.yul\":10133:10165   */\n      tag_257\n        /* \"#utility.yul\":10159:10164   */\n      dup2\n        /* \"#utility.yul\":10133:10165   */\n      tag_156\n      jump\t// in\n    tag_257:\n        /* \"#utility.yul\":10126:10131   */\n      dup2\n        /* \"#utility.yul\":10123:10166   */\n      eq\n        /* \"#utility.yul\":10113:10115   */\n      tag_258\n      jumpi\n        /* \"#utility.yul\":10180:10181   */\n      0x00\n        /* \"#utility.yul\":10177:10178   */\n      dup1\n        /* \"#utility.yul\":10170:10182   */\n      revert\n        /* \"#utility.yul\":10113:10115   */\n    tag_258:\n        /* \"#utility.yul\":10103:10190   */\n      pop\n      jump\t// out\n        /* \"#utility.yul\":10196:10318   */\n    tag_134:\n        /* \"#utility.yul\":10269:10293   */\n      tag_260\n        /* \"#utility.yul\":10287:10292   */\n      dup2\n        /* \"#utility.yul\":10269:10293   */\n      tag_178\n      jump\t// in\n    tag_260:\n        /* \"#utility.yul\":10262:10267   */\n      dup2\n        /* \"#utility.yul\":10259:10294   */\n      eq\n        /* \"#utility.yul\":10249:10251   */\n      tag_261\n      jumpi\n        /* \"#utility.yul\":10308:10309   */\n      0x00\n        /* \"#utility.yul\":10305:10306   */\n      dup1\n        /* \"#utility.yul\":10298:10310   */\n      revert\n        /* \"#utility.yul\":10249:10251   */\n    tag_261:\n        /* \"#utility.yul\":10239:10318   */\n      pop\n      jump\t// out\n\n    auxdata: 0xa2646970667358221220f7639827d36f284a29c77d108e3edc126b7d67b1afa85ab5171bebc5ad9e277f64736f6c63430008060033\n}\n",
    "bytecode": {
      "linkReferences": {},
      "object": "60806040526000805560006005553480156200001a57600080fd5b5060405162001066380380620010668339818101604052810190620000409190620000be565b80600260006101000a81548173ffffffffffffffffffffffffffffffffffffffff021916908373ffffffffffffffffffffffffffffffffffffffff1602179055508160038190555050506200017c565b600081519050620000a18162000148565b92915050565b600081519050620000b88162000162565b92915050565b60008060408385031215620000d857620000d762000143565b5b6000620000e885828601620000a7565b9250506020620000fb8582860162000090565b9150509250929050565b6000620001128262000119565b9050919050565b600073ffffffffffffffffffffffffffffffffffffffff82169050919050565b6000819050919050565b600080fd5b620001538162000105565b81146200015f57600080fd5b50565b6200016d8162000139565b81146200017957600080fd5b50565b610eda806200018c6000396000f3fe60806040526004361061009c5760003560e01c806381d12c581161006457806381d12c581461017f57806382fde093146101c05780638a9cfd55146101eb578063937e09b114610214578063d7bb99ba1461023f578063d7d1bbdb146102495761009c565b806303441006146100a15780630a144391146100bd5780633410452a146100fa5780634051ddac14610125578063481c6a7514610154575b600080fd5b6100bb60048036038101906100b691906109f3565b610265565b005b3480156100c957600080fd5b506100e460048036038101906100df9190610957565b6103a0565b6040516100f19190610ab0565b60405180910390f35b34801561010657600080fd5b5061010f6103c0565b60405161011c9190610b25565b60405180910390f35b34801561013157600080fd5b5061013a6103c9565b60405161014b959493929190610b40565b60405180910390f35b34801561016057600080fd5b5061016961040f565b6040516101769190610a95565b60405180910390f35b34801561018b57600080fd5b506101a660048036038101906101a191906109f3565b610435565b6040516101b7959493929190610acb565b60405180910390f35b3480156101cc57600080fd5b506101d5610520565b6040516101e29190610b25565b60405180910390f35b3480156101f757600080fd5b50610212600480360381019061020d9190610984565b610526565b005b34801561022057600080fd5b50610229610641565b6040516102369190610b25565b60405180910390f35b610247610647565b005b610263600480360381019061025e91906109f3565b6106c7565b005b600260009054906101000a900473ffffffffffffffffffffffffffffffffffffffff1673ffffffffffffffffffffffffffffffffffffffff163373ffffffffffffffffffffffffffffffffffffffff16146102bf57600080fd5b60006001600083815260200190815260200160002090508060020160149054906101000a900460ff16156102f257600080fd5b60026005546103019190610c05565b81600301541161031057600080fd5b8060020160009054906101000a900473ffffffffffffffffffffffffffffffffffffffff1673ffffffffffffffffffffffffffffffffffffffff166108fc82600101549081150290604051600060405180830381858888f1935050505015801561037e573d6000803e3d6000fd5b5060018160020160146101000a81548160ff0219169083151502179055505050565b60046020528060005260406000206000915054906101000a900460ff1681565b60008054905090565b600080600080600060035447600054600554600260009054906101000a900473ffffffffffffffffffffffffffffffffffffffff16945094509450945094509091929394565b600260009054906101000a900473ffffffffffffffffffffffffffffffffffffffff1681565b600160205280600052604060002060009150905080600001805461045890610cd2565b80601f016020809104026020016040519081016040528092919081815260200182805461048490610cd2565b80156104d15780601f106104a6576101008083540402835291602001916104d1565b820191906000526020600020905b8154815290600101906020018083116104b457829003601f168201915b5050505050908060010154908060020160009054906101000a900473ffffffffffffffffffffffffffffffffffffffff16908060020160149054906101000a900460ff16908060030154905085565b60055481565b600260009054906101000a900473ffffffffffffffffffffffffffffffffffffffff1673ffffffffffffffffffffffffffffffffffffffff163373ffffffffffffffffffffffffffffffffffffffff161461058057600080fd5b600060016000805481526020019081526020016000209050838160000190805190602001906105b0929190610805565b50828160010181905550818160020160006101000a81548173ffffffffffffffffffffffffffffffffffffffff021916908373ffffffffffffffffffffffffffffffffffffffff16021790555060008160020160146101000a81548160ff0219169083151502179055506000816003018190555060008081548092919061063690610d35565b919050555050505050565b60035481565b600354341161065557600080fd5b6001600460003373ffffffffffffffffffffffffffffffffffffffff1673ffffffffffffffffffffffffffffffffffffffff16815260200190815260200160002060006101000a81548160ff021916908315150217905550600560008154809291906106c090610d35565b9190505550565b6000600160008381526020019081526020016000209050600460003373ffffffffffffffffffffffffffffffffffffffff1673ffffffffffffffffffffffffffffffffffffffff16815260200190815260200160002060009054906101000a900460ff1661073457600080fd5b8060040160003373ffffffffffffffffffffffffffffffffffffffff1673ffffffffffffffffffffffffffffffffffffffff16815260200190815260200160002060009054906101000a900460ff161561078d57600080fd5b60018160040160003373ffffffffffffffffffffffffffffffffffffffff1673ffffffffffffffffffffffffffffffffffffffff16815260200190815260200160002060006101000a81548160ff0219169083151502179055508060030160008154809291906107fc90610d35565b91905055505050565b82805461081190610cd2565b90600052602060002090601f016020900481019282610833576000855561087a565b82601f1061084c57805160ff191683800117855561087a565b8280016001018555821561087a579182015b8281111561087957825182559160200191906001019061085e565b5b509050610887919061088b565b5090565b5b808211156108a457600081600090555060010161088c565b5090565b60006108bb6108b684610bb8565b610b93565b9050828152602081018484840111156108d7576108d6610e3f565b5b6108e2848285610c90565b509392505050565b6000813590506108f981610e5f565b92915050565b60008135905061090e81610e76565b92915050565b600082601f83011261092957610928610e3a565b5b81356109398482602086016108a8565b91505092915050565b60008135905061095181610e8d565b92915050565b60006020828403121561096d5761096c610e49565b5b600061097b848285016108ea565b91505092915050565b60008060006060848603121561099d5761099c610e49565b5b600084013567ffffffffffffffff8111156109bb576109ba610e44565b5b6109c786828701610914565b93505060206109d886828701610942565b92505060406109e9868287016108ff565b9150509250925092565b600060208284031215610a0957610a08610e49565b5b6000610a1784828501610942565b91505092915050565b610a2981610c48565b82525050565b610a3881610c36565b82525050565b610a4781610c5a565b82525050565b6000610a5882610be9565b610a628185610bf4565b9350610a72818560208601610c9f565b610a7b81610e4e565b840191505092915050565b610a8f81610c86565b82525050565b6000602082019050610aaa6000830184610a2f565b92915050565b6000602082019050610ac56000830184610a3e565b92915050565b600060a0820190508181036000830152610ae58188610a4d565b9050610af46020830187610a86565b610b016040830186610a20565b610b0e6060830185610a3e565b610b1b6080830184610a86565b9695505050505050565b6000602082019050610b3a6000830184610a86565b92915050565b600060a082019050610b556000830188610a86565b610b626020830187610a86565b610b6f6040830186610a86565b610b7c6060830185610a86565b610b896080830184610a2f565b9695505050505050565b6000610b9d610bae565b9050610ba98282610d04565b919050565b6000604051905090565b600067ffffffffffffffff821115610bd357610bd2610e0b565b5b610bdc82610e4e565b9050602081019050919050565b600081519050919050565b600082825260208201905092915050565b6000610c1082610c86565b9150610c1b83610c86565b925082610c2b57610c2a610dad565b5b828204905092915050565b6000610c4182610c66565b9050919050565b6000610c5382610c66565b9050919050565b60008115159050919050565b600073ffffffffffffffffffffffffffffffffffffffff82169050919050565b6000819050919050565b82818337600083830152505050565b60005b83811015610cbd578082015181840152602081019050610ca2565b83811115610ccc576000848401525b50505050565b60006002820490506001821680610cea57607f821691505b60208210811415610cfe57610cfd610ddc565b5b50919050565b610d0d82610e4e565b810181811067ffffffffffffffff82111715610d2c57610d2b610e0b565b5b80604052505050565b6000610d4082610c86565b91507fffffffffffffffffffffffffffffffffffffffffffffffffffffffffffffffff821415610d7357610d72610d7e565b5b600182019050919050565b7f4e487b7100000000000000000000000000000000000000000000000000000000600052601160045260246000fd5b7f4e487b7100000000000000000000000000000000000000000000000000000000600052601260045260246000fd5b7f4e487b7100000000000000000000000000000000000000000000000000000000600052602260045260246000fd5b7f4e487b7100000000000000000000000000000000000000000000000000000000600052604160045260246000fd5b600080fd5b600080fd5b600080fd5b600080fd5b6000601f19601f8301169050919050565b610e6881610c36565b8114610e7357600080fd5b50565b610e7f81610c48565b8114610e8a57600080fd5b50565b610e9681610c86565b8114610ea157600080fd5b5056fea2646970667358221220f7639827d36f284a29c77d108e3edc126b7d67b1afa85ab5171bebc5ad9e277f64736f6c63430008060033",
      "opcodes": "PUSH1 0x80 PUSH1 0x40 MSTORE PUSH1 0x0 DUP1 SSTORE PUSH1 0x0 PUSH1 0x5 SSTORE CALLVALUE DUP1 ISZERO PUSH3 0x1A JUMPI PUSH1 0x0 DUP1 REVERT JUMPDEST POP PUSH1 0x40 MLOAD PUSH3 0x1066 CODESIZE SUB DUP1 PUSH3 0x1066 DUP4 CODECOPY DUP2 DUP2 ADD PUSH1 0x40 MSTORE DUP2 ADD SWAP1 PUSH3 0x40 SWAP2 SWAP1 PUSH3 0xBE JUMP JUMPDEST DUP1 PUSH1 0x2 PUSH1 0x0 PUSH2 0x100 EXP DUP2 SLOAD DUP2 PUSH20 0xFFFFFFFFFFFFFFFFFFFFFFFFFFFFFFFFFFFFFFFF MUL NOT AND SWAP1 DUP4 PUSH20 0xFFFFFFFFFFFFFFFFFFFFFFFFFFFFFFFFFFFFFFFF AND MUL OR SWAP1 SSTORE POP DUP2 PUSH1 0x3 DUP2 SWAP1 SSTORE POP POP POP PUSH3 0x17C JUMP JUMPDEST PUSH1 0x0 DUP2 MLOAD SWAP1 POP PUSH3 0xA1 DUP2 PUSH3 0x148 JUMP JUMPDEST SWAP3 SWAP2 POP POP JUMP JUMPDEST PUSH1 0x0 DUP2 MLOAD SWAP1 POP PUSH3 0xB8 DUP2 PUSH3 0x162 JUMP JUMPDEST SWAP3 SWAP2 POP POP JUMP JUMPDEST PUSH1 0x0 DUP1 PUSH1 0x40 DUP4 DUP6 SUB SLT ISZERO PUSH3 0xD8 JUMPI PUSH3 0xD7 PUSH3 0x143 JUMP JUMPDEST JUMPDEST PUSH1 0x0 PUSH3 0xE8 DUP6 DUP3 DUP7 ADD PUSH3 0xA7 JUMP JUMPDEST SWAP3 POP POP PUSH1 0x20 PUSH3 0xFB DUP6 DUP3 DUP7 ADD PUSH3 0x90 JUMP JUMPDEST SWAP2 POP POP SWAP3 POP SWAP3 SWAP1 POP JUMP JUMPDEST PUSH1 0x0 PUSH3 0x112 DUP3 PUSH3 0x119 JUMP JUMPDEST SWAP1 POP SWAP2 SWAP1 POP JUMP JUMPDEST PUSH1 0x0 PUSH20 0xFFFFFFFFFFFFFFFFFFFFFFFFFFFFFFFFFFFFFFFF DUP3 AND SWAP1 POP SWAP2 SWAP1 POP JUMP JUMPDEST PUSH1 0x0 DUP2 SWAP1 POP SWAP2 SWAP1 POP JUMP JUMPDEST PUSH1 0x0 DUP1 REVERT JUMPDEST PUSH3 0x153 DUP2 PUSH3 0x105 JUMP JUMPDEST DUP2 EQ PUSH3 0x15F JUMPI PUSH1 0x0 DUP1 REVERT JUMPDEST POP JUMP JUMPDEST PUSH3 0x16D DUP2 PUSH3 0x139 JUMP JUMPDEST DUP2 EQ PUSH3 0x179 JUMPI PUSH1 0x0 DUP1 REVERT JUMPDEST POP JUMP JUMPDEST PUSH2 0xEDA DUP1 PUSH3 0x18C PUSH1 0x0 CODECOPY PUSH1 0x0 RETURN INVALID PUSH1 0x80 PUSH1 0x40 MSTORE PUSH1 0x4 CALLDATASIZE LT PUSH2 0x9C JUMPI PUSH1 0x0 CALLDATALOAD PUSH1 0xE0 SHR DUP1 PUSH4 0x81D12C58 GT PUSH2 0x64 JUMPI DUP1 PUSH4 0x81D12C58 EQ PUSH2 0x17F JUMPI DUP1 PUSH4 0x82FDE093 EQ PUSH2 0x1C0 JUMPI DUP1 PUSH4 0x8A9CFD55 EQ PUSH2 0x1EB JUMPI DUP1 PUSH4 0x937E09B1 EQ PUSH2 0x214 JUMPI DUP1 PUSH4 0xD7BB99BA EQ PUSH2 0x23F JUMPI DUP1 PUSH4 0xD7D1BBDB EQ PUSH2 0x249 JUMPI PUSH2 0x9C JUMP JUMPDEST DUP1 PUSH4 0x3441006 EQ PUSH2 0xA1 JUMPI DUP1 PUSH4 0xA144391 EQ PUSH2 0xBD JUMPI DUP1 PUSH4 0x3410452A EQ PUSH2 0xFA JUMPI DUP1 PUSH4 0x4051DDAC EQ PUSH2 0x125 JUMPI DUP1 PUSH4 0x481C6A75 EQ PUSH2 0x154 JUMPI JUMPDEST PUSH1 0x0 DUP1 REVERT JUMPDEST PUSH2 0xBB PUSH1 0x4 DUP1 CALLDATASIZE SUB DUP2 ADD SWAP1 PUSH2 0xB6 SWAP2 SWAP1 PUSH2 0x9F3 JUMP JUMPDEST PUSH2 0x265 JUMP JUMPDEST STOP JUMPDEST CALLVALUE DUP1 ISZERO PUSH2 0xC9 JUMPI PUSH1 0x0 DUP1 REVERT JUMPDEST POP PUSH2 0xE4 PUSH1 0x4 DUP1 CALLDATASIZE SUB DUP2 ADD SWAP1 PUSH2 0xDF SWAP2 SWAP1 PUSH2 0x957 JUMP JUMPDEST PUSH2 0x3A0 JUMP JUMPDEST PUSH1 0x40 MLOAD PUSH2 0xF1 SWAP2 SWAP1 PUSH2 0xAB0 JUMP JUMPDEST PUSH1 0x40 MLOAD DUP1 SWAP2 SUB SWAP1 RETURN JUMPDEST CALLVALUE DUP1 ISZERO PUSH2 0x106 JUMPI PUSH1 0x0 DUP1 REVERT JUMPDEST POP PUSH2 0x10F PUSH2 0x3C0 JUMP JUMPDEST PUSH1 0x40 MLOAD PUSH2 0x11C SWAP2 SWAP1 PUSH2 0xB25 JUMP JUMPDEST PUSH1 0x40 MLOAD DUP1 SWAP2 SUB SWAP1 RETURN JUMPDEST CALLVALUE DUP1 ISZERO PUSH2 0x131 JUMPI PUSH1 0x0 DUP1 REVERT JUMPDEST POP PUSH2 0x13A PUSH2 0x3C9 JUMP JUMPDEST PUSH1 0x40 MLOAD PUSH2 0x14B SWAP6 SWAP5 SWAP4 SWAP3 SWAP2 SWAP1 PUSH2 0xB40 JUMP JUMPDEST PUSH1 0x40 MLOAD DUP1 SWAP2 SUB SWAP1 RETURN JUMPDEST CALLVALUE DUP1 ISZERO PUSH2 0x160 JUMPI PUSH1 0x0 DUP1 REVERT JUMPDEST POP PUSH2 0x169 PUSH2 0x40F JUMP JUMPDEST PUSH1 0x40 MLOAD PUSH2 0x176 SWAP2 SWAP1 PUSH2 0xA95 JUMP JUMPDEST PUSH1 0x40 MLOAD DUP1 SWAP2 SUB SWAP1 RETURN JUMPDEST CALLVALUE DUP1 ISZERO PUSH2 0x18B JUMPI PUSH1 0x0 DUP1 REVERT JUMPDEST POP PUSH2 0x1A6 PUSH1 0x4 DUP1 CALLDATASIZE SUB DUP2 ADD SWAP1 PUSH2 0x1A1 SWAP2 SWAP1 PUSH2 0x9F3 JUMP JUMPDEST PUSH2 0x435 JUMP JUMPDEST PUSH1 0x40 MLOAD PUSH2 0x1B7 SWAP6 SWAP5 SWAP4 SWAP3 SWAP2 SWAP1 PUSH2 0xACB JUMP JUMPDEST PUSH1 0x40 MLOAD DUP1 SWAP2 SUB SWAP1 RETURN JUMPDEST CALLVALUE DUP1 ISZERO PUSH2 0x1CC JUMPI PUSH1 0x0 DUP1 REVERT JUMPDEST POP PUSH2 0x1D5 PUSH2 0x520 JUMP JUMPDEST PUSH1 0x40 MLOAD PUSH2 0x1E2 SWAP2 SWAP1 PUSH2 0xB25 JUMP JUMPDEST PUSH1 0x40 MLOAD DUP1 SWAP2 SUB SWAP1 RETURN JUMPDEST CALLVALUE DUP1 ISZERO PUSH2 0x1F7 JUMPI PUSH1 0x0 DUP1 REVERT JUMPDEST POP PUSH2 0x212 PUSH1 0x4 DUP1 CALLDATASIZE SUB DUP2 ADD SWAP1 PUSH2 0x20D SWAP2 SWAP1 PUSH2 0x984 JUMP JUMPDEST PUSH2 0x526 JUMP JUMPDEST STOP JUMPDEST CALLVALUE DUP1 ISZERO PUSH2 0x220 JUMPI PUSH1 0x0 DUP1 REVERT JUMPDEST POP PUSH2 0x229 PUSH2 0x641 JUMP JUMPDEST PUSH1 0x40 MLOAD PUSH2 0x236 SWAP2 SWAP1 PUSH2 0xB25 JUMP JUMPDEST PUSH1 0x40 MLOAD DUP1 SWAP2 SUB SWAP1 RETURN JUMPDEST PUSH2 0x247 PUSH2 0x647 JUMP JUMPDEST STOP JUMPDEST PUSH2 0x263 PUSH1 0x4 DUP1 CALLDATASIZE SUB DUP2 ADD SWAP1 PUSH2 0x25E SWAP2 SWAP1 PUSH2 0x9F3 JUMP JUMPDEST PUSH2 0x6C7 JUMP JUMPDEST STOP JUMPDEST PUSH1 0x2 PUSH1 0x0 SWAP1 SLOAD SWAP1 PUSH2 0x100 EXP SWAP1 DIV PUSH20 0xFFFFFFFFFFFFFFFFFFFFFFFFFFFFFFFFFFFFFFFF AND PUSH20 0xFFFFFFFFFFFFFFFFFFFFFFFFFFFFFFFFFFFFFFFF AND CALLER PUSH20 0xFFFFFFFFFFFFFFFFFFFFFFFFFFFFFFFFFFFFFFFF AND EQ PUSH2 0x2BF JUMPI PUSH1 0x0 DUP1 REVERT JUMPDEST PUSH1 0x0 PUSH1 0x1 PUSH1 0x0 DUP4 DUP2 MSTORE PUSH1 0x20 ADD SWAP1 DUP2 MSTORE PUSH1 0x20 ADD PUSH1 0x0 KECCAK256 SWAP1 POP DUP1 PUSH1 0x2 ADD PUSH1 0x14 SWAP1 SLOAD SWAP1 PUSH2 0x100 EXP SWAP1 DIV PUSH1 0xFF AND ISZERO PUSH2 0x2F2 JUMPI PUSH1 0x0 DUP1 REVERT JUMPDEST PUSH1 0x2 PUSH1 0x5 SLOAD PUSH2 0x301 SWAP2 SWAP1 PUSH2 0xC05 JUMP JUMPDEST DUP2 PUSH1 0x3 ADD SLOAD GT PUSH2 0x310 JUMPI PUSH1 0x0 DUP1 REVERT JUMPDEST DUP1 PUSH1 0x2 ADD PUSH1 0x0 SWAP1 SLOAD SWAP1 PUSH2 0x100 EXP SWAP1 DIV PUSH20 0xFFFFFFFFFFFFFFFFFFFFFFFFFFFFFFFFFFFFFFFF AND PUSH20 0xFFFFFFFFFFFFFFFFFFFFFFFFFFFFFFFFFFFFFFFF AND PUSH2 0x8FC DUP3 PUSH1 0x1 ADD SLOAD SWAP1 DUP2 ISZERO MUL SWAP1 PUSH1 0x40 MLOAD PUSH1 0x0 PUSH1 0x40 MLOAD DUP1 DUP4 SUB DUP2 DUP6 DUP9 DUP9 CALL SWAP4 POP POP POP POP ISZERO DUP1 ISZERO PUSH2 0x37E JUMPI RETURNDATASIZE PUSH1 0x0 DUP1 RETURNDATACOPY RETURNDATASIZE PUSH1 0x0 REVERT JUMPDEST POP PUSH1 0x1 DUP2 PUSH1 0x2 ADD PUSH1 0x14 PUSH2 0x100 EXP DUP2 SLOAD DUP2 PUSH1 0xFF MUL NOT AND SWAP1 DUP4 ISZERO ISZERO MUL OR SWAP1 SSTORE POP POP POP JUMP JUMPDEST PUSH1 0x4 PUSH1 0x20 MSTORE DUP1 PUSH1 0x0 MSTORE PUSH1 0x40 PUSH1 0x0 KECCAK256 PUSH1 0x0 SWAP2 POP SLOAD SWAP1 PUSH2 0x100 EXP SWAP1 DIV PUSH1 0xFF AND DUP2 JUMP JUMPDEST PUSH1 0x0 DUP1 SLOAD SWAP1 POP SWAP1 JUMP JUMPDEST PUSH1 0x0 DUP1 PUSH1 0x0 DUP1 PUSH1 0x0 PUSH1 0x3 SLOAD SELFBALANCE PUSH1 0x0 SLOAD PUSH1 0x5 SLOAD PUSH1 0x2 PUSH1 0x0 SWAP1 SLOAD SWAP1 PUSH2 0x100 EXP SWAP1 DIV PUSH20 0xFFFFFFFFFFFFFFFFFFFFFFFFFFFFFFFFFFFFFFFF AND SWAP5 POP SWAP5 POP SWAP5 POP SWAP5 POP SWAP5 POP SWAP1 SWAP2 SWAP3 SWAP4 SWAP5 JUMP JUMPDEST PUSH1 0x2 PUSH1 0x0 SWAP1 SLOAD SWAP1 PUSH2 0x100 EXP SWAP1 DIV PUSH20 0xFFFFFFFFFFFFFFFFFFFFFFFFFFFFFFFFFFFFFFFF AND DUP2 JUMP JUMPDEST PUSH1 0x1 PUSH1 0x20 MSTORE DUP1 PUSH1 0x0 MSTORE PUSH1 0x40 PUSH1 0x0 KECCAK256 PUSH1 0x0 SWAP2 POP SWAP1 POP DUP1 PUSH1 0x0 ADD DUP1 SLOAD PUSH2 0x458 SWAP1 PUSH2 0xCD2 JUMP JUMPDEST DUP1 PUSH1 0x1F ADD PUSH1 0x20 DUP1 SWAP2 DIV MUL PUSH1 0x20 ADD PUSH1 0x40 MLOAD SWAP1 DUP2 ADD PUSH1 0x40 MSTORE DUP1 SWAP3 SWAP2 SWAP1 DUP2 DUP2 MSTORE PUSH1 0x20 ADD DUP3 DUP1 SLOAD PUSH2 0x484 SWAP1 PUSH2 0xCD2 JUMP JUMPDEST DUP1 ISZERO PUSH2 0x4D1 JUMPI DUP1 PUSH1 0x1F LT PUSH2 0x4A6 JUMPI PUSH2 0x100 DUP1 DUP4 SLOAD DIV MUL DUP4 MSTORE SWAP2 PUSH1 0x20 ADD SWAP2 PUSH2 0x4D1 JUMP JUMPDEST DUP3 ADD SWAP2 SWAP1 PUSH1 0x0 MSTORE PUSH1 0x20 PUSH1 0x0 KECCAK256 SWAP1 JUMPDEST DUP2 SLOAD DUP2 MSTORE SWAP1 PUSH1 0x1 ADD SWAP1 PUSH1 0x20 ADD DUP1 DUP4 GT PUSH2 0x4B4 JUMPI DUP3 SWAP1 SUB PUSH1 0x1F AND DUP3 ADD SWAP2 JUMPDEST POP POP POP POP POP SWAP1 DUP1 PUSH1 0x1 ADD SLOAD SWAP1 DUP1 PUSH1 0x2 ADD PUSH1 0x0 SWAP1 SLOAD SWAP1 PUSH2 0x100 EXP SWAP1 DIV PUSH20 0xFFFFFFFFFFFFFFFFFFFFFFFFFFFFFFFFFFFFFFFF AND SWAP1 DUP1 PUSH1 0x2 ADD PUSH1 0x14 SWAP1 SLOAD SWAP1 PUSH2 0x100 EXP SWAP1 DIV PUSH1 0xFF AND SWAP1 DUP1 PUSH1 0x3 ADD SLOAD SWAP1 POP DUP6 JUMP JUMPDEST PUSH1 0x5 SLOAD DUP2 JUMP JUMPDEST PUSH1 0x2 PUSH1 0x0 SWAP1 SLOAD SWAP1 PUSH2 0x100 EXP SWAP1 DIV PUSH20 0xFFFFFFFFFFFFFFFFFFFFFFFFFFFFFFFFFFFFFFFF AND PUSH20 0xFFFFFFFFFFFFFFFFFFFFFFFFFFFFFFFFFFFFFFFF AND CALLER PUSH20 0xFFFFFFFFFFFFFFFFFFFFFFFFFFFFFFFFFFFFFFFF AND EQ PUSH2 0x580 JUMPI PUSH1 0x0 DUP1 REVERT JUMPDEST PUSH1 0x0 PUSH1 0x1 PUSH1 0x0 DUP1 SLOAD DUP2 MSTORE PUSH1 0x20 ADD SWAP1 DUP2 MSTORE PUSH1 0x20 ADD PUSH1 0x0 KECCAK256 SWAP1 POP DUP4 DUP2 PUSH1 0x0 ADD SWAP1 DUP1 MLOAD SWAP1 PUSH1 0x20 ADD SWAP1 PUSH2 0x5B0 SWAP3 SWAP2 SWAP1 PUSH2 0x805 JUMP JUMPDEST POP DUP3 DUP2 PUSH1 0x1 ADD DUP2 SWAP1 SSTORE POP DUP2 DUP2 PUSH1 0x2 ADD PUSH1 0x0 PUSH2 0x100 EXP DUP2 SLOAD DUP2 PUSH20 0xFFFFFFFFFFFFFFFFFFFFFFFFFFFFFFFFFFFFFFFF MUL NOT AND SWAP1 DUP4 PUSH20 0xFFFFFFFFFFFFFFFFFFFFFFFFFFFFFFFFFFFFFFFF AND MUL OR SWAP1 SSTORE POP PUSH1 0x0 DUP2 PUSH1 0x2 ADD PUSH1 0x14 PUSH2 0x100 EXP DUP2 SLOAD DUP2 PUSH1 0xFF MUL NOT AND SWAP1 DUP4 ISZERO ISZERO MUL OR SWAP1 SSTORE POP PUSH1 0x0 DUP2 PUSH1 0x3 ADD DUP2 SWAP1 SSTORE POP PUSH1 0x0 DUP1 DUP2 SLOAD DUP1 SWAP3 SWAP2 SWAP1 PUSH2 0x636 SWAP1 PUSH2 0xD35 JUMP JUMPDEST SWAP2 SWAP1 POP SSTORE POP POP POP POP POP JUMP JUMPDEST PUSH1 0x3 SLOAD DUP2 JUMP JUMPDEST PUSH1 0x3 SLOAD CALLVALUE GT PUSH2 0x655 JUMPI PUSH1 0x0 DUP1 REVERT JUMPDEST PUSH1 0x1 PUSH1 0x4 PUSH1 0x0 CALLER PUSH20 0xFFFFFFFFFFFFFFFFFFFFFFFFFFFFFFFFFFFFFFFF AND PUSH20 0xFFFFFFFFFFFFFFFFFFFFFFFFFFFFFFFFFFFFFFFF AND DUP2 MSTORE PUSH1 0x20 ADD SWAP1 DUP2 MSTORE PUSH1 0x20 ADD PUSH1 0x0 KECCAK256 PUSH1 0x0 PUSH2 0x100 EXP DUP2 SLOAD DUP2 PUSH1 0xFF MUL NOT AND SWAP1 DUP4 ISZERO ISZERO MUL OR SWAP1 SSTORE POP PUSH1 0x5 PUSH1 0x0 DUP2 SLOAD DUP1 SWAP3 SWAP2 SWAP1 PUSH2 0x6C0 SWAP1 PUSH2 0xD35 JUMP JUMPDEST SWAP2 SWAP1 POP SSTORE POP JUMP JUMPDEST PUSH1 0x0 PUSH1 0x1 PUSH1 0x0 DUP4 DUP2 MSTORE PUSH1 0x20 ADD SWAP1 DUP2 MSTORE PUSH1 0x20 ADD PUSH1 0x0 KECCAK256 SWAP1 POP PUSH1 0x4 PUSH1 0x0 CALLER PUSH20 0xFFFFFFFFFFFFFFFFFFFFFFFFFFFFFFFFFFFFFFFF AND PUSH20 0xFFFFFFFFFFFFFFFFFFFFFFFFFFFFFFFFFFFFFFFF AND DUP2 MSTORE PUSH1 0x20 ADD SWAP1 DUP2 MSTORE PUSH1 0x20 ADD PUSH1 0x0 KECCAK256 PUSH1 0x0 SWAP1 SLOAD SWAP1 PUSH2 0x100 EXP SWAP1 DIV PUSH1 0xFF AND PUSH2 0x734 JUMPI PUSH1 0x0 DUP1 REVERT JUMPDEST DUP1 PUSH1 0x4 ADD PUSH1 0x0 CALLER PUSH20 0xFFFFFFFFFFFFFFFFFFFFFFFFFFFFFFFFFFFFFFFF AND PUSH20 0xFFFFFFFFFFFFFFFFFFFFFFFFFFFFFFFFFFFFFFFF AND DUP2 MSTORE PUSH1 0x20 ADD SWAP1 DUP2 MSTORE PUSH1 0x20 ADD PUSH1 0x0 KECCAK256 PUSH1 0x0 SWAP1 SLOAD SWAP1 PUSH2 0x100 EXP SWAP1 DIV PUSH1 0xFF AND ISZERO PUSH2 0x78D JUMPI PUSH1 0x0 DUP1 REVERT JUMPDEST PUSH1 0x1 DUP2 PUSH1 0x4 ADD PUSH1 0x0 CALLER PUSH20 0xFFFFFFFFFFFFFFFFFFFFFFFFFFFFFFFFFFFFFFFF AND PUSH20 0xFFFFFFFFFFFFFFFFFFFFFFFFFFFFFFFFFFFFFFFF AND DUP2 MSTORE PUSH1 0x20 ADD SWAP1 DUP2 MSTORE PUSH1 0x20 ADD PUSH1 0x0 KECCAK256 PUSH1 0x0 PUSH2 0x100 EXP DUP2 SLOAD DUP2 PUSH1 0xFF MUL NOT AND SWAP1 DUP4 ISZERO ISZERO MUL OR SWAP1 SSTORE POP DUP1 PUSH1 0x3 ADD PUSH1 0x0 DUP2 SLOAD DUP1 SWAP3 SWAP2 SWAP1 PUSH2 0x7FC SWAP1 PUSH2 0xD35 JUMP JUMPDEST SWAP2 SWAP1 POP SSTORE POP POP POP JUMP JUMPDEST DUP3 DUP1 SLOAD PUSH2 0x811 SWAP1 PUSH2 0xCD2 JUMP JUMPDEST SWAP1 PUSH1 0x0 MSTORE PUSH1 0x20 PUSH1 0x0 KECCAK256 SWAP1 PUSH1 0x1F ADD PUSH1 0x20 SWAP1 DIV DUP2 ADD SWAP3 DUP3 PUSH2 0x833 JUMPI PUSH1 0x0 DUP6 SSTORE PUSH2 0x87A JUMP JUMPDEST DUP3 PUSH1 0x1F LT PUSH2 0x84C JUMPI DUP1 MLOAD PUSH1 0xFF NOT AND DUP4 DUP1 ADD OR DUP6 SSTORE PUSH2 0x87A JUMP JUMPDEST DUP3 DUP1 ADD PUSH1 0x1 ADD DUP6 SSTORE DUP3 ISZERO PUSH2 0x87A JUMPI SWAP2 DUP3 ADD JUMPDEST DUP3 DUP2 GT ISZERO PUSH2 0x879 JUMPI DUP3 MLOAD DUP3 SSTORE SWAP2 PUSH1 0x20 ADD SWAP2 SWAP1 PUSH1 0x1 ADD SWAP1 PUSH2 0x85E JUMP JUMPDEST JUMPDEST POP SWAP1 POP PUSH2 0x887 SWAP2 SWAP1 PUSH2 0x88B JUMP JUMPDEST POP SWAP1 JUMP JUMPDEST JUMPDEST DUP1 DUP3 GT ISZERO PUSH2 0x8A4 JUMPI PUSH1 0x0 DUP2 PUSH1 0x0 SWAP1 SSTORE POP PUSH1 0x1 ADD PUSH2 0x88C JUMP JUMPDEST POP SWAP1 JUMP JUMPDEST PUSH1 0x0 PUSH2 0x8BB PUSH2 0x8B6 DUP5 PUSH2 0xBB8 JUMP JUMPDEST PUSH2 0xB93 JUMP JUMPDEST SWAP1 POP DUP3 DUP2 MSTORE PUSH1 0x20 DUP2 ADD DUP5 DUP5 DUP5 ADD GT ISZERO PUSH2 0x8D7 JUMPI PUSH2 0x8D6 PUSH2 0xE3F JUMP JUMPDEST JUMPDEST PUSH2 0x8E2 DUP5 DUP3 DUP6 PUSH2 0xC90 JUMP JUMPDEST POP SWAP4 SWAP3 POP POP POP JUMP JUMPDEST PUSH1 0x0 DUP2 CALLDATALOAD SWAP1 POP PUSH2 0x8F9 DUP2 PUSH2 0xE5F JUMP JUMPDEST SWAP3 SWAP2 POP POP JUMP JUMPDEST PUSH1 0x0 DUP2 CALLDATALOAD SWAP1 POP PUSH2 0x90E DUP2 PUSH2 0xE76 JUMP JUMPDEST SWAP3 SWAP2 POP POP JUMP JUMPDEST PUSH1 0x0 DUP3 PUSH1 0x1F DUP4 ADD SLT PUSH2 0x929 JUMPI PUSH2 0x928 PUSH2 0xE3A JUMP JUMPDEST JUMPDEST DUP2 CALLDATALOAD PUSH2 0x939 DUP5 DUP3 PUSH1 0x20 DUP7 ADD PUSH2 0x8A8 JUMP JUMPDEST SWAP2 POP POP SWAP3 SWAP2 POP POP JUMP JUMPDEST PUSH1 0x0 DUP2 CALLDATALOAD SWAP1 POP PUSH2 0x951 DUP2 PUSH2 0xE8D JUMP JUMPDEST SWAP3 SWAP2 POP POP JUMP JUMPDEST PUSH1 0x0 PUSH1 0x20 DUP3 DUP5 SUB SLT ISZERO PUSH2 0x96D JUMPI PUSH2 0x96C PUSH2 0xE49 JUMP JUMPDEST JUMPDEST PUSH1 0x0 PUSH2 0x97B DUP5 DUP3 DUP6 ADD PUSH2 0x8EA JUMP JUMPDEST SWAP2 POP POP SWAP3 SWAP2 POP POP JUMP JUMPDEST PUSH1 0x0 DUP1 PUSH1 0x0 PUSH1 0x60 DUP5 DUP7 SUB SLT ISZERO PUSH2 0x99D JUMPI PUSH2 0x99C PUSH2 0xE49 JUMP JUMPDEST JUMPDEST PUSH1 0x0 DUP5 ADD CALLDATALOAD PUSH8 0xFFFFFFFFFFFFFFFF DUP2 GT ISZERO PUSH2 0x9BB JUMPI PUSH2 0x9BA PUSH2 0xE44 JUMP JUMPDEST JUMPDEST PUSH2 0x9C7 DUP7 DUP3 DUP8 ADD PUSH2 0x914 JUMP JUMPDEST SWAP4 POP POP PUSH1 0x20 PUSH2 0x9D8 DUP7 DUP3 DUP8 ADD PUSH2 0x942 JUMP JUMPDEST SWAP3 POP POP PUSH1 0x40 PUSH2 0x9E9 DUP7 DUP3 DUP8 ADD PUSH2 0x8FF JUMP JUMPDEST SWAP2 POP POP SWAP3 POP SWAP3 POP SWAP3 JUMP JUMPDEST PUSH1 0x0 PUSH1 0x20 DUP3 DUP5 SUB SLT ISZERO PUSH2 0xA09 JUMPI PUSH2 0xA08 PUSH2 0xE49 JUMP JUMPDEST JUMPDEST PUSH1 0x0 PUSH2 0xA17 DUP5 DUP3 DUP6 ADD PUSH2 0x942 JUMP JUMPDEST SWAP2 POP POP SWAP3 SWAP2 POP POP JUMP JUMPDEST PUSH2 0xA29 DUP2 PUSH2 0xC48 JUMP JUMPDEST DUP3 MSTORE POP POP JUMP JUMPDEST PUSH2 0xA38 DUP2 PUSH2 0xC36 JUMP JUMPDEST DUP3 MSTORE POP POP JUMP JUMPDEST PUSH2 0xA47 DUP2 PUSH2 0xC5A JUMP JUMPDEST DUP3 MSTORE POP POP JUMP JUMPDEST PUSH1 0x0 PUSH2 0xA58 DUP3 PUSH2 0xBE9 JUMP JUMPDEST PUSH2 0xA62 DUP2 DUP6 PUSH2 0xBF4 JUMP JUMPDEST SWAP4 POP PUSH2 0xA72 DUP2 DUP6 PUSH1 0x20 DUP7 ADD PUSH2 0xC9F JUMP JUMPDEST PUSH2 0xA7B DUP2 PUSH2 0xE4E JUMP JUMPDEST DUP5 ADD SWAP2 POP POP SWAP3 SWAP2 POP POP JUMP JUMPDEST PUSH2 0xA8F DUP2 PUSH2 0xC86 JUMP JUMPDEST DUP3 MSTORE POP POP JUMP JUMPDEST PUSH1 0x0 PUSH1 0x20 DUP3 ADD SWAP1 POP PUSH2 0xAAA PUSH1 0x0 DUP4 ADD DUP5 PUSH2 0xA2F JUMP JUMPDEST SWAP3 SWAP2 POP POP JUMP JUMPDEST PUSH1 0x0 PUSH1 0x20 DUP3 ADD SWAP1 POP PUSH2 0xAC5 PUSH1 0x0 DUP4 ADD DUP5 PUSH2 0xA3E JUMP JUMPDEST SWAP3 SWAP2 POP POP JUMP JUMPDEST PUSH1 0x0 PUSH1 0xA0 DUP3 ADD SWAP1 POP DUP2 DUP2 SUB PUSH1 0x0 DUP4 ADD MSTORE PUSH2 0xAE5 DUP2 DUP9 PUSH2 0xA4D JUMP JUMPDEST SWAP1 POP PUSH2 0xAF4 PUSH1 0x20 DUP4 ADD DUP8 PUSH2 0xA86 JUMP JUMPDEST PUSH2 0xB01 PUSH1 0x40 DUP4 ADD DUP7 PUSH2 0xA20 JUMP JUMPDEST PUSH2 0xB0E PUSH1 0x60 DUP4 ADD DUP6 PUSH2 0xA3E JUMP JUMPDEST PUSH2 0xB1B PUSH1 0x80 DUP4 ADD DUP5 PUSH2 0xA86 JUMP JUMPDEST SWAP7 SWAP6 POP POP POP POP POP POP JUMP JUMPDEST PUSH1 0x0 PUSH1 0x20 DUP3 ADD SWAP1 POP PUSH2 0xB3A PUSH1 0x0 DUP4 ADD DUP5 PUSH2 0xA86 JUMP JUMPDEST SWAP3 SWAP2 POP POP JUMP JUMPDEST PUSH1 0x0 PUSH1 0xA0 DUP3 ADD SWAP1 POP PUSH2 0xB55 PUSH1 0x0 DUP4 ADD DUP9 PUSH2 0xA86 JUMP JUMPDEST PUSH2 0xB62 PUSH1 0x20 DUP4 ADD DUP8 PUSH2 0xA86 JUMP JUMPDEST PUSH2 0xB6F PUSH1 0x40 DUP4 ADD DUP7 PUSH2 0xA86 JUMP JUMPDEST PUSH2 0xB7C PUSH1 0x60 DUP4 ADD DUP6 PUSH2 0xA86 JUMP JUMPDEST PUSH2 0xB89 PUSH1 0x80 DUP4 ADD DUP5 PUSH2 0xA2F JUMP JUMPDEST SWAP7 SWAP6 POP POP POP POP POP POP JUMP JUMPDEST PUSH1 0x0 PUSH2 0xB9D PUSH2 0xBAE JUMP JUMPDEST SWAP1 POP PUSH2 0xBA9 DUP3 DUP3 PUSH2 0xD04 JUMP JUMPDEST SWAP2 SWAP1 POP JUMP JUMPDEST PUSH1 0x0 PUSH1 0x40 MLOAD SWAP1 POP SWAP1 JUMP JUMPDEST PUSH1 0x0 PUSH8 0xFFFFFFFFFFFFFFFF DUP3 GT ISZERO PUSH2 0xBD3 JUMPI PUSH2 0xBD2 PUSH2 0xE0B JUMP JUMPDEST JUMPDEST PUSH2 0xBDC DUP3 PUSH2 0xE4E JUMP JUMPDEST SWAP1 POP PUSH1 0x20 DUP2 ADD SWAP1 POP SWAP2 SWAP1 POP JUMP JUMPDEST PUSH1 0x0 DUP2 MLOAD SWAP1 POP SWAP2 SWAP1 POP JUMP JUMPDEST PUSH1 0x0 DUP3 DUP3 MSTORE PUSH1 0x20 DUP3 ADD SWAP1 POP SWAP3 SWAP2 POP POP JUMP JUMPDEST PUSH1 0x0 PUSH2 0xC10 DUP3 PUSH2 0xC86 JUMP JUMPDEST SWAP2 POP PUSH2 0xC1B DUP4 PUSH2 0xC86 JUMP JUMPDEST SWAP3 POP DUP3 PUSH2 0xC2B JUMPI PUSH2 0xC2A PUSH2 0xDAD JUMP JUMPDEST JUMPDEST DUP3 DUP3 DIV SWAP1 POP SWAP3 SWAP2 POP POP JUMP JUMPDEST PUSH1 0x0 PUSH2 0xC41 DUP3 PUSH2 0xC66 JUMP JUMPDEST SWAP1 POP SWAP2 SWAP1 POP JUMP JUMPDEST PUSH1 0x0 PUSH2 0xC53 DUP3 PUSH2 0xC66 JUMP JUMPDEST SWAP1 POP SWAP2 SWAP1 POP JUMP JUMPDEST PUSH1 0x0 DUP2 ISZERO ISZERO SWAP1 POP SWAP2 SWAP1 POP JUMP JUMPDEST PUSH1 0x0 PUSH20 0xFFFFFFFFFFFFFFFFFFFFFFFFFFFFFFFFFFFFFFFF DUP3 AND SWAP1 POP SWAP2 SWAP1 POP JUMP JUMPDEST PUSH1 0x0 DUP2 SWAP1 POP SWAP2 SWAP1 POP JUMP JUMPDEST DUP3 DUP2 DUP4 CALLDATACOPY PUSH1 0x0 DUP4 DUP4 ADD MSTORE POP POP POP JUMP JUMPDEST PUSH1 0x0 JUMPDEST DUP4 DUP2 LT ISZERO PUSH2 0xCBD JUMPI DUP1 DUP3 ADD MLOAD DUP2 DUP5 ADD MSTORE PUSH1 0x20 DUP2 ADD SWAP1 POP PUSH2 0xCA2 JUMP JUMPDEST DUP4 DUP2 GT ISZERO PUSH2 0xCCC JUMPI PUSH1 0x0 DUP5 DUP5 ADD MSTORE JUMPDEST POP POP POP POP JUMP JUMPDEST PUSH1 0x0 PUSH1 0x2 DUP3 DIV SWAP1 POP PUSH1 0x1 DUP3 AND DUP1 PUSH2 0xCEA JUMPI PUSH1 0x7F DUP3 AND SWAP2 POP JUMPDEST PUSH1 0x20 DUP3 LT DUP2 EQ ISZERO PUSH2 0xCFE JUMPI PUSH2 0xCFD PUSH2 0xDDC JUMP JUMPDEST JUMPDEST POP SWAP2 SWAP1 POP JUMP JUMPDEST PUSH2 0xD0D DUP3 PUSH2 0xE4E JUMP JUMPDEST DUP2 ADD DUP2 DUP2 LT PUSH8 0xFFFFFFFFFFFFFFFF DUP3 GT OR ISZERO PUSH2 0xD2C JUMPI PUSH2 0xD2B PUSH2 0xE0B JUMP JUMPDEST JUMPDEST DUP1 PUSH1 0x40 MSTORE POP POP POP JUMP JUMPDEST PUSH1 0x0 PUSH2 0xD40 DUP3 PUSH2 0xC86 JUMP JUMPDEST SWAP2 POP PUSH32 0xFFFFFFFFFFFFFFFFFFFFFFFFFFFFFFFFFFFFFFFFFFFFFFFFFFFFFFFFFFFFFFFF DUP3 EQ ISZERO PUSH2 0xD73 JUMPI PUSH2 0xD72 PUSH2 0xD7E JUMP JUMPDEST JUMPDEST PUSH1 0x1 DUP3 ADD SWAP1 POP SWAP2 SWAP1 POP JUMP JUMPDEST PUSH32 0x4E487B7100000000000000000000000000000000000000000000000000000000 PUSH1 0x0 MSTORE PUSH1 0x11 PUSH1 0x4 MSTORE PUSH1 0x24 PUSH1 0x0 REVERT JUMPDEST PUSH32 0x4E487B7100000000000000000000000000000000000000000000000000000000 PUSH1 0x0 MSTORE PUSH1 0x12 PUSH1 0x4 MSTORE PUSH1 0x24 PUSH1 0x0 REVERT JUMPDEST PUSH32 0x4E487B7100000000000000000000000000000000000000000000000000000000 PUSH1 0x0 MSTORE PUSH1 0x22 PUSH1 0x4 MSTORE PUSH1 0x24 PUSH1 0x0 REVERT JUMPDEST PUSH32 0x4E487B7100000000000000000000000000000000000000000000000000000000 PUSH1 0x0 MSTORE PUSH1 0x41 PUSH1 0x4 MSTORE PUSH1 0x24 PUSH1 0x0 REVERT JUMPDEST PUSH1 0x0 DUP1 REVERT JUMPDEST PUSH1 0x0 DUP1 REVERT JUMPDEST PUSH1 0x0 DUP1 REVERT JUMPDEST PUSH1 0x0 DUP1 REVERT JUMPDEST PUSH1 0x0 PUSH1 0x1F NOT PUSH1 0x1F DUP4 ADD AND SWAP1 POP SWAP2 SWAP1 POP JUMP JUMPDEST PUSH2 0xE68 DUP2 PUSH2 0xC36 JUMP JUMPDEST DUP2 EQ PUSH2 0xE73 JUMPI PUSH1 0x0 DUP1 REVERT JUMPDEST POP JUMP JUMPDEST PUSH2 0xE7F DUP2 PUSH2 0xC48 JUMP JUMPDEST DUP2 EQ PUSH2 0xE8A JUMPI PUSH1 0x0 DUP1 REVERT JUMPDEST POP JUMP JUMPDEST PUSH2 0xE96 DUP2 PUSH2 0xC86 JUMP JUMPDEST DUP2 EQ PUSH2 0xEA1 JUMPI PUSH1 0x0 DUP1 REVERT JUMPDEST POP JUMP INVALID LOG2 PUSH5 0x6970667358 0x22 SLT KECCAK256 0xF7 PUSH4 0x9827D36F 0x28 0x4A 0x29 0xC7 PUSH30 0x108E3EDC126B7D67B1AFA85AB5171BEBC5AD9E277F64736F6C6343000806 STOP CALLER "
    },
    "gasEstimates": {
      "creation": {
        "codeDepositCost": "760400",
        "executionCost": "infinite",
        "totalCost": "infinite"
      },
      "external": {
        "approveRequest(uint256)": "infinite",
        "approvers(address)": "2868",
        "approversCount()": "2451",
        "contribute()": "51046",
        "createRequest(string,uint256,address)": "infinite",
        "finalizeRequest(uint256)": "infinite",
        "getRequestsCount()": "2482",
        "getSummary()": "infinite",
        "manager()": "2603",
        "minimumContribution()": "2495",
        "requests(uint256)": "infinite"
      }
    },
    "methodIdentifiers": {
      "approveRequest(uint256)": "d7d1bbdb",
      "approvers(address)": "0a144391",
      "approversCount()": "82fde093",
      "contribute()": "d7bb99ba",
      "createRequest(string,uint256,address)": "8a9cfd55",
      "finalizeRequest(uint256)": "03441006",
      "getRequestsCount()": "3410452a",
      "getSummary()": "4051ddac",
      "manager()": "481c6a75",
      "minimumContribution()": "937e09b1",
      "requests(uint256)": "81d12c58"
    }
  },
  "storageLayout": {
    "storage": [
      {
        "astId": 57,
        "contract": "Campaign.sol:Campaign",
        "label": "numRequests",
        "offset": 0,
        "slot": "0",
        "type": "t_uint256"
      },
      {
        "astId": 62,
        "contract": "Campaign.sol:Campaign",
        "label": "requests",
        "offset": 0,
        "slot": "1",
        "type": "t_mapping(t_uint256,t_struct(Request)54_storage)"
      },
      {
        "astId": 64,
        "contract": "Campaign.sol:Campaign",
        "label": "manager",
        "offset": 0,
        "slot": "2",
        "type": "t_address"
      },
      {
        "astId": 66,
        "contract": "Campaign.sol:Campaign",
        "label": "minimumContribution",
        "offset": 0,
        "slot": "3",
        "type": "t_uint256"
      },
      {
        "astId": 70,
        "contract": "Campaign.sol:Campaign",
        "label": "approvers",
        "offset": 0,
        "slot": "4",
        "type": "t_mapping(t_address,t_bool)"
      },
      {
        "astId": 73,
        "contract": "Campaign.sol:Campaign",
        "label": "approversCount",
        "offset": 0,
        "slot": "5",
        "type": "t_uint256"
      }
    ],
    "types": {
      "t_address": {
        "encoding": "inplace",
        "label": "address",
        "numberOfBytes": "20"
      },
      "t_address_payable": {
        "encoding": "inplace",
        "label": "address payable",
        "numberOfBytes": "20"
      },
      "t_bool": {
        "encoding": "inplace",
        "label": "bool",
        "numberOfBytes": "1"
      },
      "t_mapping(t_address,t_bool)": {
        "encoding": "mapping",
        "key": "t_address",
        "label": "mapping(address => bool)",
        "numberOfBytes": "32",
        "value": "t_bool"
      },
      "t_mapping(t_uint256,t_struct(Request)54_storage)": {
        "encoding": "mapping",
        "key": "t_uint256",
        "label": "mapping(uint256 => struct Campaign.Request)",
        "numberOfBytes": "32",
        "value": "t_struct(Request)54_storage"
      },
      "t_string_storage": {
        "encoding": "bytes",
        "label": "string",
        "numberOfBytes": "32"
      },
      "t_struct(Request)54_storage": {
        "encoding": "inplace",
        "label": "struct Campaign.Request",
        "members": [
          {
            "astId": 41,
            "contract": "Campaign.sol:Campaign",
            "label": "description",
            "offset": 0,
            "slot": "0",
            "type": "t_string_storage"
          },
          {
            "astId": 43,
            "contract": "Campaign.sol:Campaign",
            "label": "value",
            "offset": 0,
            "slot": "1",
            "type": "t_uint256"
          },
          {
            "astId": 45,
            "contract": "Campaign.sol:Campaign",
            "label": "recipient",
            "offset": 0,
            "slot": "2",
            "type": "t_address_payable"
          },
          {
            "astId": 47,
            "contract": "Campaign.sol:Campaign",
            "label": "complete",
            "offset": 20,
            "slot": "2",
            "type": "t_bool"
          },
          {
            "astId": 49,
            "contract": "Campaign.sol:Campaign",
            "label": "approvalCount",
            "offset": 0,
            "slot": "3",
            "type": "t_uint256"
          },
          {
            "astId": 53,
            "contract": "Campaign.sol:Campaign",
            "label": "approvals",
            "offset": 0,
            "slot": "4",
            "type": "t_mapping(t_address,t_bool)"
          }
        ],
        "numberOfBytes": "160"
      },
      "t_uint256": {
        "encoding": "inplace",
        "label": "uint256",
        "numberOfBytes": "32"
      }
    }
  },
  "userdoc": {
    "kind": "user",
    "methods": {},
    "version": 1
  }
}