{
  "abi": [
    {
      "inputs": [
        {
          "internalType": "uint256",
          "name": "minimum",
          "type": "uint256"
        },
        {
          "internalType": "address",
          "name": "creator",
          "type": "address"
        }
      ],
      "stateMutability": "nonpayable",
      "type": "constructor"
    },
    {
      "inputs": [
        {
          "internalType": "uint256",
          "name": "index",
          "type": "uint256"
        }
      ],
      "name": "approveRequest",
      "outputs": [],
      "stateMutability": "payable",
      "type": "function"
    },
    {
      "inputs": [
        {
          "internalType": "address",
          "name": "",
          "type": "address"
        }
      ],
      "name": "approvers",
      "outputs": [
        {
          "internalType": "bool",
          "name": "",
          "type": "bool"
        }
      ],
      "stateMutability": "view",
      "type": "function"
    },
    {
      "inputs": [],
      "name": "approversCount",
      "outputs": [
        {
          "internalType": "uint256",
          "name": "",
          "type": "uint256"
        }
      ],
      "stateMutability": "view",
      "type": "function"
    },
    {
      "inputs": [],
      "name": "contribute",
      "outputs": [],
      "stateMutability": "payable",
      "type": "function"
    },
    {
      "inputs": [
        {
          "internalType": "string",
          "name": "description",
          "type": "string"
        },
        {
          "internalType": "uint256",
          "name": "value",
          "type": "uint256"
        },
        {
          "internalType": "address payable",
          "name": "recipient",
          "type": "address"
        }
      ],
      "name": "createRequest",
      "outputs": [],
      "stateMutability": "nonpayable",
      "type": "function"
    },
    {
      "inputs": [
        {
          "internalType": "uint256",
          "name": "index",
          "type": "uint256"
        }
      ],
      "name": "finalizeRequest",
      "outputs": [],
      "stateMutability": "payable",
      "type": "function"
    },
    {
      "inputs": [],
      "name": "manager",
      "outputs": [
        {
          "internalType": "address",
          "name": "",
          "type": "address"
        }
      ],
      "stateMutability": "view",
      "type": "function"
    },
    {
      "inputs": [],
      "name": "minimumContritbution",
      "outputs": [
        {
          "internalType": "uint256",
          "name": "",
          "type": "uint256"
        }
      ],
      "stateMutability": "view",
      "type": "function"
    },
    {
      "inputs": [
        {
          "internalType": "uint256",
          "name": "",
          "type": "uint256"
        }
      ],
      "name": "requests",
      "outputs": [
        {
          "internalType": "string",
          "name": "description",
          "type": "string"
        },
        {
          "internalType": "uint256",
          "name": "value",
          "type": "uint256"
        },
        {
          "internalType": "address payable",
          "name": "recipient",
          "type": "address"
        },
        {
          "internalType": "bool",
          "name": "complete",
          "type": "bool"
        },
        {
          "internalType": "uint256",
          "name": "approvalCount",
          "type": "uint256"
        }
      ],
      "stateMutability": "view",
      "type": "function"
    }
  ],
  "devdoc": {
    "kind": "dev",
    "methods": {},
    "version": 1
  },
  "evm": {
    "assembly": "    /* \"Campaign.sol\":442:2393  contract Campaign {\r... */\n  mstore(0x40, 0x80)\n    /* \"Campaign.sol\":743:744  0 */\n  0x00\n    /* \"Campaign.sol\":724:744  uint numRequests = 0 */\n  dup1\n  sstore\n    /* \"Campaign.sol\":949:950  0 */\n  0x00\n    /* \"Campaign.sol\":920:950  uint public approversCount = 0 */\n  0x05\n  sstore\n    /* \"Campaign.sol\":1058:1179  constructor (uint minimum, address creator) {\r... */\n  callvalue\n  dup1\n  iszero\n  tag_1\n  jumpi\n  0x00\n  dup1\n  revert\ntag_1:\n  pop\n  mload(0x40)\n  sub(codesize, bytecodeSize)\n  dup1\n  bytecodeSize\n  dup4\n  codecopy\n  dup2\n  dup2\n  add\n  0x40\n  mstore\n  dup2\n  add\n  swap1\n  tag_2\n  swap2\n  swap1\n  tag_3\n  jump\t// in\ntag_2:\n    /* \"Campaign.sol\":1123:1130  creator */\n  dup1\n    /* \"Campaign.sol\":1113:1120  manager */\n  0x02\n  0x00\n    /* \"Campaign.sol\":1113:1130  manager = creator */\n  0x0100\n  exp\n  dup2\n  sload\n  dup2\n  0xffffffffffffffffffffffffffffffffffffffff\n  mul\n  not\n  and\n  swap1\n  dup4\n  0xffffffffffffffffffffffffffffffffffffffff\n  and\n  mul\n  or\n  swap1\n  sstore\n  pop\n    /* \"Campaign.sol\":1164:1171  minimum */\n  dup2\n    /* \"Campaign.sol\":1141:1161  minimumContritbution */\n  0x03\n    /* \"Campaign.sol\":1141:1171  minimumContritbution = minimum */\n  dup2\n  swap1\n  sstore\n  pop\n    /* \"Campaign.sol\":1058:1179  constructor (uint minimum, address creator) {\r... */\n  pop\n  pop\n    /* \"Campaign.sol\":442:2393  contract Campaign {\r... */\n  jump(tag_6)\n    /* \"#utility.yul\":7:150   */\ntag_8:\n    /* \"#utility.yul\":64:69   */\n  0x00\n    /* \"#utility.yul\":95:101   */\n  dup2\n    /* \"#utility.yul\":89:102   */\n  mload\n    /* \"#utility.yul\":80:102   */\n  swap1\n  pop\n    /* \"#utility.yul\":111:144   */\n  tag_10\n    /* \"#utility.yul\":138:143   */\n  dup2\n    /* \"#utility.yul\":111:144   */\n  tag_11\n  jump\t// in\ntag_10:\n    /* \"#utility.yul\":70:150   */\n  swap3\n  swap2\n  pop\n  pop\n  jump\t// out\n    /* \"#utility.yul\":156:299   */\ntag_12:\n    /* \"#utility.yul\":213:218   */\n  0x00\n    /* \"#utility.yul\":244:250   */\n  dup2\n    /* \"#utility.yul\":238:251   */\n  mload\n    /* \"#utility.yul\":229:251   */\n  swap1\n  pop\n    /* \"#utility.yul\":260:293   */\n  tag_14\n    /* \"#utility.yul\":287:292   */\n  dup2\n    /* \"#utility.yul\":260:293   */\n  tag_15\n  jump\t// in\ntag_14:\n    /* \"#utility.yul\":219:299   */\n  swap3\n  swap2\n  pop\n  pop\n  jump\t// out\n    /* \"#utility.yul\":305:812   */\ntag_3:\n    /* \"#utility.yul\":384:390   */\n  0x00\n    /* \"#utility.yul\":392:398   */\n  dup1\n    /* \"#utility.yul\":441:443   */\n  0x40\n    /* \"#utility.yul\":429:438   */\n  dup4\n    /* \"#utility.yul\":420:427   */\n  dup6\n    /* \"#utility.yul\":416:439   */\n  sub\n    /* \"#utility.yul\":412:444   */\n  slt\n    /* \"#utility.yul\":409:411   */\n  iszero\n  tag_17\n  jumpi\n    /* \"#utility.yul\":447:526   */\n  tag_18\n  tag_19\n  jump\t// in\ntag_18:\n    /* \"#utility.yul\":409:411   */\ntag_17:\n    /* \"#utility.yul\":567:568   */\n  0x00\n    /* \"#utility.yul\":592:656   */\n  tag_20\n    /* \"#utility.yul\":648:655   */\n  dup6\n    /* \"#utility.yul\":639:645   */\n  dup3\n    /* \"#utility.yul\":628:637   */\n  dup7\n    /* \"#utility.yul\":624:646   */\n  add\n    /* \"#utility.yul\":592:656   */\n  tag_12\n  jump\t// in\ntag_20:\n    /* \"#utility.yul\":582:656   */\n  swap3\n  pop\n    /* \"#utility.yul\":538:666   */\n  pop\n    /* \"#utility.yul\":705:707   */\n  0x20\n    /* \"#utility.yul\":731:795   */\n  tag_21\n    /* \"#utility.yul\":787:794   */\n  dup6\n    /* \"#utility.yul\":778:784   */\n  dup3\n    /* \"#utility.yul\":767:776   */\n  dup7\n    /* \"#utility.yul\":763:785   */\n  add\n    /* \"#utility.yul\":731:795   */\n  tag_8\n  jump\t// in\ntag_21:\n    /* \"#utility.yul\":721:795   */\n  swap2\n  pop\n    /* \"#utility.yul\":676:805   */\n  pop\n    /* \"#utility.yul\":399:812   */\n  swap3\n  pop\n  swap3\n  swap1\n  pop\n  jump\t// out\n    /* \"#utility.yul\":899:995   */\ntag_24:\n    /* \"#utility.yul\":936:943   */\n  0x00\n    /* \"#utility.yul\":965:989   */\n  tag_26\n    /* \"#utility.yul\":983:988   */\n  dup3\n    /* \"#utility.yul\":965:989   */\n  tag_27\n  jump\t// in\ntag_26:\n    /* \"#utility.yul\":954:989   */\n  swap1\n  pop\n    /* \"#utility.yul\":944:995   */\n  swap2\n  swap1\n  pop\n  jump\t// out\n    /* \"#utility.yul\":1001:1127   */\ntag_27:\n    /* \"#utility.yul\":1038:1045   */\n  0x00\n    /* \"#utility.yul\":1078:1120   */\n  0xffffffffffffffffffffffffffffffffffffffff\n    /* \"#utility.yul\":1071:1076   */\n  dup3\n    /* \"#utility.yul\":1067:1121   */\n  and\n    /* \"#utility.yul\":1056:1121   */\n  swap1\n  pop\n    /* \"#utility.yul\":1046:1127   */\n  swap2\n  swap1\n  pop\n  jump\t// out\n    /* \"#utility.yul\":1133:1210   */\ntag_29:\n    /* \"#utility.yul\":1170:1177   */\n  0x00\n    /* \"#utility.yul\":1199:1204   */\n  dup2\n    /* \"#utility.yul\":1188:1204   */\n  swap1\n  pop\n    /* \"#utility.yul\":1178:1210   */\n  swap2\n  swap1\n  pop\n  jump\t// out\n    /* \"#utility.yul\":1339:1456   */\ntag_19:\n    /* \"#utility.yul\":1448:1449   */\n  0x00\n    /* \"#utility.yul\":1445:1446   */\n  dup1\n    /* \"#utility.yul\":1438:1450   */\n  revert\n    /* \"#utility.yul\":1462:1584   */\ntag_11:\n    /* \"#utility.yul\":1535:1559   */\n  tag_35\n    /* \"#utility.yul\":1553:1558   */\n  dup2\n    /* \"#utility.yul\":1535:1559   */\n  tag_24\n  jump\t// in\ntag_35:\n    /* \"#utility.yul\":1528:1533   */\n  dup2\n    /* \"#utility.yul\":1525:1560   */\n  eq\n    /* \"#utility.yul\":1515:1517   */\n  tag_36\n  jumpi\n    /* \"#utility.yul\":1574:1575   */\n  0x00\n    /* \"#utility.yul\":1571:1572   */\n  dup1\n    /* \"#utility.yul\":1564:1576   */\n  revert\n    /* \"#utility.yul\":1515:1517   */\ntag_36:\n    /* \"#utility.yul\":1505:1584   */\n  pop\n  jump\t// out\n    /* \"#utility.yul\":1590:1712   */\ntag_15:\n    /* \"#utility.yul\":1663:1687   */\n  tag_38\n    /* \"#utility.yul\":1681:1686   */\n  dup2\n    /* \"#utility.yul\":1663:1687   */\n  tag_29\n  jump\t// in\ntag_38:\n    /* \"#utility.yul\":1656:1661   */\n  dup2\n    /* \"#utility.yul\":1653:1688   */\n  eq\n    /* \"#utility.yul\":1643:1645   */\n  tag_39\n  jumpi\n    /* \"#utility.yul\":1702:1703   */\n  0x00\n    /* \"#utility.yul\":1699:1700   */\n  dup1\n    /* \"#utility.yul\":1692:1704   */\n  revert\n    /* \"#utility.yul\":1643:1645   */\ntag_39:\n    /* \"#utility.yul\":1633:1712   */\n  pop\n  jump\t// out\n    /* \"Campaign.sol\":442:2393  contract Campaign {\r... */\ntag_6:\n  dataSize(sub_0)\n  dup1\n  dataOffset(sub_0)\n  0x00\n  codecopy\n  0x00\n  return\nstop\n\nsub_0: assembly {\n        /* \"Campaign.sol\":442:2393  contract Campaign {\r... */\n      mstore(0x40, 0x80)\n      jumpi(tag_1, lt(calldatasize, 0x04))\n      shr(0xe0, calldataload(0x00))\n      dup1\n      0x81d12c58\n      gt\n      tag_11\n      jumpi\n      dup1\n      0x81d12c58\n      eq\n      tag_6\n      jumpi\n      dup1\n      0x82fde093\n      eq\n      tag_7\n      jumpi\n      dup1\n      0x8a9cfd55\n      eq\n      tag_8\n      jumpi\n      dup1\n      0xd7bb99ba\n      eq\n      tag_9\n      jumpi\n      dup1\n      0xd7d1bbdb\n      eq\n      tag_10\n      jumpi\n      jump(tag_1)\n    tag_11:\n      dup1\n      0x03441006\n      eq\n      tag_2\n      jumpi\n      dup1\n      0x0a144391\n      eq\n      tag_3\n      jumpi\n      dup1\n      0x481c6a75\n      eq\n      tag_4\n      jumpi\n      dup1\n      0x60553460\n      eq\n      tag_5\n      jumpi\n    tag_1:\n      0x00\n      dup1\n      revert\n        /* \"Campaign.sol\":2041:2390  function finalizeRequest(uint index) public payable restricted {\r... */\n    tag_2:\n      tag_12\n      0x04\n      dup1\n      calldatasize\n      sub\n      dup2\n      add\n      swap1\n      tag_13\n      swap2\n      swap1\n      tag_14\n      jump\t// in\n    tag_13:\n      tag_15\n      jump\t// in\n    tag_12:\n      stop\n        /* \"Campaign.sol\":872:913  mapping(address => bool) public approvers */\n    tag_3:\n      callvalue\n      dup1\n      iszero\n      tag_16\n      jumpi\n      0x00\n      dup1\n      revert\n    tag_16:\n      pop\n      tag_17\n      0x04\n      dup1\n      calldatasize\n      sub\n      dup2\n      add\n      swap1\n      tag_18\n      swap2\n      swap1\n      tag_19\n      jump\t// in\n    tag_18:\n      tag_20\n      jump\t// in\n    tag_17:\n      mload(0x40)\n      tag_21\n      swap2\n      swap1\n      tag_22\n      jump\t// in\n    tag_21:\n      mload(0x40)\n      dup1\n      swap2\n      sub\n      swap1\n      return\n        /* \"Campaign.sol\":804:826  address public manager */\n    tag_4:\n      callvalue\n      dup1\n      iszero\n      tag_23\n      jumpi\n      0x00\n      dup1\n      revert\n    tag_23:\n      pop\n      tag_24\n      tag_25\n      jump\t// in\n    tag_24:\n      mload(0x40)\n      tag_26\n      swap2\n      swap1\n      tag_27\n      jump\t// in\n    tag_26:\n      mload(0x40)\n      dup1\n      swap2\n      sub\n      swap1\n      return\n        /* \"Campaign.sol\":833:865  uint public minimumContritbution */\n    tag_5:\n      callvalue\n      dup1\n      iszero\n      tag_28\n      jumpi\n      0x00\n      dup1\n      revert\n    tag_28:\n      pop\n      tag_29\n      tag_30\n      jump\t// in\n    tag_29:\n      mload(0x40)\n      tag_31\n      swap2\n      swap1\n      tag_32\n      jump\t// in\n    tag_31:\n      mload(0x40)\n      dup1\n      swap2\n      sub\n      swap1\n      return\n        /* \"Campaign.sol\":751:791  mapping(uint => Request) public requests */\n    tag_6:\n      callvalue\n      dup1\n      iszero\n      tag_33\n      jumpi\n      0x00\n      dup1\n      revert\n    tag_33:\n      pop\n      tag_34\n      0x04\n      dup1\n      calldatasize\n      sub\n      dup2\n      add\n      swap1\n      tag_35\n      swap2\n      swap1\n      tag_14\n      jump\t// in\n    tag_35:\n      tag_36\n      jump\t// in\n    tag_34:\n      mload(0x40)\n      tag_37\n      swap6\n      swap5\n      swap4\n      swap3\n      swap2\n      swap1\n      tag_38\n      jump\t// in\n    tag_37:\n      mload(0x40)\n      dup1\n      swap2\n      sub\n      swap1\n      return\n        /* \"Campaign.sol\":920:950  uint public approversCount = 0 */\n    tag_7:\n      callvalue\n      dup1\n      iszero\n      tag_39\n      jumpi\n      0x00\n      dup1\n      revert\n    tag_39:\n      pop\n      tag_40\n      tag_41\n      jump\t// in\n    tag_40:\n      mload(0x40)\n      tag_42\n      swap2\n      swap1\n      tag_32\n      jump\t// in\n    tag_42:\n      mload(0x40)\n      dup1\n      swap2\n      sub\n      swap1\n      return\n        /* \"Campaign.sol\":1366:1714  function createRequest(string memory description, uint value, address payable recipient) public restricted {\r... */\n    tag_8:\n      callvalue\n      dup1\n      iszero\n      tag_43\n      jumpi\n      0x00\n      dup1\n      revert\n    tag_43:\n      pop\n      tag_44\n      0x04\n      dup1\n      calldatasize\n      sub\n      dup2\n      add\n      swap1\n      tag_45\n      swap2\n      swap1\n      tag_46\n      jump\t// in\n    tag_45:\n      tag_47\n      jump\t// in\n    tag_44:\n      stop\n        /* \"Campaign.sol\":1191:1354  function contribute() public payable {\r... */\n    tag_9:\n      tag_48\n      tag_49\n      jump\t// in\n    tag_48:\n      stop\n        /* \"Campaign.sol\":1726:2029  function approveRequest(uint index) public payable {\r... */\n    tag_10:\n      tag_50\n      0x04\n      dup1\n      calldatasize\n      sub\n      dup2\n      add\n      swap1\n      tag_51\n      swap2\n      swap1\n      tag_14\n      jump\t// in\n    tag_51:\n      tag_52\n      jump\t// in\n    tag_50:\n      stop\n        /* \"Campaign.sol\":2041:2390  function finalizeRequest(uint index) public payable restricted {\r... */\n    tag_15:\n        /* \"Campaign.sol\":1018:1025  manager */\n      0x02\n      0x00\n      swap1\n      sload\n      swap1\n      0x0100\n      exp\n      swap1\n      div\n      0xffffffffffffffffffffffffffffffffffffffff\n      and\n        /* \"Campaign.sol\":1004:1025  msg.sender == manager */\n      0xffffffffffffffffffffffffffffffffffffffff\n      and\n        /* \"Campaign.sol\":1004:1014  msg.sender */\n      caller\n        /* \"Campaign.sol\":1004:1025  msg.sender == manager */\n      0xffffffffffffffffffffffffffffffffffffffff\n      and\n      eq\n        /* \"Campaign.sol\":996:1026  require(msg.sender == manager) */\n      tag_54\n      jumpi\n      0x00\n      dup1\n      revert\n    tag_54:\n        /* \"Campaign.sol\":2115:2138  Request storage request */\n      0x00\n        /* \"Campaign.sol\":2141:2149  requests */\n      0x01\n        /* \"Campaign.sol\":2141:2156  requests[index] */\n      0x00\n        /* \"Campaign.sol\":2150:2155  index */\n      dup4\n        /* \"Campaign.sol\":2141:2156  requests[index] */\n      dup2\n      mstore\n      0x20\n      add\n      swap1\n      dup2\n      mstore\n      0x20\n      add\n      0x00\n      keccak256\n        /* \"Campaign.sol\":2115:2156  Request storage request = requests[index] */\n      swap1\n      pop\n        /* \"Campaign.sol\":2186:2193  request */\n      dup1\n        /* \"Campaign.sol\":2186:2202  request.complete */\n      0x02\n      add\n      0x14\n      swap1\n      sload\n      swap1\n      0x0100\n      exp\n      swap1\n      div\n      0xff\n      and\n        /* \"Campaign.sol\":2185:2202  !request.complete */\n      iszero\n        /* \"Campaign.sol\":2177:2203  require(!request.complete) */\n      tag_56\n      jumpi\n      0x00\n      dup1\n      revert\n    tag_56:\n        /* \"Campaign.sol\":2272:2273  2 */\n      0x02\n        /* \"Campaign.sol\":2257:2271  approversCount */\n      sload(0x05)\n        /* \"Campaign.sol\":2257:2273  approversCount/2 */\n      tag_57\n      swap2\n      swap1\n      tag_58\n      jump\t// in\n    tag_57:\n        /* \"Campaign.sol\":2232:2239  request */\n      dup2\n        /* \"Campaign.sol\":2232:2253  request.approvalCount */\n      0x03\n      add\n      sload\n        /* \"Campaign.sol\":2232:2274  request.approvalCount > (approversCount/2) */\n      gt\n        /* \"Campaign.sol\":2224:2276  require(request.approvalCount > (approversCount/2) ) */\n      tag_59\n      jumpi\n      0x00\n      dup1\n      revert\n    tag_59:\n        /* \"Campaign.sol\":2297:2304  request */\n      dup1\n        /* \"Campaign.sol\":2297:2314  request.recipient */\n      0x02\n      add\n      0x00\n      swap1\n      sload\n      swap1\n      0x0100\n      exp\n      swap1\n      div\n      0xffffffffffffffffffffffffffffffffffffffff\n      and\n        /* \"Campaign.sol\":2297:2323  request.recipient.transfer */\n      0xffffffffffffffffffffffffffffffffffffffff\n      and\n        /* \"Campaign.sol\":2297:2338  request.recipient.transfer(request.value) */\n      0x08fc\n        /* \"Campaign.sol\":2324:2331  request */\n      dup3\n        /* \"Campaign.sol\":2324:2337  request.value */\n      0x01\n      add\n      sload\n        /* \"Campaign.sol\":2297:2338  request.recipient.transfer(request.value) */\n      swap1\n      dup2\n      iszero\n      mul\n      swap1\n      mload(0x40)\n      0x00\n      mload(0x40)\n      dup1\n      dup4\n      sub\n      dup2\n      dup6\n      dup9\n      dup9\n      call\n      swap4\n      pop\n      pop\n      pop\n      pop\n      iszero\n      dup1\n      iszero\n      tag_61\n      jumpi\n      returndatasize\n      0x00\n      dup1\n      returndatacopy\n      revert(0x00, returndatasize)\n    tag_61:\n      pop\n        /* \"Campaign.sol\":2378:2382  true */\n      0x01\n        /* \"Campaign.sol\":2359:2366  request */\n      dup2\n        /* \"Campaign.sol\":2359:2375  request.complete */\n      0x02\n      add\n      0x14\n        /* \"Campaign.sol\":2359:2382  request.complete = true */\n      0x0100\n      exp\n      dup2\n      sload\n      dup2\n      0xff\n      mul\n      not\n      and\n      swap1\n      dup4\n      iszero\n      iszero\n      mul\n      or\n      swap1\n      sstore\n      pop\n        /* \"Campaign.sol\":2104:2390  {\r... */\n      pop\n        /* \"Campaign.sol\":2041:2390  function finalizeRequest(uint index) public payable restricted {\r... */\n      pop\n      jump\t// out\n        /* \"Campaign.sol\":872:913  mapping(address => bool) public approvers */\n    tag_20:\n      mstore(0x20, 0x04)\n      dup1\n      0x00\n      mstore\n      keccak256(0x00, 0x40)\n      0x00\n      swap2\n      pop\n      sload\n      swap1\n      0x0100\n      exp\n      swap1\n      div\n      0xff\n      and\n      dup2\n      jump\t// out\n        /* \"Campaign.sol\":804:826  address public manager */\n    tag_25:\n      0x02\n      0x00\n      swap1\n      sload\n      swap1\n      0x0100\n      exp\n      swap1\n      div\n      0xffffffffffffffffffffffffffffffffffffffff\n      and\n      dup2\n      jump\t// out\n        /* \"Campaign.sol\":833:865  uint public minimumContritbution */\n    tag_30:\n      sload(0x03)\n      dup2\n      jump\t// out\n        /* \"Campaign.sol\":751:791  mapping(uint => Request) public requests */\n    tag_36:\n      mstore(0x20, 0x01)\n      dup1\n      0x00\n      mstore\n      keccak256(0x00, 0x40)\n      0x00\n      swap2\n      pop\n      swap1\n      pop\n      dup1\n      0x00\n      add\n      dup1\n      sload\n      tag_62\n      swap1\n      tag_63\n      jump\t// in\n    tag_62:\n      dup1\n      0x1f\n      add\n      0x20\n      dup1\n      swap2\n      div\n      mul\n      0x20\n      add\n      mload(0x40)\n      swap1\n      dup2\n      add\n      0x40\n      mstore\n      dup1\n      swap3\n      swap2\n      swap1\n      dup2\n      dup2\n      mstore\n      0x20\n      add\n      dup3\n      dup1\n      sload\n      tag_64\n      swap1\n      tag_63\n      jump\t// in\n    tag_64:\n      dup1\n      iszero\n      tag_65\n      jumpi\n      dup1\n      0x1f\n      lt\n      tag_66\n      jumpi\n      0x0100\n      dup1\n      dup4\n      sload\n      div\n      mul\n      dup4\n      mstore\n      swap2\n      0x20\n      add\n      swap2\n      jump(tag_65)\n    tag_66:\n      dup3\n      add\n      swap2\n      swap1\n      0x00\n      mstore\n      keccak256(0x00, 0x20)\n      swap1\n    tag_67:\n      dup2\n      sload\n      dup2\n      mstore\n      swap1\n      0x01\n      add\n      swap1\n      0x20\n      add\n      dup1\n      dup4\n      gt\n      tag_67\n      jumpi\n      dup3\n      swap1\n      sub\n      0x1f\n      and\n      dup3\n      add\n      swap2\n    tag_65:\n      pop\n      pop\n      pop\n      pop\n      pop\n      swap1\n      dup1\n      0x01\n      add\n      sload\n      swap1\n      dup1\n      0x02\n      add\n      0x00\n      swap1\n      sload\n      swap1\n      0x0100\n      exp\n      swap1\n      div\n      0xffffffffffffffffffffffffffffffffffffffff\n      and\n      swap1\n      dup1\n      0x02\n      add\n      0x14\n      swap1\n      sload\n      swap1\n      0x0100\n      exp\n      swap1\n      div\n      0xff\n      and\n      swap1\n      dup1\n      0x03\n      add\n      sload\n      swap1\n      pop\n      dup6\n      jump\t// out\n        /* \"Campaign.sol\":920:950  uint public approversCount = 0 */\n    tag_41:\n      sload(0x05)\n      dup2\n      jump\t// out\n        /* \"Campaign.sol\":1366:1714  function createRequest(string memory description, uint value, address payable recipient) public restricted {\r... */\n    tag_47:\n        /* \"Campaign.sol\":1018:1025  manager */\n      0x02\n      0x00\n      swap1\n      sload\n      swap1\n      0x0100\n      exp\n      swap1\n      div\n      0xffffffffffffffffffffffffffffffffffffffff\n      and\n        /* \"Campaign.sol\":1004:1025  msg.sender == manager */\n      0xffffffffffffffffffffffffffffffffffffffff\n      and\n        /* \"Campaign.sol\":1004:1014  msg.sender */\n      caller\n        /* \"Campaign.sol\":1004:1025  msg.sender == manager */\n      0xffffffffffffffffffffffffffffffffffffffff\n      and\n      eq\n        /* \"Campaign.sol\":996:1026  require(msg.sender == manager) */\n      tag_69\n      jumpi\n      0x00\n      dup1\n      revert\n    tag_69:\n        /* \"Campaign.sol\":1484:1501  Request storage r */\n      0x00\n        /* \"Campaign.sol\":1504:1512  requests */\n      0x01\n        /* \"Campaign.sol\":1504:1525  requests[numRequests] */\n      0x00\n        /* \"Campaign.sol\":1513:1524  numRequests */\n      dup1\n      sload\n        /* \"Campaign.sol\":1504:1525  requests[numRequests] */\n      dup2\n      mstore\n      0x20\n      add\n      swap1\n      dup2\n      mstore\n      0x20\n      add\n      0x00\n      keccak256\n        /* \"Campaign.sol\":1484:1525  Request storage r = requests[numRequests] */\n      swap1\n      pop\n        /* \"Campaign.sol\":1552:1563  description */\n      dup4\n        /* \"Campaign.sol\":1536:1537  r */\n      dup2\n        /* \"Campaign.sol\":1536:1549  r.description */\n      0x00\n      add\n        /* \"Campaign.sol\":1536:1563  r.description = description */\n      swap1\n      dup1\n      mload\n      swap1\n      0x20\n      add\n      swap1\n      tag_71\n      swap3\n      swap2\n      swap1\n      tag_72\n      jump\t// in\n    tag_71:\n      pop\n        /* \"Campaign.sol\":1584:1589  value */\n      dup3\n        /* \"Campaign.sol\":1574:1575  r */\n      dup2\n        /* \"Campaign.sol\":1574:1581  r.value */\n      0x01\n      add\n        /* \"Campaign.sol\":1574:1589  r.value = value */\n      dup2\n      swap1\n      sstore\n      pop\n        /* \"Campaign.sol\":1614:1623  recipient */\n      dup2\n        /* \"Campaign.sol\":1600:1601  r */\n      dup2\n        /* \"Campaign.sol\":1600:1611  r.recipient */\n      0x02\n      add\n      0x00\n        /* \"Campaign.sol\":1600:1623  r.recipient = recipient */\n      0x0100\n      exp\n      dup2\n      sload\n      dup2\n      0xffffffffffffffffffffffffffffffffffffffff\n      mul\n      not\n      and\n      swap1\n      dup4\n      0xffffffffffffffffffffffffffffffffffffffff\n      and\n      mul\n      or\n      swap1\n      sstore\n      pop\n        /* \"Campaign.sol\":1647:1652  false */\n      0x00\n        /* \"Campaign.sol\":1634:1635  r */\n      dup2\n        /* \"Campaign.sol\":1634:1644  r.complete */\n      0x02\n      add\n      0x14\n        /* \"Campaign.sol\":1634:1652  r.complete = false */\n      0x0100\n      exp\n      dup2\n      sload\n      dup2\n      0xff\n      mul\n      not\n      and\n      swap1\n      dup4\n      iszero\n      iszero\n      mul\n      or\n      swap1\n      sstore\n      pop\n        /* \"Campaign.sol\":1681:1682  0 */\n      0x00\n        /* \"Campaign.sol\":1663:1664  r */\n      dup2\n        /* \"Campaign.sol\":1663:1678  r.approvalCount */\n      0x03\n      add\n        /* \"Campaign.sol\":1663:1682  r.approvalCount = 0 */\n      dup2\n      swap1\n      sstore\n      pop\n        /* \"Campaign.sol\":1693:1704  numRequests */\n      0x00\n      dup1\n        /* \"Campaign.sol\":1693:1706  numRequests++ */\n      dup2\n      sload\n      dup1\n      swap3\n      swap2\n      swap1\n      tag_73\n      swap1\n      tag_74\n      jump\t// in\n    tag_73:\n      swap2\n      swap1\n      pop\n      sstore\n      pop\n        /* \"Campaign.sol\":1473:1714  {\r... */\n      pop\n        /* \"Campaign.sol\":1366:1714  function createRequest(string memory description, uint value, address payable recipient) public restricted {\r... */\n      pop\n      pop\n      pop\n      jump\t// out\n        /* \"Campaign.sol\":1191:1354  function contribute() public payable {\r... */\n    tag_49:\n        /* \"Campaign.sol\":1259:1279  minimumContritbution */\n      sload(0x03)\n        /* \"Campaign.sol\":1247:1256  msg.value */\n      callvalue\n        /* \"Campaign.sol\":1247:1279  msg.value > minimumContritbution */\n      gt\n        /* \"Campaign.sol\":1239:1280  require(msg.value > minimumContritbution) */\n      tag_76\n      jumpi\n      0x00\n      dup1\n      revert\n    tag_76:\n        /* \"Campaign.sol\":1315:1319  true */\n      0x01\n        /* \"Campaign.sol\":1291:1300  approvers */\n      0x04\n        /* \"Campaign.sol\":1291:1312  approvers[msg.sender] */\n      0x00\n        /* \"Campaign.sol\":1301:1311  msg.sender */\n      caller\n        /* \"Campaign.sol\":1291:1312  approvers[msg.sender] */\n      0xffffffffffffffffffffffffffffffffffffffff\n      and\n      0xffffffffffffffffffffffffffffffffffffffff\n      and\n      dup2\n      mstore\n      0x20\n      add\n      swap1\n      dup2\n      mstore\n      0x20\n      add\n      0x00\n      keccak256\n      0x00\n        /* \"Campaign.sol\":1291:1319  approvers[msg.sender] = true */\n      0x0100\n      exp\n      dup2\n      sload\n      dup2\n      0xff\n      mul\n      not\n      and\n      swap1\n      dup4\n      iszero\n      iszero\n      mul\n      or\n      swap1\n      sstore\n      pop\n        /* \"Campaign.sol\":1330:1344  approversCount */\n      0x05\n      0x00\n        /* \"Campaign.sol\":1330:1346  approversCount++ */\n      dup2\n      sload\n      dup1\n      swap3\n      swap2\n      swap1\n      tag_77\n      swap1\n      tag_74\n      jump\t// in\n    tag_77:\n      swap2\n      swap1\n      pop\n      sstore\n      pop\n        /* \"Campaign.sol\":1191:1354  function contribute() public payable {\r... */\n      jump\t// out\n        /* \"Campaign.sol\":1726:2029  function approveRequest(uint index) public payable {\r... */\n    tag_52:\n        /* \"Campaign.sol\":1788:1811  Request storage request */\n      0x00\n        /* \"Campaign.sol\":1814:1822  requests */\n      0x01\n        /* \"Campaign.sol\":1814:1829  requests[index] */\n      0x00\n        /* \"Campaign.sol\":1823:1828  index */\n      dup4\n        /* \"Campaign.sol\":1814:1829  requests[index] */\n      dup2\n      mstore\n      0x20\n      add\n      swap1\n      dup2\n      mstore\n      0x20\n      add\n      0x00\n      keccak256\n        /* \"Campaign.sol\":1788:1829  Request storage request = requests[index] */\n      swap1\n      pop\n        /* \"Campaign.sol\":1858:1867  approvers */\n      0x04\n        /* \"Campaign.sol\":1858:1879  approvers[msg.sender] */\n      0x00\n        /* \"Campaign.sol\":1868:1878  msg.sender */\n      caller\n        /* \"Campaign.sol\":1858:1879  approvers[msg.sender] */\n      0xffffffffffffffffffffffffffffffffffffffff\n      and\n      0xffffffffffffffffffffffffffffffffffffffff\n      and\n      dup2\n      mstore\n      0x20\n      add\n      swap1\n      dup2\n      mstore\n      0x20\n      add\n      0x00\n      keccak256\n      0x00\n      swap1\n      sload\n      swap1\n      0x0100\n      exp\n      swap1\n      div\n      0xff\n      and\n        /* \"Campaign.sol\":1850:1880  require(approvers[msg.sender]) */\n      tag_79\n      jumpi\n      0x00\n      dup1\n      revert\n    tag_79:\n        /* \"Campaign.sol\":1900:1907  request */\n      dup1\n        /* \"Campaign.sol\":1900:1917  request.approvals */\n      0x04\n      add\n        /* \"Campaign.sol\":1900:1929  request.approvals[msg.sender] */\n      0x00\n        /* \"Campaign.sol\":1918:1928  msg.sender */\n      caller\n        /* \"Campaign.sol\":1900:1929  request.approvals[msg.sender] */\n      0xffffffffffffffffffffffffffffffffffffffff\n      and\n      0xffffffffffffffffffffffffffffffffffffffff\n      and\n      dup2\n      mstore\n      0x20\n      add\n      swap1\n      dup2\n      mstore\n      0x20\n      add\n      0x00\n      keccak256\n      0x00\n      swap1\n      sload\n      swap1\n      0x0100\n      exp\n      swap1\n      div\n      0xff\n      and\n        /* \"Campaign.sol\":1899:1929  !request.approvals[msg.sender] */\n      iszero\n        /* \"Campaign.sol\":1891:1930  require(!request.approvals[msg.sender]) */\n      tag_80\n      jumpi\n      0x00\n      dup1\n      revert\n    tag_80:\n        /* \"Campaign.sol\":1983:1987  true */\n      0x01\n        /* \"Campaign.sol\":1951:1958  request */\n      dup2\n        /* \"Campaign.sol\":1951:1968  request.approvals */\n      0x04\n      add\n        /* \"Campaign.sol\":1951:1980  request.approvals[msg.sender] */\n      0x00\n        /* \"Campaign.sol\":1969:1979  msg.sender */\n      caller\n        /* \"Campaign.sol\":1951:1980  request.approvals[msg.sender] */\n      0xffffffffffffffffffffffffffffffffffffffff\n      and\n      0xffffffffffffffffffffffffffffffffffffffff\n      and\n      dup2\n      mstore\n      0x20\n      add\n      swap1\n      dup2\n      mstore\n      0x20\n      add\n      0x00\n      keccak256\n      0x00\n        /* \"Campaign.sol\":1951:1987  request.approvals[msg.sender] = true */\n      0x0100\n      exp\n      dup2\n      sload\n      dup2\n      0xff\n      mul\n      not\n      and\n      swap1\n      dup4\n      iszero\n      iszero\n      mul\n      or\n      swap1\n      sstore\n      pop\n        /* \"Campaign.sol\":1998:2005  request */\n      dup1\n        /* \"Campaign.sol\":1998:2019  request.approvalCount */\n      0x03\n      add\n      0x00\n        /* \"Campaign.sol\":1998:2021  request.approvalCount++ */\n      dup2\n      sload\n      dup1\n      swap3\n      swap2\n      swap1\n      tag_81\n      swap1\n      tag_74\n      jump\t// in\n    tag_81:\n      swap2\n      swap1\n      pop\n      sstore\n      pop\n        /* \"Campaign.sol\":1777:2029  {\r... */\n      pop\n        /* \"Campaign.sol\":1726:2029  function approveRequest(uint index) public payable {\r... */\n      pop\n      jump\t// out\n    tag_72:\n      dup3\n      dup1\n      sload\n      tag_82\n      swap1\n      tag_63\n      jump\t// in\n    tag_82:\n      swap1\n      0x00\n      mstore\n      keccak256(0x00, 0x20)\n      swap1\n      0x1f\n      add\n      0x20\n      swap1\n      div\n      dup2\n      add\n      swap3\n      dup3\n      tag_84\n      jumpi\n      0x00\n      dup6\n      sstore\n      jump(tag_83)\n    tag_84:\n      dup3\n      0x1f\n      lt\n      tag_85\n      jumpi\n      dup1\n      mload\n      not(0xff)\n      and\n      dup4\n      dup1\n      add\n      or\n      dup6\n      sstore\n      jump(tag_83)\n    tag_85:\n      dup3\n      dup1\n      add\n      0x01\n      add\n      dup6\n      sstore\n      dup3\n      iszero\n      tag_83\n      jumpi\n      swap2\n      dup3\n      add\n    tag_86:\n      dup3\n      dup2\n      gt\n      iszero\n      tag_87\n      jumpi\n      dup3\n      mload\n      dup3\n      sstore\n      swap2\n      0x20\n      add\n      swap2\n      swap1\n      0x01\n      add\n      swap1\n      jump(tag_86)\n    tag_87:\n    tag_83:\n      pop\n      swap1\n      pop\n      tag_88\n      swap2\n      swap1\n      tag_89\n      jump\t// in\n    tag_88:\n      pop\n      swap1\n      jump\t// out\n    tag_89:\n    tag_90:\n      dup1\n      dup3\n      gt\n      iszero\n      tag_91\n      jumpi\n      0x00\n      dup2\n      0x00\n      swap1\n      sstore\n      pop\n      0x01\n      add\n      jump(tag_90)\n    tag_91:\n      pop\n      swap1\n      jump\t// out\n        /* \"#utility.yul\":7:419   */\n    tag_93:\n        /* \"#utility.yul\":85:90   */\n      0x00\n        /* \"#utility.yul\":110:176   */\n      tag_95\n        /* \"#utility.yul\":126:175   */\n      tag_96\n        /* \"#utility.yul\":168:174   */\n      dup5\n        /* \"#utility.yul\":126:175   */\n      tag_97\n      jump\t// in\n    tag_96:\n        /* \"#utility.yul\":110:176   */\n      tag_98\n      jump\t// in\n    tag_95:\n        /* \"#utility.yul\":101:176   */\n      swap1\n      pop\n        /* \"#utility.yul\":199:205   */\n      dup3\n        /* \"#utility.yul\":192:197   */\n      dup2\n        /* \"#utility.yul\":185:206   */\n      mstore\n        /* \"#utility.yul\":237:241   */\n      0x20\n        /* \"#utility.yul\":230:235   */\n      dup2\n        /* \"#utility.yul\":226:242   */\n      add\n        /* \"#utility.yul\":275:278   */\n      dup5\n        /* \"#utility.yul\":266:272   */\n      dup5\n        /* \"#utility.yul\":261:264   */\n      dup5\n        /* \"#utility.yul\":257:273   */\n      add\n        /* \"#utility.yul\":254:279   */\n      gt\n        /* \"#utility.yul\":251:253   */\n      iszero\n      tag_99\n      jumpi\n        /* \"#utility.yul\":282:361   */\n      tag_100\n      tag_101\n      jump\t// in\n    tag_100:\n        /* \"#utility.yul\":251:253   */\n    tag_99:\n        /* \"#utility.yul\":372:413   */\n      tag_102\n        /* \"#utility.yul\":406:412   */\n      dup5\n        /* \"#utility.yul\":401:404   */\n      dup3\n        /* \"#utility.yul\":396:399   */\n      dup6\n        /* \"#utility.yul\":372:413   */\n      tag_103\n      jump\t// in\n    tag_102:\n        /* \"#utility.yul\":91:419   */\n      pop\n      swap4\n      swap3\n      pop\n      pop\n      pop\n      jump\t// out\n        /* \"#utility.yul\":425:564   */\n    tag_104:\n        /* \"#utility.yul\":471:476   */\n      0x00\n        /* \"#utility.yul\":509:515   */\n      dup2\n        /* \"#utility.yul\":496:516   */\n      calldataload\n        /* \"#utility.yul\":487:516   */\n      swap1\n      pop\n        /* \"#utility.yul\":525:558   */\n      tag_106\n        /* \"#utility.yul\":552:557   */\n      dup2\n        /* \"#utility.yul\":525:558   */\n      tag_107\n      jump\t// in\n    tag_106:\n        /* \"#utility.yul\":477:564   */\n      swap3\n      swap2\n      pop\n      pop\n      jump\t// out\n        /* \"#utility.yul\":570:725   */\n    tag_108:\n        /* \"#utility.yul\":624:629   */\n      0x00\n        /* \"#utility.yul\":662:668   */\n      dup2\n        /* \"#utility.yul\":649:669   */\n      calldataload\n        /* \"#utility.yul\":640:669   */\n      swap1\n      pop\n        /* \"#utility.yul\":678:719   */\n      tag_110\n        /* \"#utility.yul\":713:718   */\n      dup2\n        /* \"#utility.yul\":678:719   */\n      tag_111\n      jump\t// in\n    tag_110:\n        /* \"#utility.yul\":630:725   */\n      swap3\n      swap2\n      pop\n      pop\n      jump\t// out\n        /* \"#utility.yul\":745:1085   */\n    tag_112:\n        /* \"#utility.yul\":801:806   */\n      0x00\n        /* \"#utility.yul\":850:853   */\n      dup3\n        /* \"#utility.yul\":843:847   */\n      0x1f\n        /* \"#utility.yul\":835:841   */\n      dup4\n        /* \"#utility.yul\":831:848   */\n      add\n        /* \"#utility.yul\":827:854   */\n      slt\n        /* \"#utility.yul\":817:819   */\n      tag_114\n      jumpi\n        /* \"#utility.yul\":858:937   */\n      tag_115\n      tag_116\n      jump\t// in\n    tag_115:\n        /* \"#utility.yul\":817:819   */\n    tag_114:\n        /* \"#utility.yul\":975:981   */\n      dup2\n        /* \"#utility.yul\":962:982   */\n      calldataload\n        /* \"#utility.yul\":1000:1079   */\n      tag_117\n        /* \"#utility.yul\":1075:1078   */\n      dup5\n        /* \"#utility.yul\":1067:1073   */\n      dup3\n        /* \"#utility.yul\":1060:1064   */\n      0x20\n        /* \"#utility.yul\":1052:1058   */\n      dup7\n        /* \"#utility.yul\":1048:1065   */\n      add\n        /* \"#utility.yul\":1000:1079   */\n      tag_93\n      jump\t// in\n    tag_117:\n        /* \"#utility.yul\":991:1079   */\n      swap2\n      pop\n        /* \"#utility.yul\":807:1085   */\n      pop\n      swap3\n      swap2\n      pop\n      pop\n      jump\t// out\n        /* \"#utility.yul\":1091:1230   */\n    tag_118:\n        /* \"#utility.yul\":1137:1142   */\n      0x00\n        /* \"#utility.yul\":1175:1181   */\n      dup2\n        /* \"#utility.yul\":1162:1182   */\n      calldataload\n        /* \"#utility.yul\":1153:1182   */\n      swap1\n      pop\n        /* \"#utility.yul\":1191:1224   */\n      tag_120\n        /* \"#utility.yul\":1218:1223   */\n      dup2\n        /* \"#utility.yul\":1191:1224   */\n      tag_121\n      jump\t// in\n    tag_120:\n        /* \"#utility.yul\":1143:1230   */\n      swap3\n      swap2\n      pop\n      pop\n      jump\t// out\n        /* \"#utility.yul\":1236:1565   */\n    tag_19:\n        /* \"#utility.yul\":1295:1301   */\n      0x00\n        /* \"#utility.yul\":1344:1346   */\n      0x20\n        /* \"#utility.yul\":1332:1341   */\n      dup3\n        /* \"#utility.yul\":1323:1330   */\n      dup5\n        /* \"#utility.yul\":1319:1342   */\n      sub\n        /* \"#utility.yul\":1315:1347   */\n      slt\n        /* \"#utility.yul\":1312:1314   */\n      iszero\n      tag_123\n      jumpi\n        /* \"#utility.yul\":1350:1429   */\n      tag_124\n      tag_125\n      jump\t// in\n    tag_124:\n        /* \"#utility.yul\":1312:1314   */\n    tag_123:\n        /* \"#utility.yul\":1470:1471   */\n      0x00\n        /* \"#utility.yul\":1495:1548   */\n      tag_126\n        /* \"#utility.yul\":1540:1547   */\n      dup5\n        /* \"#utility.yul\":1531:1537   */\n      dup3\n        /* \"#utility.yul\":1520:1529   */\n      dup6\n        /* \"#utility.yul\":1516:1538   */\n      add\n        /* \"#utility.yul\":1495:1548   */\n      tag_104\n      jump\t// in\n    tag_126:\n        /* \"#utility.yul\":1485:1548   */\n      swap2\n      pop\n        /* \"#utility.yul\":1441:1558   */\n      pop\n        /* \"#utility.yul\":1302:1565   */\n      swap3\n      swap2\n      pop\n      pop\n      jump\t// out\n        /* \"#utility.yul\":1571:2386   */\n    tag_46:\n        /* \"#utility.yul\":1666:1672   */\n      0x00\n        /* \"#utility.yul\":1674:1680   */\n      dup1\n        /* \"#utility.yul\":1682:1688   */\n      0x00\n        /* \"#utility.yul\":1731:1733   */\n      0x60\n        /* \"#utility.yul\":1719:1728   */\n      dup5\n        /* \"#utility.yul\":1710:1717   */\n      dup7\n        /* \"#utility.yul\":1706:1729   */\n      sub\n        /* \"#utility.yul\":1702:1734   */\n      slt\n        /* \"#utility.yul\":1699:1701   */\n      iszero\n      tag_128\n      jumpi\n        /* \"#utility.yul\":1737:1816   */\n      tag_129\n      tag_125\n      jump\t// in\n    tag_129:\n        /* \"#utility.yul\":1699:1701   */\n    tag_128:\n        /* \"#utility.yul\":1885:1886   */\n      0x00\n        /* \"#utility.yul\":1874:1883   */\n      dup5\n        /* \"#utility.yul\":1870:1887   */\n      add\n        /* \"#utility.yul\":1857:1888   */\n      calldataload\n        /* \"#utility.yul\":1915:1933   */\n      0xffffffffffffffff\n        /* \"#utility.yul\":1907:1913   */\n      dup2\n        /* \"#utility.yul\":1904:1934   */\n      gt\n        /* \"#utility.yul\":1901:1903   */\n      iszero\n      tag_130\n      jumpi\n        /* \"#utility.yul\":1937:2016   */\n      tag_131\n      tag_132\n      jump\t// in\n    tag_131:\n        /* \"#utility.yul\":1901:1903   */\n    tag_130:\n        /* \"#utility.yul\":2042:2105   */\n      tag_133\n        /* \"#utility.yul\":2097:2104   */\n      dup7\n        /* \"#utility.yul\":2088:2094   */\n      dup3\n        /* \"#utility.yul\":2077:2086   */\n      dup8\n        /* \"#utility.yul\":2073:2095   */\n      add\n        /* \"#utility.yul\":2042:2105   */\n      tag_112\n      jump\t// in\n    tag_133:\n        /* \"#utility.yul\":2032:2105   */\n      swap4\n      pop\n        /* \"#utility.yul\":1828:2115   */\n      pop\n        /* \"#utility.yul\":2154:2156   */\n      0x20\n        /* \"#utility.yul\":2180:2233   */\n      tag_134\n        /* \"#utility.yul\":2225:2232   */\n      dup7\n        /* \"#utility.yul\":2216:2222   */\n      dup3\n        /* \"#utility.yul\":2205:2214   */\n      dup8\n        /* \"#utility.yul\":2201:2223   */\n      add\n        /* \"#utility.yul\":2180:2233   */\n      tag_118\n      jump\t// in\n    tag_134:\n        /* \"#utility.yul\":2170:2233   */\n      swap3\n      pop\n        /* \"#utility.yul\":2125:2243   */\n      pop\n        /* \"#utility.yul\":2282:2284   */\n      0x40\n        /* \"#utility.yul\":2308:2369   */\n      tag_135\n        /* \"#utility.yul\":2361:2368   */\n      dup7\n        /* \"#utility.yul\":2352:2358   */\n      dup3\n        /* \"#utility.yul\":2341:2350   */\n      dup8\n        /* \"#utility.yul\":2337:2359   */\n      add\n        /* \"#utility.yul\":2308:2369   */\n      tag_108\n      jump\t// in\n    tag_135:\n        /* \"#utility.yul\":2298:2369   */\n      swap2\n      pop\n        /* \"#utility.yul\":2253:2379   */\n      pop\n        /* \"#utility.yul\":1689:2386   */\n      swap3\n      pop\n      swap3\n      pop\n      swap3\n      jump\t// out\n        /* \"#utility.yul\":2392:2721   */\n    tag_14:\n        /* \"#utility.yul\":2451:2457   */\n      0x00\n        /* \"#utility.yul\":2500:2502   */\n      0x20\n        /* \"#utility.yul\":2488:2497   */\n      dup3\n        /* \"#utility.yul\":2479:2486   */\n      dup5\n        /* \"#utility.yul\":2475:2498   */\n      sub\n        /* \"#utility.yul\":2471:2503   */\n      slt\n        /* \"#utility.yul\":2468:2470   */\n      iszero\n      tag_137\n      jumpi\n        /* \"#utility.yul\":2506:2585   */\n      tag_138\n      tag_125\n      jump\t// in\n    tag_138:\n        /* \"#utility.yul\":2468:2470   */\n    tag_137:\n        /* \"#utility.yul\":2626:2627   */\n      0x00\n        /* \"#utility.yul\":2651:2704   */\n      tag_139\n        /* \"#utility.yul\":2696:2703   */\n      dup5\n        /* \"#utility.yul\":2687:2693   */\n      dup3\n        /* \"#utility.yul\":2676:2685   */\n      dup6\n        /* \"#utility.yul\":2672:2694   */\n      add\n        /* \"#utility.yul\":2651:2704   */\n      tag_118\n      jump\t// in\n    tag_139:\n        /* \"#utility.yul\":2641:2704   */\n      swap2\n      pop\n        /* \"#utility.yul\":2597:2714   */\n      pop\n        /* \"#utility.yul\":2458:2721   */\n      swap3\n      swap2\n      pop\n      pop\n      jump\t// out\n        /* \"#utility.yul\":2727:2869   */\n    tag_140:\n        /* \"#utility.yul\":2830:2862   */\n      tag_142\n        /* \"#utility.yul\":2856:2861   */\n      dup2\n        /* \"#utility.yul\":2830:2862   */\n      tag_143\n      jump\t// in\n    tag_142:\n        /* \"#utility.yul\":2825:2828   */\n      dup3\n        /* \"#utility.yul\":2818:2863   */\n      mstore\n        /* \"#utility.yul\":2808:2869   */\n      pop\n      pop\n      jump\t// out\n        /* \"#utility.yul\":2875:2993   */\n    tag_144:\n        /* \"#utility.yul\":2962:2986   */\n      tag_146\n        /* \"#utility.yul\":2980:2985   */\n      dup2\n        /* \"#utility.yul\":2962:2986   */\n      tag_147\n      jump\t// in\n    tag_146:\n        /* \"#utility.yul\":2957:2960   */\n      dup3\n        /* \"#utility.yul\":2950:2987   */\n      mstore\n        /* \"#utility.yul\":2940:2993   */\n      pop\n      pop\n      jump\t// out\n        /* \"#utility.yul\":2999:3108   */\n    tag_148:\n        /* \"#utility.yul\":3080:3101   */\n      tag_150\n        /* \"#utility.yul\":3095:3100   */\n      dup2\n        /* \"#utility.yul\":3080:3101   */\n      tag_151\n      jump\t// in\n    tag_150:\n        /* \"#utility.yul\":3075:3078   */\n      dup3\n        /* \"#utility.yul\":3068:3102   */\n      mstore\n        /* \"#utility.yul\":3058:3108   */\n      pop\n      pop\n      jump\t// out\n        /* \"#utility.yul\":3114:3478   */\n    tag_152:\n        /* \"#utility.yul\":3202:3205   */\n      0x00\n        /* \"#utility.yul\":3230:3269   */\n      tag_154\n        /* \"#utility.yul\":3263:3268   */\n      dup3\n        /* \"#utility.yul\":3230:3269   */\n      tag_155\n      jump\t// in\n    tag_154:\n        /* \"#utility.yul\":3285:3356   */\n      tag_156\n        /* \"#utility.yul\":3349:3355   */\n      dup2\n        /* \"#utility.yul\":3344:3347   */\n      dup6\n        /* \"#utility.yul\":3285:3356   */\n      tag_157\n      jump\t// in\n    tag_156:\n        /* \"#utility.yul\":3278:3356   */\n      swap4\n      pop\n        /* \"#utility.yul\":3365:3417   */\n      tag_158\n        /* \"#utility.yul\":3410:3416   */\n      dup2\n        /* \"#utility.yul\":3405:3408   */\n      dup6\n        /* \"#utility.yul\":3398:3402   */\n      0x20\n        /* \"#utility.yul\":3391:3396   */\n      dup7\n        /* \"#utility.yul\":3387:3403   */\n      add\n        /* \"#utility.yul\":3365:3417   */\n      tag_159\n      jump\t// in\n    tag_158:\n        /* \"#utility.yul\":3442:3471   */\n      tag_160\n        /* \"#utility.yul\":3464:3470   */\n      dup2\n        /* \"#utility.yul\":3442:3471   */\n      tag_161\n      jump\t// in\n    tag_160:\n        /* \"#utility.yul\":3437:3440   */\n      dup5\n        /* \"#utility.yul\":3433:3472   */\n      add\n        /* \"#utility.yul\":3426:3472   */\n      swap2\n      pop\n        /* \"#utility.yul\":3206:3478   */\n      pop\n      swap3\n      swap2\n      pop\n      pop\n      jump\t// out\n        /* \"#utility.yul\":3484:3602   */\n    tag_162:\n        /* \"#utility.yul\":3571:3595   */\n      tag_164\n        /* \"#utility.yul\":3589:3594   */\n      dup2\n        /* \"#utility.yul\":3571:3595   */\n      tag_165\n      jump\t// in\n    tag_164:\n        /* \"#utility.yul\":3566:3569   */\n      dup3\n        /* \"#utility.yul\":3559:3596   */\n      mstore\n        /* \"#utility.yul\":3549:3602   */\n      pop\n      pop\n      jump\t// out\n        /* \"#utility.yul\":3608:3830   */\n    tag_27:\n        /* \"#utility.yul\":3701:3705   */\n      0x00\n        /* \"#utility.yul\":3739:3741   */\n      0x20\n        /* \"#utility.yul\":3728:3737   */\n      dup3\n        /* \"#utility.yul\":3724:3742   */\n      add\n        /* \"#utility.yul\":3716:3742   */\n      swap1\n      pop\n        /* \"#utility.yul\":3752:3823   */\n      tag_167\n        /* \"#utility.yul\":3820:3821   */\n      0x00\n        /* \"#utility.yul\":3809:3818   */\n      dup4\n        /* \"#utility.yul\":3805:3822   */\n      add\n        /* \"#utility.yul\":3796:3802   */\n      dup5\n        /* \"#utility.yul\":3752:3823   */\n      tag_144\n      jump\t// in\n    tag_167:\n        /* \"#utility.yul\":3706:3830   */\n      swap3\n      swap2\n      pop\n      pop\n      jump\t// out\n        /* \"#utility.yul\":3836:4046   */\n    tag_22:\n        /* \"#utility.yul\":3923:3927   */\n      0x00\n        /* \"#utility.yul\":3961:3963   */\n      0x20\n        /* \"#utility.yul\":3950:3959   */\n      dup3\n        /* \"#utility.yul\":3946:3964   */\n      add\n        /* \"#utility.yul\":3938:3964   */\n      swap1\n      pop\n        /* \"#utility.yul\":3974:4039   */\n      tag_169\n        /* \"#utility.yul\":4036:4037   */\n      0x00\n        /* \"#utility.yul\":4025:4034   */\n      dup4\n        /* \"#utility.yul\":4021:4038   */\n      add\n        /* \"#utility.yul\":4012:4018   */\n      dup5\n        /* \"#utility.yul\":3974:4039   */\n      tag_148\n      jump\t// in\n    tag_169:\n        /* \"#utility.yul\":3928:4046   */\n      swap3\n      swap2\n      pop\n      pop\n      jump\t// out\n        /* \"#utility.yul\":4052:4827   */\n    tag_38:\n        /* \"#utility.yul\":4287:4291   */\n      0x00\n        /* \"#utility.yul\":4325:4328   */\n      0xa0\n        /* \"#utility.yul\":4314:4323   */\n      dup3\n        /* \"#utility.yul\":4310:4329   */\n      add\n        /* \"#utility.yul\":4302:4329   */\n      swap1\n      pop\n        /* \"#utility.yul\":4375:4384   */\n      dup2\n        /* \"#utility.yul\":4369:4373   */\n      dup2\n        /* \"#utility.yul\":4365:4385   */\n      sub\n        /* \"#utility.yul\":4361:4362   */\n      0x00\n        /* \"#utility.yul\":4350:4359   */\n      dup4\n        /* \"#utility.yul\":4346:4363   */\n      add\n        /* \"#utility.yul\":4339:4386   */\n      mstore\n        /* \"#utility.yul\":4403:4481   */\n      tag_171\n        /* \"#utility.yul\":4476:4480   */\n      dup2\n        /* \"#utility.yul\":4467:4473   */\n      dup9\n        /* \"#utility.yul\":4403:4481   */\n      tag_152\n      jump\t// in\n    tag_171:\n        /* \"#utility.yul\":4395:4481   */\n      swap1\n      pop\n        /* \"#utility.yul\":4491:4563   */\n      tag_172\n        /* \"#utility.yul\":4559:4561   */\n      0x20\n        /* \"#utility.yul\":4548:4557   */\n      dup4\n        /* \"#utility.yul\":4544:4562   */\n      add\n        /* \"#utility.yul\":4535:4541   */\n      dup8\n        /* \"#utility.yul\":4491:4563   */\n      tag_162\n      jump\t// in\n    tag_172:\n        /* \"#utility.yul\":4573:4661   */\n      tag_173\n        /* \"#utility.yul\":4657:4659   */\n      0x40\n        /* \"#utility.yul\":4646:4655   */\n      dup4\n        /* \"#utility.yul\":4642:4660   */\n      add\n        /* \"#utility.yul\":4633:4639   */\n      dup7\n        /* \"#utility.yul\":4573:4661   */\n      tag_140\n      jump\t// in\n    tag_173:\n        /* \"#utility.yul\":4671:4737   */\n      tag_174\n        /* \"#utility.yul\":4733:4735   */\n      0x60\n        /* \"#utility.yul\":4722:4731   */\n      dup4\n        /* \"#utility.yul\":4718:4736   */\n      add\n        /* \"#utility.yul\":4709:4715   */\n      dup6\n        /* \"#utility.yul\":4671:4737   */\n      tag_148\n      jump\t// in\n    tag_174:\n        /* \"#utility.yul\":4747:4820   */\n      tag_175\n        /* \"#utility.yul\":4815:4818   */\n      0x80\n        /* \"#utility.yul\":4804:4813   */\n      dup4\n        /* \"#utility.yul\":4800:4819   */\n      add\n        /* \"#utility.yul\":4791:4797   */\n      dup5\n        /* \"#utility.yul\":4747:4820   */\n      tag_162\n      jump\t// in\n    tag_175:\n        /* \"#utility.yul\":4292:4827   */\n      swap7\n      swap6\n      pop\n      pop\n      pop\n      pop\n      pop\n      pop\n      jump\t// out\n        /* \"#utility.yul\":4833:5055   */\n    tag_32:\n        /* \"#utility.yul\":4926:4930   */\n      0x00\n        /* \"#utility.yul\":4964:4966   */\n      0x20\n        /* \"#utility.yul\":4953:4962   */\n      dup3\n        /* \"#utility.yul\":4949:4967   */\n      add\n        /* \"#utility.yul\":4941:4967   */\n      swap1\n      pop\n        /* \"#utility.yul\":4977:5048   */\n      tag_177\n        /* \"#utility.yul\":5045:5046   */\n      0x00\n        /* \"#utility.yul\":5034:5043   */\n      dup4\n        /* \"#utility.yul\":5030:5047   */\n      add\n        /* \"#utility.yul\":5021:5027   */\n      dup5\n        /* \"#utility.yul\":4977:5048   */\n      tag_162\n      jump\t// in\n    tag_177:\n        /* \"#utility.yul\":4931:5055   */\n      swap3\n      swap2\n      pop\n      pop\n      jump\t// out\n        /* \"#utility.yul\":5061:5190   */\n    tag_98:\n        /* \"#utility.yul\":5095:5101   */\n      0x00\n        /* \"#utility.yul\":5122:5142   */\n      tag_179\n      tag_180\n      jump\t// in\n    tag_179:\n        /* \"#utility.yul\":5112:5142   */\n      swap1\n      pop\n        /* \"#utility.yul\":5151:5184   */\n      tag_181\n        /* \"#utility.yul\":5179:5183   */\n      dup3\n        /* \"#utility.yul\":5171:5177   */\n      dup3\n        /* \"#utility.yul\":5151:5184   */\n      tag_182\n      jump\t// in\n    tag_181:\n        /* \"#utility.yul\":5102:5190   */\n      swap2\n      swap1\n      pop\n      jump\t// out\n        /* \"#utility.yul\":5196:5271   */\n    tag_180:\n        /* \"#utility.yul\":5229:5235   */\n      0x00\n        /* \"#utility.yul\":5262:5264   */\n      0x40\n        /* \"#utility.yul\":5256:5265   */\n      mload\n        /* \"#utility.yul\":5246:5265   */\n      swap1\n      pop\n        /* \"#utility.yul\":5236:5271   */\n      swap1\n      jump\t// out\n        /* \"#utility.yul\":5277:5585   */\n    tag_97:\n        /* \"#utility.yul\":5339:5343   */\n      0x00\n        /* \"#utility.yul\":5429:5447   */\n      0xffffffffffffffff\n        /* \"#utility.yul\":5421:5427   */\n      dup3\n        /* \"#utility.yul\":5418:5448   */\n      gt\n        /* \"#utility.yul\":5415:5417   */\n      iszero\n      tag_185\n      jumpi\n        /* \"#utility.yul\":5451:5469   */\n      tag_186\n      tag_187\n      jump\t// in\n    tag_186:\n        /* \"#utility.yul\":5415:5417   */\n    tag_185:\n        /* \"#utility.yul\":5489:5518   */\n      tag_188\n        /* \"#utility.yul\":5511:5517   */\n      dup3\n        /* \"#utility.yul\":5489:5518   */\n      tag_161\n      jump\t// in\n    tag_188:\n        /* \"#utility.yul\":5481:5518   */\n      swap1\n      pop\n        /* \"#utility.yul\":5573:5577   */\n      0x20\n        /* \"#utility.yul\":5567:5571   */\n      dup2\n        /* \"#utility.yul\":5563:5578   */\n      add\n        /* \"#utility.yul\":5555:5578   */\n      swap1\n      pop\n        /* \"#utility.yul\":5344:5585   */\n      swap2\n      swap1\n      pop\n      jump\t// out\n        /* \"#utility.yul\":5591:5690   */\n    tag_155:\n        /* \"#utility.yul\":5643:5649   */\n      0x00\n        /* \"#utility.yul\":5677:5682   */\n      dup2\n        /* \"#utility.yul\":5671:5683   */\n      mload\n        /* \"#utility.yul\":5661:5683   */\n      swap1\n      pop\n        /* \"#utility.yul\":5650:5690   */\n      swap2\n      swap1\n      pop\n      jump\t// out\n        /* \"#utility.yul\":5696:5865   */\n    tag_157:\n        /* \"#utility.yul\":5780:5791   */\n      0x00\n        /* \"#utility.yul\":5814:5820   */\n      dup3\n        /* \"#utility.yul\":5809:5812   */\n      dup3\n        /* \"#utility.yul\":5802:5821   */\n      mstore\n        /* \"#utility.yul\":5854:5858   */\n      0x20\n        /* \"#utility.yul\":5849:5852   */\n      dup3\n        /* \"#utility.yul\":5845:5859   */\n      add\n        /* \"#utility.yul\":5830:5859   */\n      swap1\n      pop\n        /* \"#utility.yul\":5792:5865   */\n      swap3\n      swap2\n      pop\n      pop\n      jump\t// out\n        /* \"#utility.yul\":5871:6056   */\n    tag_58:\n        /* \"#utility.yul\":5911:5912   */\n      0x00\n        /* \"#utility.yul\":5928:5948   */\n      tag_192\n        /* \"#utility.yul\":5946:5947   */\n      dup3\n        /* \"#utility.yul\":5928:5948   */\n      tag_165\n      jump\t// in\n    tag_192:\n        /* \"#utility.yul\":5923:5948   */\n      swap2\n      pop\n        /* \"#utility.yul\":5962:5982   */\n      tag_193\n        /* \"#utility.yul\":5980:5981   */\n      dup4\n        /* \"#utility.yul\":5962:5982   */\n      tag_165\n      jump\t// in\n    tag_193:\n        /* \"#utility.yul\":5957:5982   */\n      swap3\n      pop\n        /* \"#utility.yul\":6001:6002   */\n      dup3\n        /* \"#utility.yul\":5991:5993   */\n      tag_194\n      jumpi\n        /* \"#utility.yul\":6006:6024   */\n      tag_195\n      tag_196\n      jump\t// in\n    tag_195:\n        /* \"#utility.yul\":5991:5993   */\n    tag_194:\n        /* \"#utility.yul\":6048:6049   */\n      dup3\n        /* \"#utility.yul\":6045:6046   */\n      dup3\n        /* \"#utility.yul\":6041:6050   */\n      div\n        /* \"#utility.yul\":6036:6050   */\n      swap1\n      pop\n        /* \"#utility.yul\":5913:6056   */\n      swap3\n      swap2\n      pop\n      pop\n      jump\t// out\n        /* \"#utility.yul\":6062:6158   */\n    tag_147:\n        /* \"#utility.yul\":6099:6106   */\n      0x00\n        /* \"#utility.yul\":6128:6152   */\n      tag_198\n        /* \"#utility.yul\":6146:6151   */\n      dup3\n        /* \"#utility.yul\":6128:6152   */\n      tag_199\n      jump\t// in\n    tag_198:\n        /* \"#utility.yul\":6117:6152   */\n      swap1\n      pop\n        /* \"#utility.yul\":6107:6158   */\n      swap2\n      swap1\n      pop\n      jump\t// out\n        /* \"#utility.yul\":6164:6268   */\n    tag_143:\n        /* \"#utility.yul\":6209:6216   */\n      0x00\n        /* \"#utility.yul\":6238:6262   */\n      tag_201\n        /* \"#utility.yul\":6256:6261   */\n      dup3\n        /* \"#utility.yul\":6238:6262   */\n      tag_199\n      jump\t// in\n    tag_201:\n        /* \"#utility.yul\":6227:6262   */\n      swap1\n      pop\n        /* \"#utility.yul\":6217:6268   */\n      swap2\n      swap1\n      pop\n      jump\t// out\n        /* \"#utility.yul\":6274:6364   */\n    tag_151:\n        /* \"#utility.yul\":6308:6315   */\n      0x00\n        /* \"#utility.yul\":6351:6356   */\n      dup2\n        /* \"#utility.yul\":6344:6357   */\n      iszero\n        /* \"#utility.yul\":6337:6358   */\n      iszero\n        /* \"#utility.yul\":6326:6358   */\n      swap1\n      pop\n        /* \"#utility.yul\":6316:6364   */\n      swap2\n      swap1\n      pop\n      jump\t// out\n        /* \"#utility.yul\":6370:6496   */\n    tag_199:\n        /* \"#utility.yul\":6407:6414   */\n      0x00\n        /* \"#utility.yul\":6447:6489   */\n      0xffffffffffffffffffffffffffffffffffffffff\n        /* \"#utility.yul\":6440:6445   */\n      dup3\n        /* \"#utility.yul\":6436:6490   */\n      and\n        /* \"#utility.yul\":6425:6490   */\n      swap1\n      pop\n        /* \"#utility.yul\":6415:6496   */\n      swap2\n      swap1\n      pop\n      jump\t// out\n        /* \"#utility.yul\":6502:6579   */\n    tag_165:\n        /* \"#utility.yul\":6539:6546   */\n      0x00\n        /* \"#utility.yul\":6568:6573   */\n      dup2\n        /* \"#utility.yul\":6557:6573   */\n      swap1\n      pop\n        /* \"#utility.yul\":6547:6579   */\n      swap2\n      swap1\n      pop\n      jump\t// out\n        /* \"#utility.yul\":6585:6739   */\n    tag_103:\n        /* \"#utility.yul\":6669:6675   */\n      dup3\n        /* \"#utility.yul\":6664:6667   */\n      dup2\n        /* \"#utility.yul\":6659:6662   */\n      dup4\n        /* \"#utility.yul\":6646:6676   */\n      calldatacopy\n        /* \"#utility.yul\":6731:6732   */\n      0x00\n        /* \"#utility.yul\":6722:6728   */\n      dup4\n        /* \"#utility.yul\":6717:6720   */\n      dup4\n        /* \"#utility.yul\":6713:6729   */\n      add\n        /* \"#utility.yul\":6706:6733   */\n      mstore\n        /* \"#utility.yul\":6636:6739   */\n      pop\n      pop\n      pop\n      jump\t// out\n        /* \"#utility.yul\":6745:7052   */\n    tag_159:\n        /* \"#utility.yul\":6813:6814   */\n      0x00\n        /* \"#utility.yul\":6823:6936   */\n    tag_207:\n        /* \"#utility.yul\":6837:6843   */\n      dup4\n        /* \"#utility.yul\":6834:6835   */\n      dup2\n        /* \"#utility.yul\":6831:6844   */\n      lt\n        /* \"#utility.yul\":6823:6936   */\n      iszero\n      tag_209\n      jumpi\n        /* \"#utility.yul\":6922:6923   */\n      dup1\n        /* \"#utility.yul\":6917:6920   */\n      dup3\n        /* \"#utility.yul\":6913:6924   */\n      add\n        /* \"#utility.yul\":6907:6925   */\n      mload\n        /* \"#utility.yul\":6903:6904   */\n      dup2\n        /* \"#utility.yul\":6898:6901   */\n      dup5\n        /* \"#utility.yul\":6894:6905   */\n      add\n        /* \"#utility.yul\":6887:6926   */\n      mstore\n        /* \"#utility.yul\":6859:6861   */\n      0x20\n        /* \"#utility.yul\":6856:6857   */\n      dup2\n        /* \"#utility.yul\":6852:6862   */\n      add\n        /* \"#utility.yul\":6847:6862   */\n      swap1\n      pop\n        /* \"#utility.yul\":6823:6936   */\n      jump(tag_207)\n    tag_209:\n        /* \"#utility.yul\":6954:6960   */\n      dup4\n        /* \"#utility.yul\":6951:6952   */\n      dup2\n        /* \"#utility.yul\":6948:6961   */\n      gt\n        /* \"#utility.yul\":6945:6947   */\n      iszero\n      tag_210\n      jumpi\n        /* \"#utility.yul\":7034:7035   */\n      0x00\n        /* \"#utility.yul\":7025:7031   */\n      dup5\n        /* \"#utility.yul\":7020:7023   */\n      dup5\n        /* \"#utility.yul\":7016:7032   */\n      add\n        /* \"#utility.yul\":7009:7036   */\n      mstore\n        /* \"#utility.yul\":6945:6947   */\n    tag_210:\n        /* \"#utility.yul\":6794:7052   */\n      pop\n      pop\n      pop\n      pop\n      jump\t// out\n        /* \"#utility.yul\":7058:7378   */\n    tag_63:\n        /* \"#utility.yul\":7102:7108   */\n      0x00\n        /* \"#utility.yul\":7139:7140   */\n      0x02\n        /* \"#utility.yul\":7133:7137   */\n      dup3\n        /* \"#utility.yul\":7129:7141   */\n      div\n        /* \"#utility.yul\":7119:7141   */\n      swap1\n      pop\n        /* \"#utility.yul\":7186:7187   */\n      0x01\n        /* \"#utility.yul\":7180:7184   */\n      dup3\n        /* \"#utility.yul\":7176:7188   */\n      and\n        /* \"#utility.yul\":7207:7225   */\n      dup1\n        /* \"#utility.yul\":7197:7199   */\n      tag_212\n      jumpi\n        /* \"#utility.yul\":7263:7267   */\n      0x7f\n        /* \"#utility.yul\":7255:7261   */\n      dup3\n        /* \"#utility.yul\":7251:7268   */\n      and\n        /* \"#utility.yul\":7241:7268   */\n      swap2\n      pop\n        /* \"#utility.yul\":7197:7199   */\n    tag_212:\n        /* \"#utility.yul\":7325:7327   */\n      0x20\n        /* \"#utility.yul\":7317:7323   */\n      dup3\n        /* \"#utility.yul\":7314:7328   */\n      lt\n        /* \"#utility.yul\":7294:7312   */\n      dup2\n        /* \"#utility.yul\":7291:7329   */\n      eq\n        /* \"#utility.yul\":7288:7290   */\n      iszero\n      tag_213\n      jumpi\n        /* \"#utility.yul\":7344:7362   */\n      tag_214\n      tag_215\n      jump\t// in\n    tag_214:\n        /* \"#utility.yul\":7288:7290   */\n    tag_213:\n        /* \"#utility.yul\":7109:7378   */\n      pop\n      swap2\n      swap1\n      pop\n      jump\t// out\n        /* \"#utility.yul\":7384:7665   */\n    tag_182:\n        /* \"#utility.yul\":7467:7494   */\n      tag_217\n        /* \"#utility.yul\":7489:7493   */\n      dup3\n        /* \"#utility.yul\":7467:7494   */\n      tag_161\n      jump\t// in\n    tag_217:\n        /* \"#utility.yul\":7459:7465   */\n      dup2\n        /* \"#utility.yul\":7455:7495   */\n      add\n        /* \"#utility.yul\":7597:7603   */\n      dup2\n        /* \"#utility.yul\":7585:7595   */\n      dup2\n        /* \"#utility.yul\":7582:7604   */\n      lt\n        /* \"#utility.yul\":7561:7579   */\n      0xffffffffffffffff\n        /* \"#utility.yul\":7549:7559   */\n      dup3\n        /* \"#utility.yul\":7546:7580   */\n      gt\n        /* \"#utility.yul\":7543:7605   */\n      or\n        /* \"#utility.yul\":7540:7542   */\n      iszero\n      tag_218\n      jumpi\n        /* \"#utility.yul\":7608:7626   */\n      tag_219\n      tag_187\n      jump\t// in\n    tag_219:\n        /* \"#utility.yul\":7540:7542   */\n    tag_218:\n        /* \"#utility.yul\":7648:7658   */\n      dup1\n        /* \"#utility.yul\":7644:7646   */\n      0x40\n        /* \"#utility.yul\":7637:7659   */\n      mstore\n        /* \"#utility.yul\":7427:7665   */\n      pop\n      pop\n      pop\n      jump\t// out\n        /* \"#utility.yul\":7671:7904   */\n    tag_74:\n        /* \"#utility.yul\":7710:7713   */\n      0x00\n        /* \"#utility.yul\":7733:7757   */\n      tag_221\n        /* \"#utility.yul\":7751:7756   */\n      dup3\n        /* \"#utility.yul\":7733:7757   */\n      tag_165\n      jump\t// in\n    tag_221:\n        /* \"#utility.yul\":7724:7757   */\n      swap2\n      pop\n        /* \"#utility.yul\":7779:7845   */\n      0xffffffffffffffffffffffffffffffffffffffffffffffffffffffffffffffff\n        /* \"#utility.yul\":7772:7777   */\n      dup3\n        /* \"#utility.yul\":7769:7846   */\n      eq\n        /* \"#utility.yul\":7766:7768   */\n      iszero\n      tag_222\n      jumpi\n        /* \"#utility.yul\":7849:7867   */\n      tag_223\n      tag_224\n      jump\t// in\n    tag_223:\n        /* \"#utility.yul\":7766:7768   */\n    tag_222:\n        /* \"#utility.yul\":7896:7897   */\n      0x01\n        /* \"#utility.yul\":7889:7894   */\n      dup3\n        /* \"#utility.yul\":7885:7898   */\n      add\n        /* \"#utility.yul\":7878:7898   */\n      swap1\n      pop\n        /* \"#utility.yul\":7714:7904   */\n      swap2\n      swap1\n      pop\n      jump\t// out\n        /* \"#utility.yul\":7910:8090   */\n    tag_224:\n        /* \"#utility.yul\":7958:8035   */\n      0x4e487b7100000000000000000000000000000000000000000000000000000000\n        /* \"#utility.yul\":7955:7956   */\n      0x00\n        /* \"#utility.yul\":7948:8036   */\n      mstore\n        /* \"#utility.yul\":8055:8059   */\n      0x11\n        /* \"#utility.yul\":8052:8053   */\n      0x04\n        /* \"#utility.yul\":8045:8060   */\n      mstore\n        /* \"#utility.yul\":8079:8083   */\n      0x24\n        /* \"#utility.yul\":8076:8077   */\n      0x00\n        /* \"#utility.yul\":8069:8084   */\n      revert\n        /* \"#utility.yul\":8096:8276   */\n    tag_196:\n        /* \"#utility.yul\":8144:8221   */\n      0x4e487b7100000000000000000000000000000000000000000000000000000000\n        /* \"#utility.yul\":8141:8142   */\n      0x00\n        /* \"#utility.yul\":8134:8222   */\n      mstore\n        /* \"#utility.yul\":8241:8245   */\n      0x12\n        /* \"#utility.yul\":8238:8239   */\n      0x04\n        /* \"#utility.yul\":8231:8246   */\n      mstore\n        /* \"#utility.yul\":8265:8269   */\n      0x24\n        /* \"#utility.yul\":8262:8263   */\n      0x00\n        /* \"#utility.yul\":8255:8270   */\n      revert\n        /* \"#utility.yul\":8282:8462   */\n    tag_215:\n        /* \"#utility.yul\":8330:8407   */\n      0x4e487b7100000000000000000000000000000000000000000000000000000000\n        /* \"#utility.yul\":8327:8328   */\n      0x00\n        /* \"#utility.yul\":8320:8408   */\n      mstore\n        /* \"#utility.yul\":8427:8431   */\n      0x22\n        /* \"#utility.yul\":8424:8425   */\n      0x04\n        /* \"#utility.yul\":8417:8432   */\n      mstore\n        /* \"#utility.yul\":8451:8455   */\n      0x24\n        /* \"#utility.yul\":8448:8449   */\n      0x00\n        /* \"#utility.yul\":8441:8456   */\n      revert\n        /* \"#utility.yul\":8468:8648   */\n    tag_187:\n        /* \"#utility.yul\":8516:8593   */\n      0x4e487b7100000000000000000000000000000000000000000000000000000000\n        /* \"#utility.yul\":8513:8514   */\n      0x00\n        /* \"#utility.yul\":8506:8594   */\n      mstore\n        /* \"#utility.yul\":8613:8617   */\n      0x41\n        /* \"#utility.yul\":8610:8611   */\n      0x04\n        /* \"#utility.yul\":8603:8618   */\n      mstore\n        /* \"#utility.yul\":8637:8641   */\n      0x24\n        /* \"#utility.yul\":8634:8635   */\n      0x00\n        /* \"#utility.yul\":8627:8642   */\n      revert\n        /* \"#utility.yul\":8654:8771   */\n    tag_116:\n        /* \"#utility.yul\":8763:8764   */\n      0x00\n        /* \"#utility.yul\":8760:8761   */\n      dup1\n        /* \"#utility.yul\":8753:8765   */\n      revert\n        /* \"#utility.yul\":8777:8894   */\n    tag_101:\n        /* \"#utility.yul\":8886:8887   */\n      0x00\n        /* \"#utility.yul\":8883:8884   */\n      dup1\n        /* \"#utility.yul\":8876:8888   */\n      revert\n        /* \"#utility.yul\":8900:9017   */\n    tag_132:\n        /* \"#utility.yul\":9009:9010   */\n      0x00\n        /* \"#utility.yul\":9006:9007   */\n      dup1\n        /* \"#utility.yul\":8999:9011   */\n      revert\n        /* \"#utility.yul\":9023:9140   */\n    tag_125:\n        /* \"#utility.yul\":9132:9133   */\n      0x00\n        /* \"#utility.yul\":9129:9130   */\n      dup1\n        /* \"#utility.yul\":9122:9134   */\n      revert\n        /* \"#utility.yul\":9146:9248   */\n    tag_161:\n        /* \"#utility.yul\":9187:9193   */\n      0x00\n        /* \"#utility.yul\":9238:9240   */\n      0x1f\n        /* \"#utility.yul\":9234:9241   */\n      not\n        /* \"#utility.yul\":9229:9231   */\n      0x1f\n        /* \"#utility.yul\":9222:9227   */\n      dup4\n        /* \"#utility.yul\":9218:9232   */\n      add\n        /* \"#utility.yul\":9214:9242   */\n      and\n        /* \"#utility.yul\":9204:9242   */\n      swap1\n      pop\n        /* \"#utility.yul\":9194:9248   */\n      swap2\n      swap1\n      pop\n      jump\t// out\n        /* \"#utility.yul\":9254:9376   */\n    tag_107:\n        /* \"#utility.yul\":9327:9351   */\n      tag_235\n        /* \"#utility.yul\":9345:9350   */\n      dup2\n        /* \"#utility.yul\":9327:9351   */\n      tag_147\n      jump\t// in\n    tag_235:\n        /* \"#utility.yul\":9320:9325   */\n      dup2\n        /* \"#utility.yul\":9317:9352   */\n      eq\n        /* \"#utility.yul\":9307:9309   */\n      tag_236\n      jumpi\n        /* \"#utility.yul\":9366:9367   */\n      0x00\n        /* \"#utility.yul\":9363:9364   */\n      dup1\n        /* \"#utility.yul\":9356:9368   */\n      revert\n        /* \"#utility.yul\":9307:9309   */\n    tag_236:\n        /* \"#utility.yul\":9297:9376   */\n      pop\n      jump\t// out\n        /* \"#utility.yul\":9382:9520   */\n    tag_111:\n        /* \"#utility.yul\":9463:9495   */\n      tag_238\n        /* \"#utility.yul\":9489:9494   */\n      dup2\n        /* \"#utility.yul\":9463:9495   */\n      tag_143\n      jump\t// in\n    tag_238:\n        /* \"#utility.yul\":9456:9461   */\n      dup2\n        /* \"#utility.yul\":9453:9496   */\n      eq\n        /* \"#utility.yul\":9443:9445   */\n      tag_239\n      jumpi\n        /* \"#utility.yul\":9510:9511   */\n      0x00\n        /* \"#utility.yul\":9507:9508   */\n      dup1\n        /* \"#utility.yul\":9500:9512   */\n      revert\n        /* \"#utility.yul\":9443:9445   */\n    tag_239:\n        /* \"#utility.yul\":9433:9520   */\n      pop\n      jump\t// out\n        /* \"#utility.yul\":9526:9648   */\n    tag_121:\n        /* \"#utility.yul\":9599:9623   */\n      tag_241\n        /* \"#utility.yul\":9617:9622   */\n      dup2\n        /* \"#utility.yul\":9599:9623   */\n      tag_165\n      jump\t// in\n    tag_241:\n        /* \"#utility.yul\":9592:9597   */\n      dup2\n        /* \"#utility.yul\":9589:9624   */\n      eq\n        /* \"#utility.yul\":9579:9581   */\n      tag_242\n      jumpi\n        /* \"#utility.yul\":9638:9639   */\n      0x00\n        /* \"#utility.yul\":9635:9636   */\n      dup1\n        /* \"#utility.yul\":9628:9640   */\n      revert\n        /* \"#utility.yul\":9579:9581   */\n    tag_242:\n        /* \"#utility.yul\":9569:9648   */\n      pop\n      jump\t// out\n\n    auxdata: 0xa2646970667358221220bd1ba016b95c508c024d48c6bec243edf79ff1ca21289de533a9ec5d85da78e564736f6c63430008060033\n}\n",
    "bytecode": {
      "linkReferences": {},
      "object": "60806040526000805560006005553480156200001a57600080fd5b5060405162000f5438038062000f548339818101604052810190620000409190620000be565b80600260006101000a81548173ffffffffffffffffffffffffffffffffffffffff021916908373ffffffffffffffffffffffffffffffffffffffff1602179055508160038190555050506200017c565b600081519050620000a18162000148565b92915050565b600081519050620000b88162000162565b92915050565b60008060408385031215620000d857620000d762000143565b5b6000620000e885828601620000a7565b9250506020620000fb8582860162000090565b9150509250929050565b6000620001128262000119565b9050919050565b600073ffffffffffffffffffffffffffffffffffffffff82169050919050565b6000819050919050565b600080fd5b620001538162000105565b81146200015f57600080fd5b50565b6200016d8162000139565b81146200017957600080fd5b50565b610dc8806200018c6000396000f3fe6080604052600436106100865760003560e01c806381d12c581161005957806381d12c581461013a57806382fde0931461017b5780638a9cfd55146101a6578063d7bb99ba146101cf578063d7d1bbdb146101d957610086565b8063034410061461008b5780630a144391146100a7578063481c6a75146100e4578063605534601461010f575b600080fd5b6100a560048036038101906100a09190610934565b6101f5565b005b3480156100b357600080fd5b506100ce60048036038101906100c99190610898565b610330565b6040516100db91906109f1565b60405180910390f35b3480156100f057600080fd5b506100f9610350565b60405161010691906109d6565b60405180910390f35b34801561011b57600080fd5b50610124610376565b6040516101319190610a66565b60405180910390f35b34801561014657600080fd5b50610161600480360381019061015c9190610934565b61037c565b604051610172959493929190610a0c565b60405180910390f35b34801561018757600080fd5b50610190610467565b60405161019d9190610a66565b60405180910390f35b3480156101b257600080fd5b506101cd60048036038101906101c891906108c5565b61046d565b005b6101d7610588565b005b6101f360048036038101906101ee9190610934565b610608565b005b600260009054906101000a900473ffffffffffffffffffffffffffffffffffffffff1673ffffffffffffffffffffffffffffffffffffffff163373ffffffffffffffffffffffffffffffffffffffff161461024f57600080fd5b60006001600083815260200190815260200160002090508060020160149054906101000a900460ff161561028257600080fd5b60026005546102919190610af3565b8160030154116102a057600080fd5b8060020160009054906101000a900473ffffffffffffffffffffffffffffffffffffffff1673ffffffffffffffffffffffffffffffffffffffff166108fc82600101549081150290604051600060405180830381858888f1935050505015801561030e573d6000803e3d6000fd5b5060018160020160146101000a81548160ff0219169083151502179055505050565b60046020528060005260406000206000915054906101000a900460ff1681565b600260009054906101000a900473ffffffffffffffffffffffffffffffffffffffff1681565b60035481565b600160205280600052604060002060009150905080600001805461039f90610bc0565b80601f01602080910402602001604051908101604052809291908181526020018280546103cb90610bc0565b80156104185780601f106103ed57610100808354040283529160200191610418565b820191906000526020600020905b8154815290600101906020018083116103fb57829003601f168201915b5050505050908060010154908060020160009054906101000a900473ffffffffffffffffffffffffffffffffffffffff16908060020160149054906101000a900460ff16908060030154905085565b60055481565b600260009054906101000a900473ffffffffffffffffffffffffffffffffffffffff1673ffffffffffffffffffffffffffffffffffffffff163373ffffffffffffffffffffffffffffffffffffffff16146104c757600080fd5b600060016000805481526020019081526020016000209050838160000190805190602001906104f7929190610746565b50828160010181905550818160020160006101000a81548173ffffffffffffffffffffffffffffffffffffffff021916908373ffffffffffffffffffffffffffffffffffffffff16021790555060008160020160146101000a81548160ff0219169083151502179055506000816003018190555060008081548092919061057d90610c23565b919050555050505050565b600354341161059657600080fd5b6001600460003373ffffffffffffffffffffffffffffffffffffffff1673ffffffffffffffffffffffffffffffffffffffff16815260200190815260200160002060006101000a81548160ff0219169083151502179055506005600081548092919061060190610c23565b9190505550565b6000600160008381526020019081526020016000209050600460003373ffffffffffffffffffffffffffffffffffffffff1673ffffffffffffffffffffffffffffffffffffffff16815260200190815260200160002060009054906101000a900460ff1661067557600080fd5b8060040160003373ffffffffffffffffffffffffffffffffffffffff1673ffffffffffffffffffffffffffffffffffffffff16815260200190815260200160002060009054906101000a900460ff16156106ce57600080fd5b60018160040160003373ffffffffffffffffffffffffffffffffffffffff1673ffffffffffffffffffffffffffffffffffffffff16815260200190815260200160002060006101000a81548160ff02191690831515021790555080600301600081548092919061073d90610c23565b91905055505050565b82805461075290610bc0565b90600052602060002090601f01602090048101928261077457600085556107bb565b82601f1061078d57805160ff19168380011785556107bb565b828001600101855582156107bb579182015b828111156107ba57825182559160200191906001019061079f565b5b5090506107c891906107cc565b5090565b5b808211156107e55760008160009055506001016107cd565b5090565b60006107fc6107f784610aa6565b610a81565b90508281526020810184848401111561081857610817610d2d565b5b610823848285610b7e565b509392505050565b60008135905061083a81610d4d565b92915050565b60008135905061084f81610d64565b92915050565b600082601f83011261086a57610869610d28565b5b813561087a8482602086016107e9565b91505092915050565b60008135905061089281610d7b565b92915050565b6000602082840312156108ae576108ad610d37565b5b60006108bc8482850161082b565b91505092915050565b6000806000606084860312156108de576108dd610d37565b5b600084013567ffffffffffffffff8111156108fc576108fb610d32565b5b61090886828701610855565b935050602061091986828701610883565b925050604061092a86828701610840565b9150509250925092565b60006020828403121561094a57610949610d37565b5b600061095884828501610883565b91505092915050565b61096a81610b36565b82525050565b61097981610b24565b82525050565b61098881610b48565b82525050565b600061099982610ad7565b6109a38185610ae2565b93506109b3818560208601610b8d565b6109bc81610d3c565b840191505092915050565b6109d081610b74565b82525050565b60006020820190506109eb6000830184610970565b92915050565b6000602082019050610a06600083018461097f565b92915050565b600060a0820190508181036000830152610a26818861098e565b9050610a3560208301876109c7565b610a426040830186610961565b610a4f606083018561097f565b610a5c60808301846109c7565b9695505050505050565b6000602082019050610a7b60008301846109c7565b92915050565b6000610a8b610a9c565b9050610a978282610bf2565b919050565b6000604051905090565b600067ffffffffffffffff821115610ac157610ac0610cf9565b5b610aca82610d3c565b9050602081019050919050565b600081519050919050565b600082825260208201905092915050565b6000610afe82610b74565b9150610b0983610b74565b925082610b1957610b18610c9b565b5b828204905092915050565b6000610b2f82610b54565b9050919050565b6000610b4182610b54565b9050919050565b60008115159050919050565b600073ffffffffffffffffffffffffffffffffffffffff82169050919050565b6000819050919050565b82818337600083830152505050565b60005b83811015610bab578082015181840152602081019050610b90565b83811115610bba576000848401525b50505050565b60006002820490506001821680610bd857607f821691505b60208210811415610bec57610beb610cca565b5b50919050565b610bfb82610d3c565b810181811067ffffffffffffffff82111715610c1a57610c19610cf9565b5b80604052505050565b6000610c2e82610b74565b91507fffffffffffffffffffffffffffffffffffffffffffffffffffffffffffffffff821415610c6157610c60610c6c565b5b600182019050919050565b7f4e487b7100000000000000000000000000000000000000000000000000000000600052601160045260246000fd5b7f4e487b7100000000000000000000000000000000000000000000000000000000600052601260045260246000fd5b7f4e487b7100000000000000000000000000000000000000000000000000000000600052602260045260246000fd5b7f4e487b7100000000000000000000000000000000000000000000000000000000600052604160045260246000fd5b600080fd5b600080fd5b600080fd5b600080fd5b6000601f19601f8301169050919050565b610d5681610b24565b8114610d6157600080fd5b50565b610d6d81610b36565b8114610d7857600080fd5b50565b610d8481610b74565b8114610d8f57600080fd5b5056fea2646970667358221220bd1ba016b95c508c024d48c6bec243edf79ff1ca21289de533a9ec5d85da78e564736f6c63430008060033",
      "opcodes": "PUSH1 0x80 PUSH1 0x40 MSTORE PUSH1 0x0 DUP1 SSTORE PUSH1 0x0 PUSH1 0x5 SSTORE CALLVALUE DUP1 ISZERO PUSH3 0x1A JUMPI PUSH1 0x0 DUP1 REVERT JUMPDEST POP PUSH1 0x40 MLOAD PUSH3 0xF54 CODESIZE SUB DUP1 PUSH3 0xF54 DUP4 CODECOPY DUP2 DUP2 ADD PUSH1 0x40 MSTORE DUP2 ADD SWAP1 PUSH3 0x40 SWAP2 SWAP1 PUSH3 0xBE JUMP JUMPDEST DUP1 PUSH1 0x2 PUSH1 0x0 PUSH2 0x100 EXP DUP2 SLOAD DUP2 PUSH20 0xFFFFFFFFFFFFFFFFFFFFFFFFFFFFFFFFFFFFFFFF MUL NOT AND SWAP1 DUP4 PUSH20 0xFFFFFFFFFFFFFFFFFFFFFFFFFFFFFFFFFFFFFFFF AND MUL OR SWAP1 SSTORE POP DUP2 PUSH1 0x3 DUP2 SWAP1 SSTORE POP POP POP PUSH3 0x17C JUMP JUMPDEST PUSH1 0x0 DUP2 MLOAD SWAP1 POP PUSH3 0xA1 DUP2 PUSH3 0x148 JUMP JUMPDEST SWAP3 SWAP2 POP POP JUMP JUMPDEST PUSH1 0x0 DUP2 MLOAD SWAP1 POP PUSH3 0xB8 DUP2 PUSH3 0x162 JUMP JUMPDEST SWAP3 SWAP2 POP POP JUMP JUMPDEST PUSH1 0x0 DUP1 PUSH1 0x40 DUP4 DUP6 SUB SLT ISZERO PUSH3 0xD8 JUMPI PUSH3 0xD7 PUSH3 0x143 JUMP JUMPDEST JUMPDEST PUSH1 0x0 PUSH3 0xE8 DUP6 DUP3 DUP7 ADD PUSH3 0xA7 JUMP JUMPDEST SWAP3 POP POP PUSH1 0x20 PUSH3 0xFB DUP6 DUP3 DUP7 ADD PUSH3 0x90 JUMP JUMPDEST SWAP2 POP POP SWAP3 POP SWAP3 SWAP1 POP JUMP JUMPDEST PUSH1 0x0 PUSH3 0x112 DUP3 PUSH3 0x119 JUMP JUMPDEST SWAP1 POP SWAP2 SWAP1 POP JUMP JUMPDEST PUSH1 0x0 PUSH20 0xFFFFFFFFFFFFFFFFFFFFFFFFFFFFFFFFFFFFFFFF DUP3 AND SWAP1 POP SWAP2 SWAP1 POP JUMP JUMPDEST PUSH1 0x0 DUP2 SWAP1 POP SWAP2 SWAP1 POP JUMP JUMPDEST PUSH1 0x0 DUP1 REVERT JUMPDEST PUSH3 0x153 DUP2 PUSH3 0x105 JUMP JUMPDEST DUP2 EQ PUSH3 0x15F JUMPI PUSH1 0x0 DUP1 REVERT JUMPDEST POP JUMP JUMPDEST PUSH3 0x16D DUP2 PUSH3 0x139 JUMP JUMPDEST DUP2 EQ PUSH3 0x179 JUMPI PUSH1 0x0 DUP1 REVERT JUMPDEST POP JUMP JUMPDEST PUSH2 0xDC8 DUP1 PUSH3 0x18C PUSH1 0x0 CODECOPY PUSH1 0x0 RETURN INVALID PUSH1 0x80 PUSH1 0x40 MSTORE PUSH1 0x4 CALLDATASIZE LT PUSH2 0x86 JUMPI PUSH1 0x0 CALLDATALOAD PUSH1 0xE0 SHR DUP1 PUSH4 0x81D12C58 GT PUSH2 0x59 JUMPI DUP1 PUSH4 0x81D12C58 EQ PUSH2 0x13A JUMPI DUP1 PUSH4 0x82FDE093 EQ PUSH2 0x17B JUMPI DUP1 PUSH4 0x8A9CFD55 EQ PUSH2 0x1A6 JUMPI DUP1 PUSH4 0xD7BB99BA EQ PUSH2 0x1CF JUMPI DUP1 PUSH4 0xD7D1BBDB EQ PUSH2 0x1D9 JUMPI PUSH2 0x86 JUMP JUMPDEST DUP1 PUSH4 0x3441006 EQ PUSH2 0x8B JUMPI DUP1 PUSH4 0xA144391 EQ PUSH2 0xA7 JUMPI DUP1 PUSH4 0x481C6A75 EQ PUSH2 0xE4 JUMPI DUP1 PUSH4 0x60553460 EQ PUSH2 0x10F JUMPI JUMPDEST PUSH1 0x0 DUP1 REVERT JUMPDEST PUSH2 0xA5 PUSH1 0x4 DUP1 CALLDATASIZE SUB DUP2 ADD SWAP1 PUSH2 0xA0 SWAP2 SWAP1 PUSH2 0x934 JUMP JUMPDEST PUSH2 0x1F5 JUMP JUMPDEST STOP JUMPDEST CALLVALUE DUP1 ISZERO PUSH2 0xB3 JUMPI PUSH1 0x0 DUP1 REVERT JUMPDEST POP PUSH2 0xCE PUSH1 0x4 DUP1 CALLDATASIZE SUB DUP2 ADD SWAP1 PUSH2 0xC9 SWAP2 SWAP1 PUSH2 0x898 JUMP JUMPDEST PUSH2 0x330 JUMP JUMPDEST PUSH1 0x40 MLOAD PUSH2 0xDB SWAP2 SWAP1 PUSH2 0x9F1 JUMP JUMPDEST PUSH1 0x40 MLOAD DUP1 SWAP2 SUB SWAP1 RETURN JUMPDEST CALLVALUE DUP1 ISZERO PUSH2 0xF0 JUMPI PUSH1 0x0 DUP1 REVERT JUMPDEST POP PUSH2 0xF9 PUSH2 0x350 JUMP JUMPDEST PUSH1 0x40 MLOAD PUSH2 0x106 SWAP2 SWAP1 PUSH2 0x9D6 JUMP JUMPDEST PUSH1 0x40 MLOAD DUP1 SWAP2 SUB SWAP1 RETURN JUMPDEST CALLVALUE DUP1 ISZERO PUSH2 0x11B JUMPI PUSH1 0x0 DUP1 REVERT JUMPDEST POP PUSH2 0x124 PUSH2 0x376 JUMP JUMPDEST PUSH1 0x40 MLOAD PUSH2 0x131 SWAP2 SWAP1 PUSH2 0xA66 JUMP JUMPDEST PUSH1 0x40 MLOAD DUP1 SWAP2 SUB SWAP1 RETURN JUMPDEST CALLVALUE DUP1 ISZERO PUSH2 0x146 JUMPI PUSH1 0x0 DUP1 REVERT JUMPDEST POP PUSH2 0x161 PUSH1 0x4 DUP1 CALLDATASIZE SUB DUP2 ADD SWAP1 PUSH2 0x15C SWAP2 SWAP1 PUSH2 0x934 JUMP JUMPDEST PUSH2 0x37C JUMP JUMPDEST PUSH1 0x40 MLOAD PUSH2 0x172 SWAP6 SWAP5 SWAP4 SWAP3 SWAP2 SWAP1 PUSH2 0xA0C JUMP JUMPDEST PUSH1 0x40 MLOAD DUP1 SWAP2 SUB SWAP1 RETURN JUMPDEST CALLVALUE DUP1 ISZERO PUSH2 0x187 JUMPI PUSH1 0x0 DUP1 REVERT JUMPDEST POP PUSH2 0x190 PUSH2 0x467 JUMP JUMPDEST PUSH1 0x40 MLOAD PUSH2 0x19D SWAP2 SWAP1 PUSH2 0xA66 JUMP JUMPDEST PUSH1 0x40 MLOAD DUP1 SWAP2 SUB SWAP1 RETURN JUMPDEST CALLVALUE DUP1 ISZERO PUSH2 0x1B2 JUMPI PUSH1 0x0 DUP1 REVERT JUMPDEST POP PUSH2 0x1CD PUSH1 0x4 DUP1 CALLDATASIZE SUB DUP2 ADD SWAP1 PUSH2 0x1C8 SWAP2 SWAP1 PUSH2 0x8C5 JUMP JUMPDEST PUSH2 0x46D JUMP JUMPDEST STOP JUMPDEST PUSH2 0x1D7 PUSH2 0x588 JUMP JUMPDEST STOP JUMPDEST PUSH2 0x1F3 PUSH1 0x4 DUP1 CALLDATASIZE SUB DUP2 ADD SWAP1 PUSH2 0x1EE SWAP2 SWAP1 PUSH2 0x934 JUMP JUMPDEST PUSH2 0x608 JUMP JUMPDEST STOP JUMPDEST PUSH1 0x2 PUSH1 0x0 SWAP1 SLOAD SWAP1 PUSH2 0x100 EXP SWAP1 DIV PUSH20 0xFFFFFFFFFFFFFFFFFFFFFFFFFFFFFFFFFFFFFFFF AND PUSH20 0xFFFFFFFFFFFFFFFFFFFFFFFFFFFFFFFFFFFFFFFF AND CALLER PUSH20 0xFFFFFFFFFFFFFFFFFFFFFFFFFFFFFFFFFFFFFFFF AND EQ PUSH2 0x24F JUMPI PUSH1 0x0 DUP1 REVERT JUMPDEST PUSH1 0x0 PUSH1 0x1 PUSH1 0x0 DUP4 DUP2 MSTORE PUSH1 0x20 ADD SWAP1 DUP2 MSTORE PUSH1 0x20 ADD PUSH1 0x0 KECCAK256 SWAP1 POP DUP1 PUSH1 0x2 ADD PUSH1 0x14 SWAP1 SLOAD SWAP1 PUSH2 0x100 EXP SWAP1 DIV PUSH1 0xFF AND ISZERO PUSH2 0x282 JUMPI PUSH1 0x0 DUP1 REVERT JUMPDEST PUSH1 0x2 PUSH1 0x5 SLOAD PUSH2 0x291 SWAP2 SWAP1 PUSH2 0xAF3 JUMP JUMPDEST DUP2 PUSH1 0x3 ADD SLOAD GT PUSH2 0x2A0 JUMPI PUSH1 0x0 DUP1 REVERT JUMPDEST DUP1 PUSH1 0x2 ADD PUSH1 0x0 SWAP1 SLOAD SWAP1 PUSH2 0x100 EXP SWAP1 DIV PUSH20 0xFFFFFFFFFFFFFFFFFFFFFFFFFFFFFFFFFFFFFFFF AND PUSH20 0xFFFFFFFFFFFFFFFFFFFFFFFFFFFFFFFFFFFFFFFF AND PUSH2 0x8FC DUP3 PUSH1 0x1 ADD SLOAD SWAP1 DUP2 ISZERO MUL SWAP1 PUSH1 0x40 MLOAD PUSH1 0x0 PUSH1 0x40 MLOAD DUP1 DUP4 SUB DUP2 DUP6 DUP9 DUP9 CALL SWAP4 POP POP POP POP ISZERO DUP1 ISZERO PUSH2 0x30E JUMPI RETURNDATASIZE PUSH1 0x0 DUP1 RETURNDATACOPY RETURNDATASIZE PUSH1 0x0 REVERT JUMPDEST POP PUSH1 0x1 DUP2 PUSH1 0x2 ADD PUSH1 0x14 PUSH2 0x100 EXP DUP2 SLOAD DUP2 PUSH1 0xFF MUL NOT AND SWAP1 DUP4 ISZERO ISZERO MUL OR SWAP1 SSTORE POP POP POP JUMP JUMPDEST PUSH1 0x4 PUSH1 0x20 MSTORE DUP1 PUSH1 0x0 MSTORE PUSH1 0x40 PUSH1 0x0 KECCAK256 PUSH1 0x0 SWAP2 POP SLOAD SWAP1 PUSH2 0x100 EXP SWAP1 DIV PUSH1 0xFF AND DUP2 JUMP JUMPDEST PUSH1 0x2 PUSH1 0x0 SWAP1 SLOAD SWAP1 PUSH2 0x100 EXP SWAP1 DIV PUSH20 0xFFFFFFFFFFFFFFFFFFFFFFFFFFFFFFFFFFFFFFFF AND DUP2 JUMP JUMPDEST PUSH1 0x3 SLOAD DUP2 JUMP JUMPDEST PUSH1 0x1 PUSH1 0x20 MSTORE DUP1 PUSH1 0x0 MSTORE PUSH1 0x40 PUSH1 0x0 KECCAK256 PUSH1 0x0 SWAP2 POP SWAP1 POP DUP1 PUSH1 0x0 ADD DUP1 SLOAD PUSH2 0x39F SWAP1 PUSH2 0xBC0 JUMP JUMPDEST DUP1 PUSH1 0x1F ADD PUSH1 0x20 DUP1 SWAP2 DIV MUL PUSH1 0x20 ADD PUSH1 0x40 MLOAD SWAP1 DUP2 ADD PUSH1 0x40 MSTORE DUP1 SWAP3 SWAP2 SWAP1 DUP2 DUP2 MSTORE PUSH1 0x20 ADD DUP3 DUP1 SLOAD PUSH2 0x3CB SWAP1 PUSH2 0xBC0 JUMP JUMPDEST DUP1 ISZERO PUSH2 0x418 JUMPI DUP1 PUSH1 0x1F LT PUSH2 0x3ED JUMPI PUSH2 0x100 DUP1 DUP4 SLOAD DIV MUL DUP4 MSTORE SWAP2 PUSH1 0x20 ADD SWAP2 PUSH2 0x418 JUMP JUMPDEST DUP3 ADD SWAP2 SWAP1 PUSH1 0x0 MSTORE PUSH1 0x20 PUSH1 0x0 KECCAK256 SWAP1 JUMPDEST DUP2 SLOAD DUP2 MSTORE SWAP1 PUSH1 0x1 ADD SWAP1 PUSH1 0x20 ADD DUP1 DUP4 GT PUSH2 0x3FB JUMPI DUP3 SWAP1 SUB PUSH1 0x1F AND DUP3 ADD SWAP2 JUMPDEST POP POP POP POP POP SWAP1 DUP1 PUSH1 0x1 ADD SLOAD SWAP1 DUP1 PUSH1 0x2 ADD PUSH1 0x0 SWAP1 SLOAD SWAP1 PUSH2 0x100 EXP SWAP1 DIV PUSH20 0xFFFFFFFFFFFFFFFFFFFFFFFFFFFFFFFFFFFFFFFF AND SWAP1 DUP1 PUSH1 0x2 ADD PUSH1 0x14 SWAP1 SLOAD SWAP1 PUSH2 0x100 EXP SWAP1 DIV PUSH1 0xFF AND SWAP1 DUP1 PUSH1 0x3 ADD SLOAD SWAP1 POP DUP6 JUMP JUMPDEST PUSH1 0x5 SLOAD DUP2 JUMP JUMPDEST PUSH1 0x2 PUSH1 0x0 SWAP1 SLOAD SWAP1 PUSH2 0x100 EXP SWAP1 DIV PUSH20 0xFFFFFFFFFFFFFFFFFFFFFFFFFFFFFFFFFFFFFFFF AND PUSH20 0xFFFFFFFFFFFFFFFFFFFFFFFFFFFFFFFFFFFFFFFF AND CALLER PUSH20 0xFFFFFFFFFFFFFFFFFFFFFFFFFFFFFFFFFFFFFFFF AND EQ PUSH2 0x4C7 JUMPI PUSH1 0x0 DUP1 REVERT JUMPDEST PUSH1 0x0 PUSH1 0x1 PUSH1 0x0 DUP1 SLOAD DUP2 MSTORE PUSH1 0x20 ADD SWAP1 DUP2 MSTORE PUSH1 0x20 ADD PUSH1 0x0 KECCAK256 SWAP1 POP DUP4 DUP2 PUSH1 0x0 ADD SWAP1 DUP1 MLOAD SWAP1 PUSH1 0x20 ADD SWAP1 PUSH2 0x4F7 SWAP3 SWAP2 SWAP1 PUSH2 0x746 JUMP JUMPDEST POP DUP3 DUP2 PUSH1 0x1 ADD DUP2 SWAP1 SSTORE POP DUP2 DUP2 PUSH1 0x2 ADD PUSH1 0x0 PUSH2 0x100 EXP DUP2 SLOAD DUP2 PUSH20 0xFFFFFFFFFFFFFFFFFFFFFFFFFFFFFFFFFFFFFFFF MUL NOT AND SWAP1 DUP4 PUSH20 0xFFFFFFFFFFFFFFFFFFFFFFFFFFFFFFFFFFFFFFFF AND MUL OR SWAP1 SSTORE POP PUSH1 0x0 DUP2 PUSH1 0x2 ADD PUSH1 0x14 PUSH2 0x100 EXP DUP2 SLOAD DUP2 PUSH1 0xFF MUL NOT AND SWAP1 DUP4 ISZERO ISZERO MUL OR SWAP1 SSTORE POP PUSH1 0x0 DUP2 PUSH1 0x3 ADD DUP2 SWAP1 SSTORE POP PUSH1 0x0 DUP1 DUP2 SLOAD DUP1 SWAP3 SWAP2 SWAP1 PUSH2 0x57D SWAP1 PUSH2 0xC23 JUMP JUMPDEST SWAP2 SWAP1 POP SSTORE POP POP POP POP POP JUMP JUMPDEST PUSH1 0x3 SLOAD CALLVALUE GT PUSH2 0x596 JUMPI PUSH1 0x0 DUP1 REVERT JUMPDEST PUSH1 0x1 PUSH1 0x4 PUSH1 0x0 CALLER PUSH20 0xFFFFFFFFFFFFFFFFFFFFFFFFFFFFFFFFFFFFFFFF AND PUSH20 0xFFFFFFFFFFFFFFFFFFFFFFFFFFFFFFFFFFFFFFFF AND DUP2 MSTORE PUSH1 0x20 ADD SWAP1 DUP2 MSTORE PUSH1 0x20 ADD PUSH1 0x0 KECCAK256 PUSH1 0x0 PUSH2 0x100 EXP DUP2 SLOAD DUP2 PUSH1 0xFF MUL NOT AND SWAP1 DUP4 ISZERO ISZERO MUL OR SWAP1 SSTORE POP PUSH1 0x5 PUSH1 0x0 DUP2 SLOAD DUP1 SWAP3 SWAP2 SWAP1 PUSH2 0x601 SWAP1 PUSH2 0xC23 JUMP JUMPDEST SWAP2 SWAP1 POP SSTORE POP JUMP JUMPDEST PUSH1 0x0 PUSH1 0x1 PUSH1 0x0 DUP4 DUP2 MSTORE PUSH1 0x20 ADD SWAP1 DUP2 MSTORE PUSH1 0x20 ADD PUSH1 0x0 KECCAK256 SWAP1 POP PUSH1 0x4 PUSH1 0x0 CALLER PUSH20 0xFFFFFFFFFFFFFFFFFFFFFFFFFFFFFFFFFFFFFFFF AND PUSH20 0xFFFFFFFFFFFFFFFFFFFFFFFFFFFFFFFFFFFFFFFF AND DUP2 MSTORE PUSH1 0x20 ADD SWAP1 DUP2 MSTORE PUSH1 0x20 ADD PUSH1 0x0 KECCAK256 PUSH1 0x0 SWAP1 SLOAD SWAP1 PUSH2 0x100 EXP SWAP1 DIV PUSH1 0xFF AND PUSH2 0x675 JUMPI PUSH1 0x0 DUP1 REVERT JUMPDEST DUP1 PUSH1 0x4 ADD PUSH1 0x0 CALLER PUSH20 0xFFFFFFFFFFFFFFFFFFFFFFFFFFFFFFFFFFFFFFFF AND PUSH20 0xFFFFFFFFFFFFFFFFFFFFFFFFFFFFFFFFFFFFFFFF AND DUP2 MSTORE PUSH1 0x20 ADD SWAP1 DUP2 MSTORE PUSH1 0x20 ADD PUSH1 0x0 KECCAK256 PUSH1 0x0 SWAP1 SLOAD SWAP1 PUSH2 0x100 EXP SWAP1 DIV PUSH1 0xFF AND ISZERO PUSH2 0x6CE JUMPI PUSH1 0x0 DUP1 REVERT JUMPDEST PUSH1 0x1 DUP2 PUSH1 0x4 ADD PUSH1 0x0 CALLER PUSH20 0xFFFFFFFFFFFFFFFFFFFFFFFFFFFFFFFFFFFFFFFF AND PUSH20 0xFFFFFFFFFFFFFFFFFFFFFFFFFFFFFFFFFFFFFFFF AND DUP2 MSTORE PUSH1 0x20 ADD SWAP1 DUP2 MSTORE PUSH1 0x20 ADD PUSH1 0x0 KECCAK256 PUSH1 0x0 PUSH2 0x100 EXP DUP2 SLOAD DUP2 PUSH1 0xFF MUL NOT AND SWAP1 DUP4 ISZERO ISZERO MUL OR SWAP1 SSTORE POP DUP1 PUSH1 0x3 ADD PUSH1 0x0 DUP2 SLOAD DUP1 SWAP3 SWAP2 SWAP1 PUSH2 0x73D SWAP1 PUSH2 0xC23 JUMP JUMPDEST SWAP2 SWAP1 POP SSTORE POP POP POP JUMP JUMPDEST DUP3 DUP1 SLOAD PUSH2 0x752 SWAP1 PUSH2 0xBC0 JUMP JUMPDEST SWAP1 PUSH1 0x0 MSTORE PUSH1 0x20 PUSH1 0x0 KECCAK256 SWAP1 PUSH1 0x1F ADD PUSH1 0x20 SWAP1 DIV DUP2 ADD SWAP3 DUP3 PUSH2 0x774 JUMPI PUSH1 0x0 DUP6 SSTORE PUSH2 0x7BB JUMP JUMPDEST DUP3 PUSH1 0x1F LT PUSH2 0x78D JUMPI DUP1 MLOAD PUSH1 0xFF NOT AND DUP4 DUP1 ADD OR DUP6 SSTORE PUSH2 0x7BB JUMP JUMPDEST DUP3 DUP1 ADD PUSH1 0x1 ADD DUP6 SSTORE DUP3 ISZERO PUSH2 0x7BB JUMPI SWAP2 DUP3 ADD JUMPDEST DUP3 DUP2 GT ISZERO PUSH2 0x7BA JUMPI DUP3 MLOAD DUP3 SSTORE SWAP2 PUSH1 0x20 ADD SWAP2 SWAP1 PUSH1 0x1 ADD SWAP1 PUSH2 0x79F JUMP JUMPDEST JUMPDEST POP SWAP1 POP PUSH2 0x7C8 SWAP2 SWAP1 PUSH2 0x7CC JUMP JUMPDEST POP SWAP1 JUMP JUMPDEST JUMPDEST DUP1 DUP3 GT ISZERO PUSH2 0x7E5 JUMPI PUSH1 0x0 DUP2 PUSH1 0x0 SWAP1 SSTORE POP PUSH1 0x1 ADD PUSH2 0x7CD JUMP JUMPDEST POP SWAP1 JUMP JUMPDEST PUSH1 0x0 PUSH2 0x7FC PUSH2 0x7F7 DUP5 PUSH2 0xAA6 JUMP JUMPDEST PUSH2 0xA81 JUMP JUMPDEST SWAP1 POP DUP3 DUP2 MSTORE PUSH1 0x20 DUP2 ADD DUP5 DUP5 DUP5 ADD GT ISZERO PUSH2 0x818 JUMPI PUSH2 0x817 PUSH2 0xD2D JUMP JUMPDEST JUMPDEST PUSH2 0x823 DUP5 DUP3 DUP6 PUSH2 0xB7E JUMP JUMPDEST POP SWAP4 SWAP3 POP POP POP JUMP JUMPDEST PUSH1 0x0 DUP2 CALLDATALOAD SWAP1 POP PUSH2 0x83A DUP2 PUSH2 0xD4D JUMP JUMPDEST SWAP3 SWAP2 POP POP JUMP JUMPDEST PUSH1 0x0 DUP2 CALLDATALOAD SWAP1 POP PUSH2 0x84F DUP2 PUSH2 0xD64 JUMP JUMPDEST SWAP3 SWAP2 POP POP JUMP JUMPDEST PUSH1 0x0 DUP3 PUSH1 0x1F DUP4 ADD SLT PUSH2 0x86A JUMPI PUSH2 0x869 PUSH2 0xD28 JUMP JUMPDEST JUMPDEST DUP2 CALLDATALOAD PUSH2 0x87A DUP5 DUP3 PUSH1 0x20 DUP7 ADD PUSH2 0x7E9 JUMP JUMPDEST SWAP2 POP POP SWAP3 SWAP2 POP POP JUMP JUMPDEST PUSH1 0x0 DUP2 CALLDATALOAD SWAP1 POP PUSH2 0x892 DUP2 PUSH2 0xD7B JUMP JUMPDEST SWAP3 SWAP2 POP POP JUMP JUMPDEST PUSH1 0x0 PUSH1 0x20 DUP3 DUP5 SUB SLT ISZERO PUSH2 0x8AE JUMPI PUSH2 0x8AD PUSH2 0xD37 JUMP JUMPDEST JUMPDEST PUSH1 0x0 PUSH2 0x8BC DUP5 DUP3 DUP6 ADD PUSH2 0x82B JUMP JUMPDEST SWAP2 POP POP SWAP3 SWAP2 POP POP JUMP JUMPDEST PUSH1 0x0 DUP1 PUSH1 0x0 PUSH1 0x60 DUP5 DUP7 SUB SLT ISZERO PUSH2 0x8DE JUMPI PUSH2 0x8DD PUSH2 0xD37 JUMP JUMPDEST JUMPDEST PUSH1 0x0 DUP5 ADD CALLDATALOAD PUSH8 0xFFFFFFFFFFFFFFFF DUP2 GT ISZERO PUSH2 0x8FC JUMPI PUSH2 0x8FB PUSH2 0xD32 JUMP JUMPDEST JUMPDEST PUSH2 0x908 DUP7 DUP3 DUP8 ADD PUSH2 0x855 JUMP JUMPDEST SWAP4 POP POP PUSH1 0x20 PUSH2 0x919 DUP7 DUP3 DUP8 ADD PUSH2 0x883 JUMP JUMPDEST SWAP3 POP POP PUSH1 0x40 PUSH2 0x92A DUP7 DUP3 DUP8 ADD PUSH2 0x840 JUMP JUMPDEST SWAP2 POP POP SWAP3 POP SWAP3 POP SWAP3 JUMP JUMPDEST PUSH1 0x0 PUSH1 0x20 DUP3 DUP5 SUB SLT ISZERO PUSH2 0x94A JUMPI PUSH2 0x949 PUSH2 0xD37 JUMP JUMPDEST JUMPDEST PUSH1 0x0 PUSH2 0x958 DUP5 DUP3 DUP6 ADD PUSH2 0x883 JUMP JUMPDEST SWAP2 POP POP SWAP3 SWAP2 POP POP JUMP JUMPDEST PUSH2 0x96A DUP2 PUSH2 0xB36 JUMP JUMPDEST DUP3 MSTORE POP POP JUMP JUMPDEST PUSH2 0x979 DUP2 PUSH2 0xB24 JUMP JUMPDEST DUP3 MSTORE POP POP JUMP JUMPDEST PUSH2 0x988 DUP2 PUSH2 0xB48 JUMP JUMPDEST DUP3 MSTORE POP POP JUMP JUMPDEST PUSH1 0x0 PUSH2 0x999 DUP3 PUSH2 0xAD7 JUMP JUMPDEST PUSH2 0x9A3 DUP2 DUP6 PUSH2 0xAE2 JUMP JUMPDEST SWAP4 POP PUSH2 0x9B3 DUP2 DUP6 PUSH1 0x20 DUP7 ADD PUSH2 0xB8D JUMP JUMPDEST PUSH2 0x9BC DUP2 PUSH2 0xD3C JUMP JUMPDEST DUP5 ADD SWAP2 POP POP SWAP3 SWAP2 POP POP JUMP JUMPDEST PUSH2 0x9D0 DUP2 PUSH2 0xB74 JUMP JUMPDEST DUP3 MSTORE POP POP JUMP JUMPDEST PUSH1 0x0 PUSH1 0x20 DUP3 ADD SWAP1 POP PUSH2 0x9EB PUSH1 0x0 DUP4 ADD DUP5 PUSH2 0x970 JUMP JUMPDEST SWAP3 SWAP2 POP POP JUMP JUMPDEST PUSH1 0x0 PUSH1 0x20 DUP3 ADD SWAP1 POP PUSH2 0xA06 PUSH1 0x0 DUP4 ADD DUP5 PUSH2 0x97F JUMP JUMPDEST SWAP3 SWAP2 POP POP JUMP JUMPDEST PUSH1 0x0 PUSH1 0xA0 DUP3 ADD SWAP1 POP DUP2 DUP2 SUB PUSH1 0x0 DUP4 ADD MSTORE PUSH2 0xA26 DUP2 DUP9 PUSH2 0x98E JUMP JUMPDEST SWAP1 POP PUSH2 0xA35 PUSH1 0x20 DUP4 ADD DUP8 PUSH2 0x9C7 JUMP JUMPDEST PUSH2 0xA42 PUSH1 0x40 DUP4 ADD DUP7 PUSH2 0x961 JUMP JUMPDEST PUSH2 0xA4F PUSH1 0x60 DUP4 ADD DUP6 PUSH2 0x97F JUMP JUMPDEST PUSH2 0xA5C PUSH1 0x80 DUP4 ADD DUP5 PUSH2 0x9C7 JUMP JUMPDEST SWAP7 SWAP6 POP POP POP POP POP POP JUMP JUMPDEST PUSH1 0x0 PUSH1 0x20 DUP3 ADD SWAP1 POP PUSH2 0xA7B PUSH1 0x0 DUP4 ADD DUP5 PUSH2 0x9C7 JUMP JUMPDEST SWAP3 SWAP2 POP POP JUMP JUMPDEST PUSH1 0x0 PUSH2 0xA8B PUSH2 0xA9C JUMP JUMPDEST SWAP1 POP PUSH2 0xA97 DUP3 DUP3 PUSH2 0xBF2 JUMP JUMPDEST SWAP2 SWAP1 POP JUMP JUMPDEST PUSH1 0x0 PUSH1 0x40 MLOAD SWAP1 POP SWAP1 JUMP JUMPDEST PUSH1 0x0 PUSH8 0xFFFFFFFFFFFFFFFF DUP3 GT ISZERO PUSH2 0xAC1 JUMPI PUSH2 0xAC0 PUSH2 0xCF9 JUMP JUMPDEST JUMPDEST PUSH2 0xACA DUP3 PUSH2 0xD3C JUMP JUMPDEST SWAP1 POP PUSH1 0x20 DUP2 ADD SWAP1 POP SWAP2 SWAP1 POP JUMP JUMPDEST PUSH1 0x0 DUP2 MLOAD SWAP1 POP SWAP2 SWAP1 POP JUMP JUMPDEST PUSH1 0x0 DUP3 DUP3 MSTORE PUSH1 0x20 DUP3 ADD SWAP1 POP SWAP3 SWAP2 POP POP JUMP JUMPDEST PUSH1 0x0 PUSH2 0xAFE DUP3 PUSH2 0xB74 JUMP JUMPDEST SWAP2 POP PUSH2 0xB09 DUP4 PUSH2 0xB74 JUMP JUMPDEST SWAP3 POP DUP3 PUSH2 0xB19 JUMPI PUSH2 0xB18 PUSH2 0xC9B JUMP JUMPDEST JUMPDEST DUP3 DUP3 DIV SWAP1 POP SWAP3 SWAP2 POP POP JUMP JUMPDEST PUSH1 0x0 PUSH2 0xB2F DUP3 PUSH2 0xB54 JUMP JUMPDEST SWAP1 POP SWAP2 SWAP1 POP JUMP JUMPDEST PUSH1 0x0 PUSH2 0xB41 DUP3 PUSH2 0xB54 JUMP JUMPDEST SWAP1 POP SWAP2 SWAP1 POP JUMP JUMPDEST PUSH1 0x0 DUP2 ISZERO ISZERO SWAP1 POP SWAP2 SWAP1 POP JUMP JUMPDEST PUSH1 0x0 PUSH20 0xFFFFFFFFFFFFFFFFFFFFFFFFFFFFFFFFFFFFFFFF DUP3 AND SWAP1 POP SWAP2 SWAP1 POP JUMP JUMPDEST PUSH1 0x0 DUP2 SWAP1 POP SWAP2 SWAP1 POP JUMP JUMPDEST DUP3 DUP2 DUP4 CALLDATACOPY PUSH1 0x0 DUP4 DUP4 ADD MSTORE POP POP POP JUMP JUMPDEST PUSH1 0x0 JUMPDEST DUP4 DUP2 LT ISZERO PUSH2 0xBAB JUMPI DUP1 DUP3 ADD MLOAD DUP2 DUP5 ADD MSTORE PUSH1 0x20 DUP2 ADD SWAP1 POP PUSH2 0xB90 JUMP JUMPDEST DUP4 DUP2 GT ISZERO PUSH2 0xBBA JUMPI PUSH1 0x0 DUP5 DUP5 ADD MSTORE JUMPDEST POP POP POP POP JUMP JUMPDEST PUSH1 0x0 PUSH1 0x2 DUP3 DIV SWAP1 POP PUSH1 0x1 DUP3 AND DUP1 PUSH2 0xBD8 JUMPI PUSH1 0x7F DUP3 AND SWAP2 POP JUMPDEST PUSH1 0x20 DUP3 LT DUP2 EQ ISZERO PUSH2 0xBEC JUMPI PUSH2 0xBEB PUSH2 0xCCA JUMP JUMPDEST JUMPDEST POP SWAP2 SWAP1 POP JUMP JUMPDEST PUSH2 0xBFB DUP3 PUSH2 0xD3C JUMP JUMPDEST DUP2 ADD DUP2 DUP2 LT PUSH8 0xFFFFFFFFFFFFFFFF DUP3 GT OR ISZERO PUSH2 0xC1A JUMPI PUSH2 0xC19 PUSH2 0xCF9 JUMP JUMPDEST JUMPDEST DUP1 PUSH1 0x40 MSTORE POP POP POP JUMP JUMPDEST PUSH1 0x0 PUSH2 0xC2E DUP3 PUSH2 0xB74 JUMP JUMPDEST SWAP2 POP PUSH32 0xFFFFFFFFFFFFFFFFFFFFFFFFFFFFFFFFFFFFFFFFFFFFFFFFFFFFFFFFFFFFFFFF DUP3 EQ ISZERO PUSH2 0xC61 JUMPI PUSH2 0xC60 PUSH2 0xC6C JUMP JUMPDEST JUMPDEST PUSH1 0x1 DUP3 ADD SWAP1 POP SWAP2 SWAP1 POP JUMP JUMPDEST PUSH32 0x4E487B7100000000000000000000000000000000000000000000000000000000 PUSH1 0x0 MSTORE PUSH1 0x11 PUSH1 0x4 MSTORE PUSH1 0x24 PUSH1 0x0 REVERT JUMPDEST PUSH32 0x4E487B7100000000000000000000000000000000000000000000000000000000 PUSH1 0x0 MSTORE PUSH1 0x12 PUSH1 0x4 MSTORE PUSH1 0x24 PUSH1 0x0 REVERT JUMPDEST PUSH32 0x4E487B7100000000000000000000000000000000000000000000000000000000 PUSH1 0x0 MSTORE PUSH1 0x22 PUSH1 0x4 MSTORE PUSH1 0x24 PUSH1 0x0 REVERT JUMPDEST PUSH32 0x4E487B7100000000000000000000000000000000000000000000000000000000 PUSH1 0x0 MSTORE PUSH1 0x41 PUSH1 0x4 MSTORE PUSH1 0x24 PUSH1 0x0 REVERT JUMPDEST PUSH1 0x0 DUP1 REVERT JUMPDEST PUSH1 0x0 DUP1 REVERT JUMPDEST PUSH1 0x0 DUP1 REVERT JUMPDEST PUSH1 0x0 DUP1 REVERT JUMPDEST PUSH1 0x0 PUSH1 0x1F NOT PUSH1 0x1F DUP4 ADD AND SWAP1 POP SWAP2 SWAP1 POP JUMP JUMPDEST PUSH2 0xD56 DUP2 PUSH2 0xB24 JUMP JUMPDEST DUP2 EQ PUSH2 0xD61 JUMPI PUSH1 0x0 DUP1 REVERT JUMPDEST POP JUMP JUMPDEST PUSH2 0xD6D DUP2 PUSH2 0xB36 JUMP JUMPDEST DUP2 EQ PUSH2 0xD78 JUMPI PUSH1 0x0 DUP1 REVERT JUMPDEST POP JUMP JUMPDEST PUSH2 0xD84 DUP2 PUSH2 0xB74 JUMP JUMPDEST DUP2 EQ PUSH2 0xD8F JUMPI PUSH1 0x0 DUP1 REVERT JUMPDEST POP JUMP INVALID LOG2 PUSH5 0x6970667358 0x22 SLT KECCAK256 0xBD SHL LOG0 AND 0xB9 0x5C POP DUP13 MUL 0x4D 0x48 0xC6 0xBE 0xC2 NUMBER 0xED 0xF7 SWAP16 CALL 0xCA 0x21 0x28 SWAP14 0xE5 CALLER 0xA9 0xEC 0x5D DUP6 0xDA PUSH25 0xE564736F6C6343000806003300000000000000000000000000 "
    },
    "gasEstimates": {
      "creation": {
        "codeDepositCost": "705600",
        "executionCost": "infinite",
        "totalCost": "infinite"
      },
      "external": {
        "approveRequest(uint256)": "infinite",
        "approvers(address)": "2868",
        "approversCount()": "2451",
        "contribute()": "51024",
        "createRequest(string,uint256,address)": "infinite",
        "finalizeRequest(uint256)": "infinite",
        "manager()": "2559",
        "minimumContritbution()": "2496",
        "requests(uint256)": "infinite"
      }
    },
    "methodIdentifiers": {
      "approveRequest(uint256)": "d7d1bbdb",
      "approvers(address)": "0a144391",
      "approversCount()": "82fde093",
      "contribute()": "d7bb99ba",
      "createRequest(string,uint256,address)": "8a9cfd55",
      "finalizeRequest(uint256)": "03441006",
      "manager()": "481c6a75",
      "minimumContritbution()": "60553460",
      "requests(uint256)": "81d12c58"
    }
  },
  "storageLayout": {
    "storage": [
      {
        "astId": 57,
        "contract": "Campaign.sol:Campaign",
        "label": "numRequests",
        "offset": 0,
        "slot": "0",
        "type": "t_uint256"
      },
      {
        "astId": 62,
        "contract": "Campaign.sol:Campaign",
        "label": "requests",
        "offset": 0,
        "slot": "1",
        "type": "t_mapping(t_uint256,t_struct(Request)54_storage)"
      },
      {
        "astId": 64,
        "contract": "Campaign.sol:Campaign",
        "label": "manager",
        "offset": 0,
        "slot": "2",
        "type": "t_address"
      },
      {
        "astId": 66,
        "contract": "Campaign.sol:Campaign",
        "label": "minimumContritbution",
        "offset": 0,
        "slot": "3",
        "type": "t_uint256"
      },
      {
        "astId": 70,
        "contract": "Campaign.sol:Campaign",
        "label": "approvers",
        "offset": 0,
        "slot": "4",
        "type": "t_mapping(t_address,t_bool)"
      },
      {
        "astId": 73,
        "contract": "Campaign.sol:Campaign",
        "label": "approversCount",
        "offset": 0,
        "slot": "5",
        "type": "t_uint256"
      }
    ],
    "types": {
      "t_address": {
        "encoding": "inplace",
        "label": "address",
        "numberOfBytes": "20"
      },
      "t_address_payable": {
        "encoding": "inplace",
        "label": "address payable",
        "numberOfBytes": "20"
      },
      "t_bool": {
        "encoding": "inplace",
        "label": "bool",
        "numberOfBytes": "1"
      },
      "t_mapping(t_address,t_bool)": {
        "encoding": "mapping",
        "key": "t_address",
        "label": "mapping(address => bool)",
        "numberOfBytes": "32",
        "value": "t_bool"
      },
      "t_mapping(t_uint256,t_struct(Request)54_storage)": {
        "encoding": "mapping",
        "key": "t_uint256",
        "label": "mapping(uint256 => struct Campaign.Request)",
        "numberOfBytes": "32",
        "value": "t_struct(Request)54_storage"
      },
      "t_string_storage": {
        "encoding": "bytes",
        "label": "string",
        "numberOfBytes": "32"
      },
      "t_struct(Request)54_storage": {
        "encoding": "inplace",
        "label": "struct Campaign.Request",
        "members": [
          {
            "astId": 41,
            "contract": "Campaign.sol:Campaign",
            "label": "description",
            "offset": 0,
            "slot": "0",
            "type": "t_string_storage"
          },
          {
            "astId": 43,
            "contract": "Campaign.sol:Campaign",
            "label": "value",
            "offset": 0,
            "slot": "1",
            "type": "t_uint256"
          },
          {
            "astId": 45,
            "contract": "Campaign.sol:Campaign",
            "label": "recipient",
            "offset": 0,
            "slot": "2",
            "type": "t_address_payable"
          },
          {
            "astId": 47,
            "contract": "Campaign.sol:Campaign",
            "label": "complete",
            "offset": 20,
            "slot": "2",
            "type": "t_bool"
          },
          {
            "astId": 49,
            "contract": "Campaign.sol:Campaign",
            "label": "approvalCount",
            "offset": 0,
            "slot": "3",
            "type": "t_uint256"
          },
          {
            "astId": 53,
            "contract": "Campaign.sol:Campaign",
            "label": "approvals",
            "offset": 0,
            "slot": "4",
            "type": "t_mapping(t_address,t_bool)"
          }
        ],
        "numberOfBytes": "160"
      },
      "t_uint256": {
        "encoding": "inplace",
        "label": "uint256",
        "numberOfBytes": "32"
      }
    }
  },
  "userdoc": {
    "kind": "user",
    "methods": {},
    "version": 1
  }
}